S013000045465233324D4732315F5A432E733337AC
S214000000C01A0020B9A901005D3600006136000064
S214000010A70B0000000000000000FFFF54000000D7
S21400002004180F00000000000000000000000000A0
S21400003000000000000000000000000000000000BB
S214000040000000000000000000000000A701000003
S20800005000000000A7
S214000054C01A0020B9A901005D3600006136000010
S214000064A70A0A010002000004180FACA067A70143
S2140000740000000000000000000000000000000077
S2140000840000000000000000000000000000000067
S2140000940000000000000000FFFFFFFFFFFFFFFF5F
S2140000A4FFFFFFFF006007000000000000000000E4
S2140000B4FFFFFFFFFFFFFFFF8000000000000000BF
S2140000C40000000000000000000000000000000027
S2140000D40000000000000000A0530020A0530020F1
S2140000E4C01A0020A48F0300A00E03006011002095
S2100000F42C11002000E0070000000000B7
S214000200C01A0020B9A901005D3600006136000062
S214000210E57B0000653600006D360000B7A90100DA
S214000220B7A90100B7A90100B7A90100B7A9010045
S21400023071360000B7A90100B7A90100B7A90100EF
S214000240E4360000E4360000E4360000E436000041
S214000250E4360000A9520000D95F0000E436000032
S214000260E4360000E4360000AD5000003DBD00005E
S214000270E4360000E4360000E436000075BD0000F9
S214000280E4360000E4360000E4360000B7A90100BA
S214000290E436000009490000E4360000E4360000B9
S2140002A0E4360000094A0000E1490000E436000098
S2140002B0E4360000E4360000E436000089830100DE
S2140002C01583010011830100517A01008583010026
S2140002D019830100398301001D830100B7A90100BD
S2140002E0CD830100E4360000E43600004539000006
S2140002F0E4360000E4360000E4360000B7A901004A
S214000300E4360000E4360000E4360000E436000080
S214000310E4360000E4360000E4360000E436000070
S214000320E4360000E4360000E4360000E436000060
S208000330E4360000AA
S214000334F8B500BFF8BC08BC9E467047F8B500BFC9
S214000344F8BC08BC9E46704710B5054C237833B9F4
S214000354044B13B1044800E000BF0123237010BD12
S21400036424240020000000003886030008B5034B50
S2140003741BB10349034800E000BF08BD00000000AD
S2140003842824002038860300154B002B08BF134B87
S2140003949D46A3F5803A00218B460F461348144A1F
S2140003A4121A30F043FD0F4B002B00D098470E4B2B
S2140003B4002B00D098470020002104000D000D48B3
S2140003C4002802D00C4800E000BF30F0F1FC20000A
S2140003D429000BF01DFF30F0D7FC00BF000008001A
S2140003E4C01A0020000000000000000024240020A2
S2140003F4A053002000000000000000001FB50123E9
S2140004040022009306210DF10F030EF05AF820B9CE
S2140004149DF80F3023B103F065F905B05DF804FBD1
S21400042403F061F9F9E7000030B50024144D85B0F7
S2140004342C700CF0E3FD022817D100900DF10E038A
S2140004442246032101200EF03CF8BDF80E0048B108
S214000454204603F049F94FF47A6128461FF076F8EF
S21400046405B030BD03F03EF9FAE709F06DFB054B25
S2140004740090054A054901200FF0F2F9F0E700BFA5
S214000484F842002021280300A00E0300A50E030056
S21400049408B50CF0B3FD02280CD10022064B01204F
S2140004A41A7007F01FF8BDE8084002460349012009
S2140004B40FF0D6B908BD00BFF0420020D30E0300EB
S2140004C40020704770470000002307B5044A0093D5
S2140004D40449054B01200FF0C3F903B05DF804FB93
S2140004E4C20E0300A50E0300B90E0300FFF786BF75
S2140004F409B9FFF783BF704738B5C37B05460BB110
S214000504832038BDC47C2CB901F0A6FF20B9EB7B50
S214000514002BF5D18120F4E72046F2E7C37B10B523
S21400052404460BB1832010BDC37C1BB1012B10D035
S2140005348120F8E7017D82898B1C9A420CD380685F
S2140005440EF0CFFC07F0C6FB40B9E37B002BE9D1E5
S214000554EEE707F0D7FBF7E78020E4E70020E2E7C2
S214000564F8B5C37B04460BB18320F8BDC37C052BCA
S21400057429D8DFE803F0032A35414C4F057D8289EC
S214000584AB1C9A4201D28020EFE7ADB229468068C0
S2140005940EF0A7FC0646A06802352844A7890EF08C
S2140005A4B9FC284401308742EDD32946A289A068C5
S2140005B40EF09EFC0146304607F054F8002848D159
S2140005C4E37B002BD0D18120CFE7017D82898B1C71
S2140005D49A42D8D380680EF084FC07F063F8EDE7FF
S2140005E4037D81895A1C9142CDD38268591C1144DB
S2140005F4D05C07F087F8E1E7017D82898B1C9A427C
S214000604C1D380680EF06DFC07F0FEF8D6E707F05D
S21400061457F9D3E7057D8289AB1C9A42B3D3ADB2B2
S214000624294680680EF05DFC0646A068023528441C
S214000634A7890EF06FFC284401308742A3D32946CD
S214000644A289A0680EF054FC0146304607F080F9F3
S214000654B4E7002089E7C37B2DE9F7430446002B63
S21400066440F0BA80C37C062B00F2B880DFE803F0C3
S214000674044A5A6A7585A800057D8289AB1C9A428D
S21400068403D2802003B0BDE8F083ADB2294680686B
S2140006940EF027FCA289E91C8A42064605F10203ED
S2140006A4EFD3881C8242ECD3A0680535C75C0EF0F5
S2140006B418FC8046A068B4F80C9028440EF02AFC77
S2140006C4284401308145DCD32946A289A0680EF06F
S2140006D40FFC8146A06828440EF01CFC013005443B
S2140006E4A0684B4610FA85F50095424639463046D2
S2140006F40AF054FF002873D1E37B002B14BF832039
S2140007048120BFE7057D8289EB1C9A42B9D3ADB23E
S214000714294680680EF0E5FBA3680235595D0AF0A9
S214000724BDFFE7E7057D8289EB1C9A42A9D3ADB2EB
S214000734294680680EF0D5FBA3680235595D0AF099
S214000744ABFBD7E7017D82898B1C9A4299D38068DC
S2140007540EF0C7FB0AF00EFCCCE7057D8289EB1C85
S2140007649A428ED3ADB2294680680EF0BAFBA368CF
S2140007740235595D0AF064FDBCE7057D8289AB1C31
S2140007849A42FFF47EAFADB2294680680EF0A9FB0C
S214000794A289E91C8A42064605F10203FFF471AFFA
S2140007A4A068C75C8B1C9A4207D30EF09AFB0246DD
S2140007B4394630460AF0ACFD9CE74FF6FF72F7E781
S2140007C4017D82898B1C9A42FFF45BAF80680EF031
S2140007D488FB0AF037FC8DE7832053E7812051E736
S2140007E400204FE7C37B10B504460BB1832010BD31
S2140007F4C37C012B0BD003D3022B0BD08120F6E74E
S21400080409F060FB48B9E37B002BEFD1F6E709F06B
S21400081469FBF7E709F076FBF4E70020E7E7C37B1C
S214000824F7B50446002B40F0D280C37C072B00F2B9
S214000834D080DFE813F008003800590086009B00DB
S214000844AA00B600C900037D8289591C8A42C0F0FA
S214000854C2809DB2691C881C8242C0F0BC80A0681D
S214000864C75C0EF03EFBEB1CA6895A1C964228BFBA
S214000874A268014624BFD25C2B1D03F1010038BFD9
S214000884FF2286422ABFA068FF23C35C384607F0CF
S214000894B5FF002840F0A180E37B002B14BF832023
S2140008A4812003B0F0BD067D8589731C9D42C0F08F
S2140008B49280B7B2BA1C954207F10103C0F08B8050
S2140008C48068C15C13460132954224BFC25CFB1C9F
S2140008D403F1010738BFFF22BD422CBFC35CFF23D0
S2140008E4805D07F0A8FFD4E7037D8289591C8A42FD
S2140008F471D39DB2A91C8A4205F101076BD3881CEB
S214000904824268D3A068C65CC75D0EF0EAFA291D69
S214000914B4F80CC04B1C9C4528BFA368024624BFF1
S2140009245B5C691D01F1010038BFFF23844532BFBB
S214000934FF21A068415C30460091394607F093FFDA
S214000944A7E7027D8189501C814293B222BFA0682A
S2140009540133805C03F1010238BFFF2091422ABFB5
S214000964A268FF21D15C07F09AFF92E7017D828995
S214000974CB1C9A422FD38068455C01310EF0B1FA45
S2140009840146284607F048FF83E7037D81899A1CC1
S214000994914220D38268591C515CD05C07F057FF03
S2140009A477E7037D8289191D8A4214D3806899B239
S2140009B4C55C4B1C0231C65C0EF093FA3146024607
S2140009C4284607F05EFF64E707F071FF61E78320BF
S2140009D467E7812065E7802063E7002061E738B594
S2140009E4C37B0446002B437D14BF8325C325012BFC
S2140009F413D0637DCBB92368228A598858790DF0C1
S214000A040EF890B123685B88082B0ED8DFE803F055
S214000A140F0D0D14191E230D28000368028A598829
S214000A2458790DF005F80028E3D0284638BD20464E
S214000A34BDE83840FFF760BD2046BDE83840FFF704
S214000A446DBD2046BDE83840FFF78ABD2046BDE8A8
S214000A543840FFF700BE2046BDE83840FFF7C2BE68
S214000A642046BDE83840FFF7DABE704701207047DD
S214000A74012070470120704770470020704700200F
S214000A847047002070470020704700207047002001
S214000A9470470120704701207047B520704700203A
S214000AA4704700207047002070470020704770474A
S214000AB400207047704700207047842070477047B6
S214000AC470477047704700207047704770477047FC
S214000AD400207047704700F011BD032070470020C7
S214000AE470470000034B1B681878012808BF0220D3
S214000AF4704700BF603B002000207047034601207B
S214000B04024AC3E9032000221A7070470100FEFF60
S214000B147047002070470020704700207047002070
S214000B247047002070477047B52070470020704714
S214000B340020704770470020704770477047B52004
S214000B44704770477047704700207047704770477B
S214000B540023FF21084A137082F8783082F8653043
S214000B6482F8773082F8793082F87A1082F87B300F
S214000B74024A1360704700BF402400200043002050
S214000B84F8B50D468C680A6806462849202003F006
S214000B9446FC6B687BB92649202003F040FC2020E5
S214000BA40AF03CFE2349202003F04EFCBDE8F84042
S214000BB420200AF033BE002EF1D01F4D1F4E204FCA
S214000BC4013C14F8013F23B91A49202003F03CFCE9
S214000BD4E5E7752B18D0762B18D0772B18D0732B07
S214000BE418D0722B18D0712B18D0622B18D06E2BFD
S214000BF418D02A2B18D01349134A212B18BF114694
S214000C04202003F00CFCDCE72946F9E73146F7E739
S214000C143946F5E70D49F3E70D49F1E70D49EFE7E6
S214000C240D49EDE70D49EBE70D49E9E7895C03005B
S214000C34870F0300380F0300450F0300390F030026
S214000C44500F0300910F03008E0F03005C0F030088
S214000C54660F0300710F03007C0F0300860F03006A
S214000C648B0F0300F0B50026204A92F87B30184418
S214000C7452FA80F090F865C090F8665030461C4BE7
S214000C84A5EB0C051F78EDB2F4B2A54225D90CEB02
S214000C94060313445B7811B10CB92D2B17D0782BAF
S214000CA41FD0582B05D108B137240AE0013C012C8B
S214000CB414D9602B17D8402BF6D83A2B34BF3024DF
S214000CC400241B1BDBB29F4203D900FB073001360E
S214000CD4DAE70523002082F87930F0BD10270020DB
S214000CE4F5E70028E2D05724EBE700BF40240020B5
S214000CF4581C0020FFF72CBF034B93F8770093F89B
S214000D047B30C01AC0B27047402400200021FFF791
S214000D14A9BF000010B50A4B93F87B20024453FA8F
S214000D2482F292F8652013445C78A4F12D035942AC
S214000D345941FFF797FF2D2C08BF404210BD00BF56
S214000D444024002030B50C4A92F87B300344C0435C
S214000D54DBB2C00F39B1D51895F8664095F86550E2
S214000D64641B241A0C7042FA83F393F86530184413
S214000D74024B184430BD00BF40240020412400200C
S214000D84F7B515460E460DF107011C46FFF7DAFFC8
S214000D949DF807300746AB4288BF8DF807501CB154
S214000DA49DF807402C1BE4B222463046002100F092
S214000DB479FB30199DF80720394600F017FB9DF89B
S214000DC4070003B0F0BD38B50C4601230822FFF730
S214000DD4D7FF04F10803621E043413F8011D12F849
S214000DE4015FA3421D701170F7D138BD38B50546B2
S214000DF401460120FFF7C4FED5E901436CB91C4641
S214000E04084D236863B12946202003F008FB2146D9
S214000E140020FFF7B5FE0C34F3E71B786E2BEFD0FB
S214000E2438BD00BFA95E030008B50449202003F0BE
S214000E34F6FABDE8084020200AF0F0BCF90E0300DC
S214000E4438B5FFF7F1FF0024054D61190C3463191A
S214000E5453F80C3C03B938BD0020FFF791FEF4E7C5
S214000E64441E03002DE9F84F1F4B204D53F8202055
S214000E741F49202003F0D3FA2B681BB9BDE8F84FAE
S214000E84FFF7DEBF1B4FFFF7CFFF0026B946DFF89C
S214000E946CA097F87B30F4B2013B9C4204DB2868D4
S214000EA4BDE8F84FFFF7A2BF47FA86F393F86580CC
S214000EB400234C44C84494F8662094F8651003F163
S214000EC4010B521ADBB2D2B2934205D30A49202050
S214000ED403F0A5FA0136DCE743445A78514620204D
S214000EE403F09DFA5B46E6E75C1C00200043002006
S214000EF4F40E030040240020AA5E0300E86003000A
S214000F042DE9F74F884C94F87730002B00F0A18039
S214000F14864B671C1B7813F0010F1FD00025844EE8
S214000F2414E0631993F8662093F865302020D21AEB
S214000F3444FA85F393F86510D2B239440AF069FC92
S214000F443146202003F06BFA0135EDB294F8773081
S214000F54AB42E6D87749202003F061FA002694F8DD
S214000F647730DFF8DCE10193734B4FF000087146ED
S214000F7445461EF8012B91F801C007EB020AACEBBC
S214000F84020C5FFA8CFC1868002852D00138D1464F
S214000F9419E02AB9002D4AD04FF001080C33F2E7C5
S214000FA419F8011BA1F1410BBBF1190F98BF2031B1
S214000FB4A2F1410B98BFC9B2BBF1190F9CBF2032F6
S214000FC4D2B28A42EAD1A9EB0A01614510F8012F90
S214000FD4DFD1002ADED11D46584B01361D6094F839
S214000FE47B30F6B2013384F87B30D5E90123002A3E
S214000FF435D01B786E2B31D03F2B23D04FF0000911
S2140010044FF0070BC846042394F87710AA68B14239
S21400101412F808702BD8AFB1904498F801302A2BF8
S21400102410D0212F1CBF032384F879300AE01D4614
S214001034B4E7B8F1000F01D1002DCDD1022300256D
S21400104484F8793094F87900002869D168680DF03E
S21400105437FC03B0BDE8F04FFFF77ABD1346019A9C
S214001064B24282D803221D4684F87920EAE7732F19
S21400107409D8712F0BD2212F1FD0622F3CD0002FFE
S2140010844BD1032246E0A7F17502022A45D8752FF4
S21400109429D0762F2AD0732F2BD0722F47F6FF7ABB
S2140010A418BF4FF0FF3A012148460193FFF7DAFDD7
S2140010B45045019B01D984F87930AA684244527895
S2140010C42A2A94F879201CBF08F101085FFA88F8E8
S2140010D4002AB7D1212F1FBF013609F10109F6B244
S2140010E45FFA89F990E74FF0FF0ADCE74FF6FF7ADC
S2140010F4D9E74FF07F0AD6E794F87B204A4454FA9F
S21400110482F292F8652022445278222AD5D07B2A8D
S214001114D3D0052284F87920CFE784F879B0CCE7D9
S214001124FFF7A0FE95E700BF40240020BC24002063
S214001134AA5E0300360F0300441E0300004300208B
S214001144A52400202DE9F34106460D464FF000087D
S2140011545C4C5D4F66B90DF1070128460AF054FB56
S21400116478B1262800F0A980012384F879304BE072
S214001174002D00F0A28016F8013B013D8DF80730E3
S214001184EDB23A789DF807300D2A3B7001D10A2B50
S214001194E0D00D2B0CD0A3F10A0251425141227823
S2140011A48846042AD6D8DFE802F0051D263C31001E
S2140011B40121F4E721B1FFF7A3FE4FF00108C9E7C8
S2140011C4202B63D0222B07D10223237094F8782097
S2140011D4642A5DD10623C8E77B2B01D10323F4E7F9
S2140011E40123F2E709B9202BF0D194F87730112BBC
S2140011F43FD10323B9E7222BF7D00029E6D00523F5
S2140012044FF0010884F8793004232370B8F1000FF6
S214001214A0D094F8790008B1FFF724FEFFF798FCF5
S21400122498E77D2B94F87A0003D1FF28DDD00523B8
S2140012349BE7602B13D8402B13D8392B8CBF002286
S21400124430229A1AD2B20F2A10D8FF280BD0FF23C6
S21400125402EB00128DF8072084F87A30B6E757229E
S214001264EFE73722EDE784F87A2073E7202BDED108
S21400127470E70133DBB294F8782084F8773023449F
S21400128483F8652000232370002994D1884661E7FB
S2140012942378012B09D19DF80730A3F141011929C0
S2140012A49CBF2033DBB28DF807309DF80710A318D7
S2140012B40132597084F878204CE7404602B0BDE805
S2140012C4F08100BF40240020BD24002049BA89B222
S2140012D44840C0F303114140080380B24840C3B2FB
S2140012E480EA431070471AF035BB70477047704762
S2140012F4704770477047704770477047704770472D
S214001304704770470020704770477047002070474A
S214001314704770470020704770477047704700203A
S2140013247047704701207047012070477047704728
S2140013347047704770477047704700002DE9F047C4
S2140013440024204DDFF89C90DFF89CA05FFA84F818
S21400135440461DF0B9FEFF2806460CD122461A491F
S214001364287803F071F8287801340AF057FA142C18
S214001374ECD1BDE8F087154B47B213EA270338BF14
S214001384534659F824201249287803F05DF8002FB4
S214001394E9DA14B1B8F1030F08D10E4B16F0010FB9
S2140013A40D49287818BF194603F04EF80A2CDAD1EE
S2140013B40A4B16F0010F0A49287818BF194603F09D
S2140013C443F8D0E721210020AD100300380F0300B6
S2140013D4D510030070100300861003009810030055
S2140013E4A21003001C100300FC5C03008842F0B546
S2140013F44FEA92031AD804460D469BB29E008719FC
S21400140404370434BC4205F104053AD1C3EB8333F4
S214001414314402EB8303013E304411FA83F39942CC
S21400142420D011F8012B00F8012FF8E7541E2044B1
S21400143421440D4604469BB2A0EB8306043E043CBE
S214001444B442A5F104050ED16FF003045C43C3EB6C
S214001454833302EB830321449BB201342044CB1A2A
S214001464994209D1F0BD2F792771EF78E770AF78EC
S214001474A7706F786770E2E711F8012900F8012D6C
S214001484EEE715F804CC04F804CC15F803CC04F8FD
S21400149403CC15F802CC04F802CC15F801CC04F8F9
S2140014A401CCAEE70244904200D1704700F8011B1D
S2140014B4F9E710B5013801390AB9104606E010F804
S2140014C4014F11F8013F9C4201D0E01A10BD013AC9
S2140014D492B2F1E782B2074B4AB1000C1A8008BFF9
S2140014E44FF6CE22044B14BF18801A8070474BF672
S2140014F4EF62F2E72C1D00202E1D0020094B1888F1
S214001504020448BF80F0620042001A80064A13882C
S214001514190444BF83F4805383F00B0359001180ED
S214001524584070472C1D00202E1D00200022034B1F
S2140015341870034B1970034B1A707047C7240020A9
S214001544C6240020C82400202DE9F04F234E85B081
S214001554337807468846002B3DD04FF6FB73204D64
S21400156498422C7803D952211E4801F067FC1E4B82
S2140015744FF0000B9A4632785FFA8BF94A45187892
S21400158411D9484402A9C0B2019326F005FC0822EA
S21400159441460DEB0200FFF78CFF0BF1010B019B9C
S2140015A40028E8D14C462B78A34207D1631C327836
S2140015B4DBB29A422B7004BF00232B709AF80030DB
S2140015C441461C44E4B2204626F00EFD18B93946BE
S2140015D4204626F0AFFB05B0BDE8F08FC6240020F9
S2140015E4C8240020CA110300C7240020024B187820
S2140015F400F07F00704700BFC9240020034B187812
S2140016040130C0B2187000F07F007047C924002073
S2140016141FB5030A8DF80E300323009303AB8DF831
S2140016240D0000F0BFF905B05DF804FB1FB58DF89A
S2140016340F100421030A8DF80E30009103AB8DF8C9
S2140016440D0000F0AFF905B05DF804FB2DE9F0439A
S214001654994689B0BDF840509DF8446007468846D0
S2140016640DF1090011460822BDF84C40FFF7BEFEF6
S2140016748DF81250012E4FEA15258DF811908DF82D
S21400168413508DF8146017D0032E1CD1082212991B
S2140016940DF11500FFF7AAFE9DF850308DF81D30A9
S2140016A416230093BDF8542002AB4146384600F09A
S2140016B479F909B0BDE8F0838DF81540240A8DF851
S2140016C416400F23EDE70120F3E71FB50C46194635
S2140016D402238DF80D2000930A4603AB01462046EC
S2140016E400F060F904B010BD70B586B00446164626
S2140016F40DF10D0008221D46FFF778FE0A232A4640
S2140017040093342103AB20468DF8156000F04AF9A7
S21400171406B070BD30B5002485B0ADF80A20021DB1
S21400172492B2012A1D46ADF80840ADF80610ADF891
S214001734044003D94FF6FF72904207D1064A2B465F
S214001744127801A924F06AFC05B030BD014601AA4E
S214001754204624F029FDF7E7301D00202DE9F74F39
S2140017649846FF2A16BF474B00241B680E4618BF30
S2140017749C5C814618BF6408B8F1FF0F16BF414B46
S21400178400271B6815461CBF13F808707F08FFF770
S21400179435FF4FEA19238DF800008DF80360062103
S2140017A4360A68468DF804608DF801908DF802308C
S2140017B48DF805401EF040FAFF28064604D118248A
S2140017C4204603B0BDE8F08F4FEA440B0BF1070A3E
S2140017D40AEB4701C9B21EF0E3F90028EFD104462C
S2140017E4A3451BD10BF106013A4601F0FE01304633
S2140017F45FFA8AF41EF09BFA4FF0000A5FFA8AF545
S214001804AF4223D83346BDF8302006214846FFF7BA
S21400181481FF044630461EF0B1F8D1E7214628463B
S2140018241EF080FAA11D0246C9B230461EF07FFAA9
S214001834611CC9B228461EF075FAE11D0246C9B2FB
S214001844304602341EF073FAE4B2C9E76D00EDB216
S214001854294640461EF066FA2146024630461EF0E9
S21400186466FA691CC9B240461EF05CFA611C024660
S214001874C9B2304602341EF05AFA0AF1010AE4B23A
S214001884BCE700BFC81C00202DE9F04188B00F4615
S21400189402A906460BF07EFC00287CD0FFF7AEFEBD
S2140018A48DF810001DF0E4FD8DF811001DF0E0FD2C
S2140018B4000A8DF81200082239490DF11300FFF7CB
S2140018C495FDBDF808300F218DF81C301B0A8DF8E5
S2140018D41D309DF80D3004A88DF81B608DF81E3061
S2140018E41EF0AAF9FF28044657D04FF000089DF8CA
S2140018F40D305FFA88F2934208F101081DD80122E0
S2140019040DF10E0120461EF0D9F94FF000089DF89F
S2140019140E305FFA88F2934208F1010824D8234671
S2140019243A4620210020FFF7F5FE054620461EF025
S21400193425F8284608B0BDE8F081002130460BF0B3
S21400194455FC05468DF807000DF1070101222046D7
S2140019541EF0B4F92D0A01220DF1070120468DF878
S21400196407501EF0ABF9C2E7012130460BF03EFCEF
S21400197405468DF807000DF10701012220461EF0EA
S2140019849DF92D0A01220DF1070120468DF8075016
S2140019941EF094F9BBE7A325CBE71825C9E700BFDB
S2140019A445520020F8B51C460E4617460546FFF776
S2140019B425FE9DF81810207020461EF03DF9FF28DD
S2140019C404460BD003463A4628463146FFF7A2FEA5
S2140019D4054620461DF0D2FF2846F8BD1825FBE72D
S2140019E408B500F0C3F80EF0C9FFBDE8084007F0DC
S2140019F4B1BB08B5FFF75EF80EF0EAFFBDE8084095
S214001A0406F0F2B8704700F06BB900F0BFB90020DA
S214001A14704738B504460D46FFF798F82946204621
S214001A2407F0B4FB29462046BDE838400AF02CBC33
S214001A34FFF775B8FFF77FB80122002109200FF0E1
S214001A4475BC704710B50446062920D8DFE801F0B7
S214001A54040F1316191C0700114600F03BFC00F097
S214001A6469FB01462046BDE8104000F083BCBDE893
S214001A74104000F059BC00F08FFCF0E700F09CFC2E
S214001A84EDE700F0ABFCEAE700F0B8FCE7E710BDD2
S214001A9413B50446154901200DF0E2FE012C11D0C1
S214001AA403D3022C18D002B010BD114901200DF04A
S214001AB4D7FE4FF49673032205210093002000F00E
S214001AC4C5FAF0E70B4920460DF0CAFE4FF49673AC
S214001AD4032200930221F1E7074901200DF0C0FE1E
S214001AE44FF4FA73224600930121E7E7A328030084
S214001AF4B6280300C7280300D728030004280ED1FD
S214001B04013903290BD8DFE801F00204060800F0C7
S214001B14B3B800F0BFB800F0CBB800F0D7B8704741
S214001B2408B5C8B10138042816D8DFE800F0030960
S214001B341113130009490120BDE808400DF090BEBA
S214001B44074901200DF08CFEBDE8084000F08ABB72
S214001B540449F0E70449EEE708BD00BFE7280300A0
S214001B64FA280300152903002D29030008B50F4998
S214001B7401200DF075FE0E4800F078F80D4800F0D0
S214001B84A7F80D490D4800F015F900F007FA0A20E9
S214001B9400F0ACFA0A4800F0DBFA0022094B0A48C7
S214001BA41A70BDE808401DF0C5BC00BF4E290300EE
S214001BB4951A0000491A0000471A0000011B00008D
S214001BC4251B0000444300203443002008B50B497D
S214001BD401200DF045FE0022094B1A70094B1A78B5
S214001BE412B1022A03D008BD01221A70FBE70122B3
S214001BF41A70BDE8084002F031B800BF6629030039
S214001C0434430020444300202DE9F0470024154BBC
S214001C144FF014081C7000F003FC0746DFF84890E9
S214001C2400F0A2FBE5B2A84206D8BDE8F0474FF4A0
S214001C347A710C481DF08ABC08FB05F57E19D6F8A7
S214001C4404A000F077FA01465046B67800F078FA19
S214001C54484504D9012E02D1785B00F0ADFB01346F
S214001C64DEE700BF3C430020FFA50E00014B1860D2
S214001C74704700BFCC24002010B5012007F074F98B
S214001C84034B1B681BB1BDE810400020184710BD6D
S214001C94CC24002010B507F0F9FA044B1B681BB1DE
S214001CA4BDE810400120184710BD00BFCC2400201A
S214001CB410B507F023FB044B1B681BB1BDE81040AE
S214001CC40220184710BD00BFCC24002020F034BDED
S214001CD4014B1860704700BFD024002000207047D6
S214001CE42DE9F04106468768037DB0F80680FA18A9
S214001CF454783268F85C558886B0062D40EA042489
S214001D0423D0252D37D055BB052C13D129461422B4
S214001D1401A81C1D2FF08AF8B1892744621992B2D3
S214001D249142EBB20AD8184A14681CB101AA0021E1
S214001D344046A047012006B0BDE8F0817A5D06A8BB
S214001D44034403F8142C0135E8E7F47C012C08D18D
S214001D540D4B04211C68002340461A46A047002069
S214001D64E9E7002CFBD1084B22461D6805212346D3
S214001D744046A847F3E7002CF1D1034B22461D68E2
S214001D8406212346F4E700BFD02400200B8810B5B4
S214001D9463B948F234024988914207D1044A146868
S214001DA414B11A460121A047012000E0002010BD0E
S214001DB4D0240020024B1860024B1960704700BF05
S214001DC4DC240020D4240020054B5A78824205D017
S214001DD45B7C83420CBF0120FF20704700207047C5
S214001DE4341D002038B5FFF7EFFF194DFF280446D1
S214001DF4287025D0012910D100F09CF92A78154BBB
S214001E0403EB041403EB02139A89606001329A818F
S214001E141148BDE838401DF08DBB89B900F08AF939
S214001E240C4C2B78014604EB0313586800F088F931
S214001E3432282D7805D804EB0514A389013BA38129
S214001E4438BD00F077F904EB0514A060F8E700BF8E
S214001E54D8240020341D0020484300202DE9F843F0
S214001E640023374E374C384DDFF8E480337004F1E6
S214001E74200900F05FF9A3890746E3B130222378EE
S214001E845A43324B9B586278D340DB072FD4014623
S214001E94606800F055F9B0F57A7F11D10121D8F8C1
S214001EA40030607898470123A373A3891BB164218B
S214001EB430461DF04BFB10344C45DAD1BDE8F883B0
S214001EC43946606800F03CF9B0F5FA6F03D1D8F8EB
S214001ED400300221E5E73946606800F031F940F643
S214001EE4B8339842E1D1D8F800300321D9E7A37B70
S214001EF413BB0146606800F023F9B0F5C87FD4D35D
S214001F04A389013B042B08D8DFE803F0030A0D106D
S214001F14130001212B68607898470023A381C4E747
S214001F242B680221F7E72B680321F4E72B680421CA
S214001F34F1E72B680521EEE70023A373EEE700BF65
S214001F4448430020341D0020DC24002014C0034035
S214001F54D42400200C2370B5584330250D490123A2
S214001F640A18085C41F210010B4C568805FB004029
S214001F7403FA06F646501079D68805FB004003FAA5
S214001F8406F64650107A5289934005FB0042535099
S214001F9470BD00BF541D002000C0034070B5124D34
S214001FA400242E462919285D002302224988043479
S214001FB404F078FD0C2CF5D100243019C1890023D7
S214001FC40222007B043404F06DFD0C2CF5D10020B5
S214001FD4FFF7C0FF0120FFF7BDFF044B044A1A6059
S214001FE4044A5A6070BD00BF541D00208843002078
S214001FF480430020504300200C22124B2DE9F04170
S21400200402FB003001270023302641F2100C42F276
S214002014100E0D4D10F8232000EB830406FB02522D
S214002024648841FA03F818F0010F07FA04F403F180
S214002034010314BF42F80E4042F80C40032BE9D1CA
S214002044BDE8F081541D002000C00340F0B4142500
S21400205401274543074EBA407419A360049B77557D
S214002064E360054BA174A28053F82000F0BC1DF079
S21400207461BA00BF58430020884300200022F8B508
S214002084154F164D57F8203004461A701423434350
S214002094EE18B288BAB1EB5C012B14D1D3070ED577
S2140020A4B17CFFF7A9FFB16857F824001DF04EFA7B
S2140020B4142303FB0454A388013BA380F8BDFFF755
S2140020C449FFF168F0E71423002263432046EA54EC
S2140020D4BDE8F840FFF73EBF884300205843002081
S2140020E40020FFF7CBBF0120FFF7C8BF0022014640
S2140020F4044B05481A700260044A184611601DF025
S21400210425BA00BF90430020E0240020E4240020E9
S21400211400230548054A0370054B196813680B44E9
S21400212413601DF013BA00BF90430020E024002083
S214002134E4240020014B1868704700BFE024002008
S2140021440B1A814238BF03F1FF331846704700006C
S21400215410B5044601234FF4E1310022032009F0B0
S214002164EFFA044B4FF47A711C600348BDE8104044
S2140021741DF0ECB9EC250020984300200021F0B5B2
S2140021841A4E1B4D032831706F780B468C460A4650
S2140021940C4612D02046F0BD012AE85C13D0022A71
S2140021A41ED0B12820D1012122464FF0FF0C0C4648
S2140021B40133DBB2204614460246002CECD000293C
S2140021C4E8D03370E6E7012B88BF8CEA000C9F4208
S2140021D408BF022201331446DBB200220121E9E7DC
S2140021E4844518BF0422E5E70122E3E7E82400203B
S2140021F4E924002010B50320FFF7C0FF022801D011
S214002204042805D1034B1B6813B1BDE810401847DA
S21400221410BD00BFEC25002073B500240F4B03202F
S2140022241C7009F0EFFA054690B10D4E0DF107014A
S2140022340320013409F0E8FAA4B29DF80730A54259
S21400224406F8013F02D0B4F5807FEFD1FFF7D2FF46
S214002254322102481DF07AF902B070BD984300207E
S214002264E82400200E4B5A79013A032A17D8DFE8EF
S21400227402F0020C11079B79022B10D1FFF7FCBC6D
S2140022849B79022B0BD1FFF721BD9B79022B06D13C
S214002294FFF700BD9B79022B01D1FFF709BD7047FC
S2140022A4E924002070B5094B142419780023084D3E
S2140022B4DAB2914201D8FF2206E0013304FB03564A
S2140022C436F8146C8642F3D1104670BDF025002013
S2140022D4A0430020F0B5124F87B03E780546132E73
S2140022E40C461BD8FFF7DEFFFF2817D10123214633
S2140022F4092203A8ADF804508DF806302EF0A6FD8A
S214002304002314248DF81530064B01AD04FB063467
S2140023140FCD0FC42B68013623603E7007B0F0BDA6
S214002324F0250020A0430020F8B5FFF7BBFFFF28E8
S21400233408D04FF0140C0A4E0A4F3378013B9842EB
S21400234401DB3370F8BD00F1010E0CFB00740CFBCE
S2140023540E750FCD0FC42B685FFA8EF02360ECE782
S214002364F0250020A0430020014B1878704700BFDA
S214002374F025002010B50C46FFF794FFFF2806D082
S2140023841421034B034A1B7801FB03235C6010BD36
S214002394F0250020A043002008B5FFF783FFFF28A0
S2140023A41BBF1422034B002002FB00331CBF01207A
S2140023B4987008BDA043002008B5FFF773FFFF28F8
S2140023C41BBF1422044B002002FB00301EBF002358
S2140023D48370012008BD00BFA043002008B5FFF7A6
S2140023E461FFFF281BBF1422034B002002FB0033AF
S2140023F41CBF0120D87008BDA043002008B5FFF715
S21400240451FFFF281BBF1422044B002002FB0030A0
S2140024141EBF0023C370012008BD00BFA0430020D8
S21400242400487047A0430020002307B5CDE90033D9
S214002434012369464FF0FF308DF8023010F002FF9A
S214002444003018BF012003B05DF804FB012070477C
S214002454012070470120704710B5084C23681B689C
S21400246458790BF0D6FC23681B685879FEF728FBCE
S21400247400200EF041FC012010BD00BFA850002033
S2140024842DE9F84F80460D4614469946164E06F139
S214002494010A0DB9BDE8F88F102D4FF00D0249461C
S2140024A450462F4628BF1027FEF7A0FF012333709F
S2140024B400230D48F473B37325F02EFE4246013410
S2140024C40A495FFA87FBE4B212F8013B11F8010FE0
S2140024D4434002F8013CA2EB0803DBB25B45F3D3AE
S2140024E4ED1BADB29046D4E7F5250020F425002078
S2140024F42DE9F04F4FF00209364D85B003930F9B3C
S214002504174601900D220E460146681CBDF8388019
S2140025140293FEF76BFF49234C46AA462B702846C7
S2140025244FEA1823AB7385F80F8025F0F5FD2B785A
S21400253483EA17232B706B787B406B704FF0000B8D
S21400254421E0C4F1100CA7EB0B031FFA8CFC9BB222
S214002554634528BF63463046A11B00EB010C5FFAB7
S2140025648CF2A0EB060C1FFA8CFC9C451BD31C4477
S214002574E4B29B44102C1E441FFA8BFB03D128465E
S21400258425F0CAFD0024BB45DBD314B1504625F024
S214002594C3FDB9F1010F4FF00004039E47460BD06C
S2140025A44FF00109CAE710F801CB1AF802E08CEAEA
S2140025B40E0C0AF802C0D0E7029804220549FEF77A
S2140025C415FF22460421019B029805B0BDE8F04F92
S2140025D4FFF756BFF5250020F7B5099FBDF8204044
S2140025E40646CDE900471D46FFF782FF2CB1334669
S2140025F4012221462846FFF743FF002003B0F0BD22
S2140026042DE9F7431E46054688469146BDF82870D0
S2140026140D4C0346394630460122FFF731FF334658
S2140026244A4641462846CDE90074FFF761FF042276
S21400263421460B98FEF73DFF002814BF7E2000209D
S21400264403B0BDE8F08300BFF12500202DE9F34177
S2140026540C4615461E468046084F991821443846AF
S2140026640422FEF7C3FECDE9006763192A46214615
S2140026744046FFF7C5FF02B0BDE8F08105260020FE
S2140026840020704700207047704770472DE9F341DB
S2140026940025254E254FDFF8A4800AF0ADFEECB2E7
S2140026A4A0420BD80AF0A8FE04460AF0A3FE22466F
S2140026B403461F4902200DF0D3F80BE00DF1050286
S2140026C40DF1060120460AF093FE30B119490220A6
S2140026D40DF0C6F802B0BDE8F081BDF8063022461B
S2140026E4314602200DF0D8F89DF80500FF2808D1E1
S2140026F40AF080FC4146024602200DF0B1F801358E
S214002704CBE70DF105020DF106010AF071FE30B9B2
S214002714BDF80620394602200DF0BEF8E4E7064967
S21400272402200DF0B9F8D5E7922903009629030094
S214002734B12903007C290300A0290300A62903006D
S21400274408B5104A104902200DF08AF80A220F49EB
S21400275402200DF085F83C220D4902200DF080F889
S2140027641E220C4902200DF07BF803220A4902209F
S2140027740DF076F8BDE808400122084902200DF065
S2140027846FB800BF522A0300562A0300642A0300C7
S2140027948A2A0300B02A0300BD2A0300DC2A0300A9
S2140027A408B501200FF092FFBDE8084082080249F0
S2140027B402200DF055B800BF302A030000200FF0A9
S2140027C485BF02200FF082BF08B50020FEF79EFAF0
S2140027D4C2B2012A05D9BDE80840054901200DF01A
S2140027E43FB804490120BDE808400DF039B800BFE1
S2140027F4C9290300F4290300704710F01BBA704778
S21400280491287FB504D11DF0C3FD07B05DF804FB25
S2140028149028FAD10D4B1B78012B0CD100230120F4
S214002824CDE9010303230A2200934FF6F8713C23F3
S2140028340FF0A6FFE9E70DF117000AF0D1FD002816
S214002844E3D19DF81730012BDFD1E7E76C1D00209C
S214002854F7B50024094E0A4F0A4D56F8243003B93A
S2140028643B6835F8142008490092012022460134BA
S2140028740CF0F6FF292CF0D103B0F0BD701D00203B
S214002884181E0020A4450020FB2A030008B5FFF705
S214002894DFFFBDE8084000F0F1B8000007B50020EF
S2140028A4FEF734FAC2B2282A0DD8084B53F8223061
S2140028B40BB9074B1B680749012031F81210009129
S2140028C405490CF0CDFF03B05DF804FB701D002035
S2140028D4181E0020A4450020FB2A0300FFF7B8BFFB
S2140028E47047000038B50020FEF710FA04460120B1
S2140028F4FEF70CFA0546054901200CF0B1FFA9B213
S214002904E0B2BDE8384000F0D1B800BF062B0300A3
S214002914F7B50024094E0A4F0A4D56F8243003B979
S2140029243B6835F8142008490092012022460134F9
S2140029340CF096FF292CF0D103B0F0BD701D0020DA
S214002944181E002052450020FB2A030073B502AB74
S21400295403E906000446019D1CF0A6FA0646204636
S2140029641CF0B0FA9DF800008EB1202C0FD82B78FE
S214002974012B37D84FF6FF75394903EB431323442D
S21400298431F81320AA4202D0013221F813204FF660
S214002994FF72344B344933F8146031F814509642BD
S2140029A41CBF721C23F8142004F0FD02092A31D13E
S2140029B49A8A898A02448A42B4BF9A82998233F8F0
S2140029C41430AB4204D3AE4202D22046FEF779F866
S2140029D40025264BEA5CA24228D00135112DF9D1F8
S2140029E402B070BD022BD2D14FF6FF714FF6FF75C1
S2140029F41B4B33F814208A421CBF013223F81420E0
S214002A0404F1210233F81210A9421CBF013123F845
S214002A141210BCE71D2CD2D15A8F1118A942BDBF83
S214002A2402F1FF3212185A875D87C8E718F04DFC8A
S214002A340F4B04461B78834203D8DD210D4800F073
S214002A44FDF94FF6FF710C4A04EB04142C4432F8DB
S214002A5414308B42C4D0013322F81430C0E700BFD0
S214002A64F6450020A445002052450020722E03009F
S214002A74111D0020EE2D03003045002052220021B7
S214002A840148FEF70FBD00BFA44500205222FF21D7
S214002A940148FEF707BD00BF5245002008B5FFF702
S214002AA4EDFFBDE80840FFF7F1BF0000014B23F837
S214002AB41010704752450020032310B50F4C4FF4F6
S214002AC48062C4E904330E4B0E49E3610023A1611E
S214002AD421660D49E01DC4E919120C49A36263621C
S214002AE4E3622367E366636722622EF0A7F9084968
S214002AF420462EF0A3F92023A37110BD7C460020A7
S214002B04092A0020832E0300092600208C2E0300A9
S214002B14902E03002DE9F84F1F4B16461A7881466F
S214002B248A4698460AB9FFF7C7FF182707FB09879E
S214002B343D6FD7F86CB05D452BD9BC6E796E641BBF
S214002B44B44228BF34462944504622462EF063F940
S214002B54BB6E2544AB4208BF0025A244361BABEB34
S214002B64050B5E4528BF5E4656B1182303FB098352
S214002B74596E3246294450462EF04DF934443544B5
S214002B8424B1182303FB0988C8F870502046BDE812
S214002B94F88F0024E3E700BF7C46002010B50B4600
S214002BA4EFF311844FF0200181F311881946FFF7E3
S214002BB4B1FF84F3118810BD2DE9F84F144D9B46E0
S214002BC42B788146884692460BB9FFF775FFEFF3DC
S214002BD4118C4FF0200181F31188002018236F69AF
S214002BE403FB0054666E2EB101308742F8DC4FF0CA
S214002BF4FF3009E08742FADDC4E91898C4F868A0F3
S214002C042667E666C4F874B08CF31188BDE8F88FBE
S214002C147C460020FFF750BF70B54FF060441A4B57
S214002C2400261A68194D42F001021A60DA680C2070
S214002C3442F08072DA60164BC4F8B03F0223C4F840
S214002C44006EC4F8806EC5F8F03003F057FB114BE5
S214002C5400F5D52000F2FC40B0FBF3F00E4A0F4B13
S214002C6401382861C4F8406E1A600D4BC4F8803EE3
S214002C744FF48073C5F80433D4F8003E43F48073ED
S214002C84C4F8003E70BD00BFF0ED00E0000004E0B4
S214002C9455CEACC5F8590D00FF030040001000E007
S214002CA40D00010010B501240E4B00201C6003F03B
S214002CB4B1FE234604220321002003F0F3FE20463F
S214002CC40FF0D0FFFFF7A8FF0FF0CDFFFFF7A2FF2E
S214002CD42346402204490548FFF76EFF044B18605C
S214002CE4C00F10BD44D40340092E0020972E0300C5
S214002CF41C1E0020024B1868003018BF01207047C5
S214002D04F0ED00E0D123054A037013784170090AF8
S214002D148170591CC370117004207047492E00201E
S214002D242DE9F74F354E074633681C5C032C63D9F0
S214002D34DFF8CC8017F0F6FE4FF6FF7A0025C14682
S214002D440534E4B20190D8F800204AB1AC4207D961
S214002D5417F0E8FE019BC01A80B2B0F5FA7F05D9D9
S214002D64601B18BF012003B0BDE8F08F002D3DD0D6
S214002D74012D1DD14FF0020B3268D55D4FF0604235
S214002D84D2F8801ECB0711D51146D9F80C0040F0B6
S214002D948070C9F80C00D1F8000E40F48070C1F8B9
S214002DA4000E086A0028F0D082F820505D46CAE774
S214002DB4E21E05F1010B95425FFA8BFB02D15FFA26
S214002DC48AF5DBE7A21E954202D1CAF30725D5E7AA
S214002DD4621E95420ED0A91EC9B238461CF0A2FF48
S214002DE451460546FEF772FA8246C7E75B254FF062
S214002DF4010BC3E75D25C1E70120B4E7C81C00202A
S214002E04F0ED00E010B50B4B90B040226946186810
S214002E14FFF7C4FE58B1C1B268461CF00DFF044665
S214002E24014612200FF050FB20461CF0A7FD10B000
S214002E3410BD00BF1C1E002042DE704738B5044695
S214002E440D4600F0AFFD03F040FD294620460FF086
S214002E5407FB2B4622460549222008F0E5FC2946B6
S214002E642046BDE83840FFF7E7BF00BFA72E0300A3
S214002E746D4B2DE9F0415A686C4CA2655A6AE265BE
S214002E846B4AD2F800122166D2F8042262669A6A65
S214002E94A266DA6AE2661A6B22675A6B6267A26BEC
S214002EA4DB6B12F0040FA367D4E90F5318BF1D465B
S214002EB417F01CFE002285420346606522655DD33A
S214002EC45C4A95425AD8AA696264E969A164B4F86E
S214002ED45810C1F30801062954D157498A4251D3E0
S214002EE456498A424ED211884DF64262914249D1E1
S214002EF440F201706268C4F89420A268C4F898206E
S214002F044F4A5049934238BF13460A468B423CD335
S214002F14D31AE3640023C4E91F33C4E92133C4E9A4
S214002F242333484E444FDFF814C1AE4233D8D4E9B5
S214002F341FC7D4E92165D4E923124FF0000E013BE4
S214002F44DBB2FF2B42D1BEF1000F05D0C4E91FC788
S214002F54C4E92165C4E92312B4F85830C3F308035E
S214002F64052B57D03CD8032B47D0042B58D040F61B
S214002F740722013B4B2B98BF104640E000221D461B
S214002F84C4E911224FF42060BAE71E68B6F1CD3FBB
S214002F94BED10433BAE756F8042DBA42C5D3624507
S214002FA4C3D2D107C1D5002104EB010EDEF87CE0C4
S214002FB49645BAD004311829F6D10BB9052301E099
S214002FC4013BDBB204EB8301CA67AEE7E0464FF091
S214002FD4010EBC4637462E460D4611464246AEE71F
S214002FE40C2B1AD03B2B0CD0062BC0D140F6042356
S214002FF4B0F5206F08BF184601E040F60120BDE892
S214003004F081114B9B6913F0020F40F2025318BF74
S2140030141846F4E740F60320F1E740F60520EEE70D
S21400302440F60220EBE700BF00ED00E000000020C1
S21400303400E100E0A01A00204C030000A00E0300EC
S2140030449C000020C01A00200080014A042804D0F6
S21400305403280CBF012002207047002070470000A0
S2140030644FF480732DE9F04385B0ADF80C3000249E
S21400307401F098FC0127DFF84480DFF8449003ABA6
S214003084E35C012218F8336008EBC3035D6830463E
S2140030940023294603F006FD4946E8B201F090FCF9
S2140030A4CDE9007701232A462946304603F0B4FCCE
S2140030B414B105B0BDE8F0830124E0E7BC2E03009C
S2140030C44931000008B5FFF7C1FF022816BF024BBE
S2140030D40020185C08BD00BF4A2E002008B5FFF784
S2140030E4B5FF02281CBF014B195408BD4A2E002008
S2140030F408B5FFF7ABFF022805D0034A135CB3FA02
S21400310483F35B09135408BD4A2E002008B5FFF765
S2140031149DFF02280FD03021084A12F8303002EB07
S214003124C0025943064B50685B5823FA00F0C0436C
S21400313400F0010008BD0020FCE700BFBC2E030021
S21400314414C0034070B504460026FFF7DFFF0546AB
S21400315401E000261D462046FFF7D8FFA842034696
S214003164F7D10136052EF2D12046FFF7ABFFA84271
S2140031740BD029462046FFF7B1FF2046FFF7A2FFF3
S2140031840146204609F08CFE70BD2046FFF7B0FFCE
S2140031942046FFF797FF0146204609F081FE2046A9
S2140031A4FFF7A6FFE9E7000010B503F0ADFD0446FF
S2140031B403F0A2FD0022012101FA02F3234014D0F9
S2140031C41B4B33F812301B4A062B13D040F2072150
S2140031D48B420DD1184919480C68844208D14CF228
S2140031E43C334B800B88138012E00132102AE3D163
S2140031F4104AF8E74FF20F010F4B5888884214D153
S2140032041988B1F5406F10D211804CF23C325A80C6
S214003214084B1A8840F201739A4201BF084B094AC8
S214003224D2E90001C3E9000110BD4FF4C061EBE729
S214003234CC2E0300542E00200000002007020FF0BE
S2140032444C2E002094000020014B1888000A70477A
S214003254542E0020014B1888704700BF542E0020BF
S2140032642DE9F04F4D4C0546A36BD4F850B05A07E1
S21400327447BF0027B846D4F84CB0D4F85480D4F8E6
S21400328440A05DBF464FD4F83CA0DFF83C91DFF881
S2140032943C9113F0080F434B434A18BF1A46B7EB4A
S2140032A408061FBF6421730801FB0B33B3FBF6F358
S2140032B487B01CBF9BB205933C494B46CDE9017AC7
S2140032C4CDF8008008BF059601F0BEF8B3B2CDE98C
S2140032D400931FFA8BF2059B3549284601F0B4F893
S2140032E4A36B5B070AD49C3E5E4507D1626D314BE7
S2140032F49A4203D23049284601F0A6F8BA4501D8C6
S214003304C24504D24A462D49284601F09DF828466F
S21400331408F084FA236E0BB9636EBBB328492846BB
S21400332401F07DF800260127DFF8A480DFF8A490DA
S214003334226E07FA06F3134207D058F826201378AD
S2140033441BB14946284601F06AF80136202EEFD113
S21400335400260127DFF87880DFF87890626E07FA97
S21400336406F3134209D008EB8603D3F880201378BB
S2140033741BB14946284601F052F801361D2EEDD100
S214003384284607B0BDE8F04F01F058B828460D4966
S21400339407B0BDE8F04F01F057B800BF00000020AA
S2140033A4C01A0020D331030074290300DA31030065
S2140033B4083203009C000020413203006D320300F3
S2140033C48B320300BA320300CE3103005D4C030097
S2140033D4D0320300885C03002DE9F8430446FFF767
S2140033E439FF40F60123984239D010D840F20253F0
S2140033F498421DD040F20173984224D040F2015303
S214003404984213D16549204601F01EF822E040F6A2
S214003414032398426CD03DD340F60423984200F030
S2140034249C8040F60523984200F0B580BDE8F883FA
S2140034345B49204601F008F85A4B5B495A6C204613
S21400344401F002F806E0574A5849D2E925232046F7
S21400345400F0FAFF2046BDE8F84308F0DFB9514D06
S2140034645349204600F0F0FF95F86C309F0703D5CB
S2140034745049204600F0E8FF95F86F305E0603D505
S2140034844D49204600F0E0FF95F96F30002BE1DA55
S2140034944A49B8E7434D4A49204600F0D5FF95F817
S2140034A46830980704D06A6C3F49204600F0CCFF89
S2140034B495F96830002B04DA6A6F4249204600F01A
S2140034C4C3FF00260127DFF80881DFF81491AA6EEF
S2140034D407FA06F3134207D058F8262013781BB1D0
S2140034E44946204600F0B0FF0136082EEFD1B1E77A
S2140034F42C4D3549204600F0A7FF2B496A6C204620
S21400350400F0A2FF95F86930590703D52F492046E5
S21400351400F09AFF95F96930002B04DA6A6F29499E
S214003524204600F091FF0826294FDFF8B480AB6EE2
S214003534F340DA0707D557F8262013781BB141461F
S214003544204600F081FF0136102EF0D195F8683041
S214003554002B7FF47FAF1F4955E7124D1E492046C6
S21400356400F072FF6A6C1049204600F06DFF1026CA
S214003574174FDFF86C80AB6EF340DB0707D557F8C0
S214003584262013781BB14146204600F05DFF013625
S2140035941A2EF0D15EE711494BE700BF5D2F0300FA
S2140035A49A2F030000000020CA2F0300E32F030015
S2140035B4FD2F0300153003004F3003008230030054
S2140035C4BE300300E3300300073103001E3103005E
S2140035D4EC2E03006431030094310300AD31030084
S2140035E4FF3003002DE9F84F06460025154C164F0C
S2140035F4DFF85C80DFF85CA023785FFA85FB0BB904
S214003604BDE8F88F57F8043B22461049304600F0D0
S21400361406FF227804F1010982B9627882B10BF0C0
S214003624030103290CBF41465146304600F0F7FE1D
S214003634304608F0F3F801354C46DDE74C46E8E73B
S2140036444146F2E7C433030004000020542F03006D
S214003654360F03007B4F030000F00CB800F00AB8E6
S21400366400F008B800F006B800F004B800F002B89D
S21400367400F000B872B61EF0080F09D01EF0040F52
S2140036840DD0DFF850E0AEE8FF1F6FF002000CE04C
S214003694DFF840E0AEE8FF1F6FF00E0005E0DFF84D
S2140036A434E0AEE8FF1F6FF006006946EFF30982C8
S2140036B48EE8070086460848084C854501D3A5458C
S2140036C401D384F30888FFF7D3FB84F3088817F044
S2140036D4E9F9000004000020A0110020C01A002010
S2140036E4FFF7C6BF704770477047704700F07E63A9
S2140036F4B3F17E6F70B505460E46144616D105F036
S214003704E7F918B19A210D48FFF798FB224631468F
S214003714C5F30B0003F0B4FB044605F0E5F95CB111
S2140037249D21BDE870400548FFF788BB520817F096
S21400373457F908B18F21F4E770BD00BFE83A0300DB
S21400374437B57F2A14BF154600254BF234629142E2
S214003754044619D17F2241F2020168460823FFF786
S214003764EFFF082225496846FDF7A3FE30B9082373
S2140037747F2241F2F0116846FFF7E2FF082269460D
S2140037842046FDF733FE09E041F2F01291421AD1C9
S2140037941B4901388A6CC96C1D1F0BB903B030BDB8
S2140037A4013B9D4200F8012F4FEA1222F5D1002278
S2140037B403349A42F2D00132042A04F8011F4FEA75
S2140037C41121F6D1EAE701F47042B2F5805F07D121
S2140037D4C1F30B0404F17E649AB203FB0541D0E7FF
S2140037E401F46042B2F5005FD8D1C1F30B04054979
S2140037F49AB2214403FB0511C3E700BF623B0300F2
S2140038040080E00F00E0070070B5054616461C462B
S214003814DBB14BF23463994210D1082C28BF08243C
S2140038247F2241F202012346FFF78AFFA2B207492C
S2140038342846FDF73EFE40B941F2F01123463246D3
S2140038442846BDE87040FFF77BBF70BD623B0300AF
S2140038542DE9F7430446E0070F46154603D5DD2158
S2140038643448FFF7EBFAE90703D5DE213148FFF7C2
S214003874E5FA04F47043B3F5805F3ED1C4F30B0459
S21400388404F17E646B1E2C4A23449342264603D9D5
S214003894E3212848FFF7D2FADFF8989006EB0508EC
S2140038A446453DD1A2070ED04FF6FF7337F8022BDC
S2140038B402A943EA0243A01E41F8043D0422FFF78E
S2140038C415FF0234023DAB070ED0023D25F001037E
S2140038D4FB5A02A96FEA03436FEA1343042241F832
S2140038E4043D6019FFF702FF25B12A4639462046F3
S2140038F4FFF7FCFE03B0BDE8F08304F46043B3F5C1
S214003904005F05D10D4BC4F30B041C442646C3E7E5
S214003914EA210848FFF792FA6FF00F060024BBE787
S21400392416F8013BFF2BBBD0F4214846FFF786FA76
S214003934B6E700BFE83A0300FF1FE00F00E0070009
S214003944FFF78ABE1FB5144A01AB10685168128986
S21400395403C31A8001238DF804300D238DF80A3032
S21400396403230E4C082123208DF80B3002F004FEAE
S21400397401A9204603F0BBFC4FF40061022342F287
S2140039841800074AC2F884112350516041F21C0201
S214003994A35004B010BD00BF6A3B03000080014A78
S2140039A400E100E0014803F091BC00BF0080014A3A
S2140039B4A52803D10021024803F079BC704700BF54
S2140039C40080014A024B586800F00100704700BFAF
S2140039D40080014A024A536A002BFCD1704700BF9C
S2140039E40080014A0020704700207047704700009E
S2140039F407B572B602F069FF894B8A495B694022B3
S214003A048B6000230B764B768B76F023CB760B7786
S214003A144B778B77CA77802281F8202081F8213073
S214003A24E023602081F822307F4B81F8232083F83E
S214003A34002383F8012383F8022383F8032383F8FF
S214003A44042383F8052383F8062383F8072383F8DF
S214003A54082383F8092383F80A2383F80B2383F8BF
S214003A640C2383F80D2383F80E2383F80F2383F89F
S214003A74102383F8112383F8122383F8132383F87F
S214003A84142383F8152383F8162383F8172383F85F
S214003A94182383F8192383F81A2383F81B2383F83F
S214003AA41C2383F81D2383F81E2383F81F2383F81F
S214003AB4202383F82103202083F8222383F823235A
S214003AC483F8242383F8252383F8262383F82723DF
S214003AD483F8282383F8292383F82A2383F82B03DF
S214003AE483F82C0383F82D2383F82E2383F82F23BF
S214003AF483F8302383F8312383F8322383F833237F
S214003B0483F8342383F8352383F8362383F837235E
S214003B1483F8382383F8392383F83A2383F83B233E
S214003B2483F83C23CB6823F4E0631B041B0C43F0AC
S214003B34BF6343F40133CB604B6943F010034B611E
S214003B444FF4E0234B6203F0FBFFFFF72DFBEFF38C
S214003B5408834FF0CD31354A043B93425DD2344A54
S214003B64002192B23348FDF79DFC62B6684603F026
S214003B74AFF9314B9B6DDB0318D4304A136823F43A
S214003B84FF0323F4FE4343F4BC1343F4A06313601F
S214003B9452F8043C23F4704343F4404342F8043C94
S214003BA452F8043C43F4E06342F8043C9DF80130C8
S214003BB4012B0FD19DF8003063B94FF000531B68FA
S214003BC41F4B1B681F4B1B681F4B1B681F4B1B6838
S214003BD41F4B1B681F4AD2F8803043F00303C2F819
S214003BE4803002224FF040231A6703F0EFFE01F004
S214003BF4E3FA002300938DF80430012368468DF819
S214003C04033002F0FEFE00F027F916F09DFF12487E
S214003C140FF032F803B05DF804FB1960043B9CE730
S214003C245400000000ED00E000E100E06011002018
S214003C348C100000A000002000C0004034C00040EB
S214003C44004000200080002000C00020000001206A
S214003C540040012000800040B464030040F201608C
S214003C6416F020BFFEF710BD08B500210B20FEF7A6
S214003C7409FDBDE80840FEF708BD032000F078BA49
S214003C8408B5FFF7E1FA044B0B289ABF00B203EB22
S214003C948000184608BD00BFBA3C030008B5FFF70D
S214003CA4D9FA044BC0F30F2253F82230C0B203EB08
S214003CB4800008BD843C030010B5FFF7C5FA04462F
S214003CC4FFF7C8FAC0B228B9012C24D164F07F04E7
S214003CD4E4B216E0072CF9D801A353F824F000BF89
S214003CE4073D0000D13C0000053D00000B3D0000F0
S214003CF40B3D00000F3D0000133D0000173D000083
S214003D040924204610BD0224FBE70324F9E70B240C
S214003D14F7E70624F5E70446F3E700BF07282DE98E
S214003D24F84F04460F462DD0082808BF0224214623
S214003D340120FCF70CFFFFF745FE651ED5F10008D1
S214003D4448EB050800B3012C1ED1A520FFF730FE72
S214003D542646EFF31089012383F31088EFF3118AC4
S214003D644FF0000B8BF31188354D404608F01EF8D3
S214003D74631EC5F800B0042B59D8DFE803F00E4DD7
S214003D844D5155000324D2E7FFF71CFE18B1FFF788
S214003D9421FE0026DDE70646DBE72A4A136923F000
S214003DA40403136130BF284AD2F82434D2F82024FE
S214003DB413409BB2254A2B60D2F80011480102D565
S214003DC41168490106D4D2F80011880105D5126895
S214003DD4910102D543F480332B601C4BD3F80021A9
S214003DE4520506D51B685B0542BF2B6843F40033B7
S214003DF42B601EB10121164803F059FA404608F01C
S214003E040BF8CFB18AF3118889F310882146BDE8F0
S214003E14F84F0020FCF79BBE012002F0C5FDC2E768
S214003E24012002F0D5FDBEE702F0D4FDBBE78821F1
S214003E340848FFF703F8B6E787F31088E6E700BFFD
S214003E44602E002000ED00E000C0034000E100E02A
S214003E540080014AEA3C030042F22041044AD2F8B8
S214003E6420341B0C1B045350024A1360704700BFD7
S214003E7400C003405C2E00200021FFF74FBFFFF771
S214003E84FBBF00002DE9F04F89B00EF0E9FE0746AF
S214003E94002840F0DD806F4E6F4D3168286815F0BD
S214003EA4EBFF0446002827D033683C46D3E90001DC
S214003EB49A6912689047336804A89B699B68984778
S214003EC4336802209B69DB68984732680598536814
S214003ED4E7B2B3FBF0F3BB42916904F1010442D8A4
S214003EE4CB680020984733689B695B6898473168BD
S214003EF4286815F0C1FF04460026DFF88891002CD8
S214003F0453D1564B4FEA8608F35C002B31D1A246B8
S214003F14534BF35C0193534B03EB080B019B5FFA83
S214003F248AF7BB42286853D84F4BF35C002B3CD02F
S214003F344C4B019F9844FBB27E2B286835D8D8F8A2
S214003F44003003AA07EB030A514602AB16F0CEF97B
S214003F5448452AD05146286816F00EFA013704461A
S214003F640028E8D021E012680B6907FB0020984778
S214003F74ABE73C4B03AA53F82670286802AB3946D5
S214003F8416F0B4F9484507D078B9039B012B0CD03A
S214003F943946286816F0F0F9344B394653F8083099
S214003FA428681A6816F0CCF804460136292EA6D1DD
S214003FB4B4FA84F32E4A5B0913702E4B9C4241D00C
S214003FC42DD8002C32D0013B9C423FD0C5242DE096
S214003FD4DBF8003003AA1F44394602AB16F086F914
S214003FE448450AD010B10AF1010A97E7039B8BB93A
S214003FF4214B029AF35C9A42F5D01F4B1B4A9B5DF9
S21400400452F808203946286816F00CF80028EAD03A
S214004014044689E73946286816F0AEF9EDE7174BEB
S2140040249C4211D004339C42D0D1C1242B681B7C03
S21400403423B14FF489711248FEF700FF204609B0F9
S214004044BDE8F08FC324F1E7C424EFE7C224EDE70C
S214004054C624F3E7881E0020841E00207C15030077
S214004064AE140300D0150300A5150300D8140300EE
S214004074642E002002E000F07416030004E000F052
S214004084663D03000BE000F0282970B506460C4692
S21400409415461AD8144A127822B3144A1068144AD9
S2140040A452F82110134A125D3AB1324616F096F8C9
S2140040B4C0B1BDE87040FDF718B97F2D08BF0025D4
S2140040C43246294415F0F8FFF2E7FF2903D9BDE884
S2140040D47040FFF799BB40F24511BDE870400648B2
S2140040E4FEF7ACBE70BD00BF642E0020841E002008
S2140040F4D01503007C150300663D03002828F8B598
S21400410404460D46164619D81449097829B31449A5
S214004114144F0868144951F824103C5D3CB11268E9
S21400412416F00EF8C8B1BDE8F840FDF7DEB87F2DEE
S21400413408BF0025294415F075FFF3E7FF2805D9C5
S2140041441A463146BDE8F840FFF782BB4FF4BC710F
S214004154BDE8F8400548FEF771BEF8BD642E0020A1
S214004164841E00207C150300D0150300663D030062
S21400417408B5084B1B7863B1074B002253F8201090
S214004184064B186816F06AF818B1BDE80840FDF743
S214004194ACB808BD642E0020D0150300841E002091
S2140041A470B5164685180AB9304470BD01F00F0381
S2140041B40A2B34BF30243724013A2344090905F86E
S2140041C4013DD2B2EFE70000F0B5F9B100281CDAE1
S2140041D42D23B0F1004F137000D04042012115E0AA
S2140041E4801B8642ECB205F10105F9D904B927B162
S2140041F401274D1C30345454E9B20133092B09D13C
S214004204303050540131C8B2F0BD002100231F469F
S214004214DFF808C05CF823600025E2E7DC3D030015
S2140042242DE9F04F4FF0000B95B002AC81468A465C
S21400423417461D465E46A0463B7863B902ABE41AB1
S214004244E4B2224619465046C847002840F09380F8
S2140042543444E0B290E0252B13D0BBF1000F14D108
S2140042642370013412AB9C426DD3A4EB0804E4B271
S214004274224641465046C84700287CD12644F6B21A
S21400428460E0BBF1000F00D101373B78632B00F0F0
S21400429492801BD8392B09D8302B80F09E80002BB7
S2140042A4CCD0252B51D04FF0000BDBE7582B00F079
S2140042B48B80622BF7D14FF0000B2B6801936B6851
S2140042C40093009B9B4543D10835ECE7702B1ED02A
S2140042D417D8642B01D06C2BE5D16C2B05F1040B9D
S2140042E428686CD17B78752B14BF0121002101D07E
S2140042F4642B00D101372246FFF766FF04445D466F
S214004304D1E7752BE9D0782B5ED0732BCBD1A4EBF9
S2140043140804E4B2224602A9504605F1040B2D68AF
S214004324C84740BB2644F6B2C4B22B5D0130002B0E
S214004334FAD1224629465046C847E0B95D46834628
S2140043442644F6B24446013776E723700134AAE7DA
S214004354019B204613F80B100222FFF721FF12AB35
S214004364984204460ED3A0EB0804E4B22246414623
S2140043745046C84718B1002015B0BDE8F08F264453
S2140043844446F6B2009B013B5B4582BF2023237064
S214004394013412AB9C420BD3A4EB0804E4B22246CD
S2140043A441465046C8470028E5D126444446F6B25E
S2140043B40BF1010B85E72B6804352370C6E7752BD4
S2140043C40CBF0021012196E7204602222978FFF738
S2140043D4E7FE05F1040B044691E77A7802F0DF0263
S2140043E4582A19D1322B07F1010B09D10422204691
S2140043F429882F1DFFF7D4FE3D4604465F4652E744
S214004404342B09D12F1D2D680422290C2046FFF7D2
S214004414C7FE0422A9B2EDE74FF0010B22E70EB463
S21400442403B503AA52F8041B019207F0ABFDC0B211
S21400443402B05DF804EB03B0704700000149FFF7D3
S214004444EEBF00BF360F03000EB433B505AA52F80C
S214004454041B0546019207F095FD04462846FFF71F
S214004464EDFFE0B202B0BDE8304003B0704708B5D7
S21400447407F088FDC0B208BD2DE9F04F9B46584BA7
S21400448485B01B78064689461546109F9DF844A0BD
S214004494DDF85080002B00F09280072A00F291800D
S2140044A40E9B002B00F08D800F9B002B00F0898064
S2140044B4129BB3F5006F00F38480012801D1002F0E
S2140044C47FD0484B03EB05131B7B002B7BD0464C5D
S2140044D41022002168462CF0A9FC04EB4514102297
S2140044E4B9F1000F5CD1494620462CF09FFCA37816
S2140044F443F01003A370E37843F03003E370BAF19B
S214004504000F03D1DBB243F00303E37036496A01BC
S214004514129B885A013B63F30E100E9B01EB020CB0
S2140045248852CCF808300F9B9DF84C10CCF8043019
S2140045349CF80330012E61F38303CDF800B08CF8A9
S214004544033042D113230CF1100ECCF80C309CE847
S2140045540F008EE80F006FF00301DCF81C20B9F1A1
S214004564010F61F39F02CCF81C20CCF8147004D120
S2140045740F9BCCF80470CCF81830002719492A0190
S2140045848B1841F80280159A28465A609F605E731D
S2140045942246694602F016FB384605B0BDE8F08FA1
S2140045A4002120462CF042FC1023A3700323E37062
S2140045B4BAF1000FAAD1DBB243F03003A5E70B48EB
S2140045C4EBE70B48E9E70B48E7E7B8F1000FD4D16F
S2140045D49CF8023068F304138CF80230CDE700BF71
S2140045E4E82F0020682E0020E82E0020028000F02D
S2140045F4018000F0078000F038B5104B05461B78A4
S214004604BBB1C0B102F069F900230D4901EB0312F6
S214004614147B3CB92B6001231460137302F063F916
S214004624204638BD0133082BF0D102F05CF905486A
S214004634F7E70548F5E70548F3E700BFE82F00204D
S214004644682E0020048000F0028000F0018000F054
S21400465438B502F042F9002305460A4AD1180C7B05
S2140046645CB91033802BF9D102F05EFA064B28466B
S2140046741C7002F038F9204638BD284602F033F99B
S2140046840248F9E7682E0020E82F0020058000F095
S2140046940D4B10B51B78044693B1072812D802F0C8
S2140046A41CF90A4B03EB04131A7B2AB100241C736F
S2140046B402F019F9204610BD02F015F90448FAE78D
S2140046C40448F8E70448F6E7E82F0020682E0020A0
S2140046D4068000F0028000F0018000F0164B13B54F
S2140046E41868002301908DF8043002F0F6F8134B96
S2140046F41C7824B102F0F7F8114802B010BD01226C
S2140047041A7002F0F0F80F4B1C731C7783F82C40D9
S21400471483F83C4083F84C4083F85C4083F86C4054
S21400472483F87C4004230DEB03008DF8073002F079
S2140047341FFA2046E1E700BF003E0300E82F0020F2
S214004744038000F0682E002010B588B00E9C0092FE
S21400475407940D9C024606949DF8304005940B9CE5
S21400476404949DF8284003940024CDE9013420469F
S2140047740B462146FFF780FE08B010BD10B588B082
S2140047840E9C009207940D9C024606949DF83040B9
S21400479405940B9C04949DF8284003940024CDE9CA
S2140047A4013420460B460121FFF766FE08B010BD13
S2140047B408B50A4B1B785BB107280BD8084B03EBEC
S2140047C400131B7B43B1002102F0C2F9002008BD90
S2140047D40448FCE70448FAE70448F8E7E82F002012
S2140047E4682E0020028000F0018000F0078000F0B0
S2140047F408B50A4B1B785BB107280BD8084B03EBAC
S21400480400131B7B43B1012102F0A2F9002008BD6E
S2140048140448FCE70448FAE70448F8E7E82F0020D1
S214004824682E0020028000F0018000F0078000F06F
S21400483408B50A4B1B7853B107280AD8084B03EB74
S21400484400131B7B3BB102F00DFA002008BD05489F
S214004854FCE70548FAE70548F8E700BFE82F00201C
S214004864682E0020028000F0018000F0078000F02F
S2140048740D4B1B7893B1072812D889B10B4B03EB69
S21400488400131B7B73B10A4BDA6A012303FA00F0A8
S21400489410401ABF00200B70087070470548704718
S2140048A40548704705487047E82F0020682E00200A
S2140048B400000440028000F0018000F0078000F051
S2140048C40B4B10B51B780C4663B107280CD859B1AE
S2140048D4084B03EB00131B7B43B102F0D5F92060B1
S2140048E4002010BD0448FCE70448FAE70448F8E74B
S2140048F4E82F0020682E0020028000F0018000F0DF
S214004904078000F02DE9F843174B1F6D5B6D1F40C1
S21400491400D5FEE701260025144CDFF85480DFF8A6
S2140049245490374217D02368C8F800609BB1A1683A
S21400493462680131A16028469847637B012B0AD13F
S21400494448B909EB4513197B1A7F60F3410160F3FC
S214004954410219731A770135082D4FEA460604F109
S2140049641004DED1BDE8F88300000440682E002061
S21400497450200440E82E002070B504460125084E59
S21400498404B970BD94FAA4F0B0FA80F005FA00F306
S21400499424EA030456F82030002BF1D09847EFE7BA
S2140049A4EC2F00204FF00072044BC3F880211A60ED
S2140049B44FF08062C3F880211A60704700E100E07F
S2140049C438B504460D4601F088FF034B43F82450DF
S2140049D4BDE8384001F087BFEC2F0020084BD3F821
S2140049E42404D3F82024104042F2204220F42A5013
S2140049F420F02A004004400C9850FFF7BDBF00BFCB
S214004A0400C00340084BD3F82404D3F820241040F5
S214004A1442F2204220F4AA4020F055000004000C84
S214004A249850FFF7A9BF00BF00C00340104A30B536
S214004A34136841611546ABB91060836011E0091B29
S214004A449C6841611A467CB123465C698C42F6D95F
S214004A54002CF4D052B19060836013B15A69511A95
S214004A64596130BD0022F0E72346F4E72860F3E7F7
S214004A744030002010B500F0AFFA094B094A196817
S214004A8431B11368C41A4B69A34203D31B1B4B6191
S214004A94106003E0C01A002310604B6110BD00BF15
S214004AA44030002030300020074B10B51B68022031
S214004AB45C69064B1B681C4400F0C2FA2046BDE83D
S214004AC4104000F091BA00BF403000203030002083
S214004AD470B59DF81450164605710025049A856035
S214004AE4BDF818500446C5800260C0E903360D467A
S214004AF429B961610BB11146984796B1354601F064
S214004B04ECFE0646FFF7B6FF29462046FFF78EFF63
S214004B14054B1B68A34201D1FFF7C6FF304601F0E0
S214004B24E2FE002070BD00BF4030002000210C4A89
S214004B3413687BB183420AD1836879B18B6083683A
S214004B441BB15A6941690A445A61002070471946E4
S214004B549B68EEE70028EFD0022070471360EEE76C
S214004B644030002070B501F0B8FE114D06462C7892
S214004B74CCB9104B1C60104B1C60104B1C8000F012
S214004B84F1F9012000F05CFA00F0A8FA0C4B02469A
S214004B94186040F2E73123460A482BF06BFF0A4BB5
S214004BA4186001232B70304601F09DFE002070BD76
S214004BB42C300020403000203030002038300020D8
S214004BC43C30002018FCFFFF343000202DE9F04173
S214004BD40546F8B101F081FE0F4F0646FFF74AFF7F
S214004BE42846D7F80080FFF7A1FF044628B13046D0
S214004BF401F079FE2046BDE8F081A8453B6803D164
S214004C0423B1FFF751FFF2E7002BF0D1022000F0AA
S214004C1423FAECE72224EDE740300020F0B50D46F9
S214004C2485B016461F46044680B1FFF7CFFFBDF891
S214004C342C30002202939DF828302946CDE90073D3
S214004C4420463346FFF744FF05B0F0BD2220FBE7BD
S214004C5438B50C46054698B191B100230B7001F0A7
S214004C643CFE0121074B1B680BB122781AB101F0F8
S214004C743AFE002038BD9D420CBF21709B68F3E7C6
S214004C842220F7E740300020F0B51F46002387B007
S214004C940D4616468DF817300446A0B10DF11701DF
S214004CA4FFF7D6FF9DF817207AB9BDF834302946A9
S214004CB402939DF830302046CDE900733346FFF763
S214004CC407FF07B0F0BD2220FBE70320F9E700004A
S214004CD4F8B50C460646C8B1C1B101F0FEFD05465E
S214004CE4FFF7C8FE73692360134B1B68B3420FD0EB
S214004CF423B9284601F0F7FD03201CE05969226811
S214004D049B680A442260F1E700230FE0222012E0A9
S214004D14276800F061F9094E3368C01A8742F3D950
S214004D2400F05AF93368C01A23681B1A2846236011
S214004D3401F0D9FD0020F8BD4030002030300020BE
S214004D4470B501F0CAFD064600F046F9094B054663
S214004D541C880120A4B200F097F918B100F03CF9C1
S214004D6405460134304601F0BEFD0022214642EAE3
S214004D74050070BD383000200A4B10B51B680C4681
S214004D8483420CD3084B4FF47A7219680023A0FBB5
S214004D9401012BF06FFE01302060002010BD2120A1
S214004DA4FCE700BF343000203C300020104B10B528
S214004DB41A684FF47A73A0FB0301A2B1531E134280
S214004DC411D1B2FA82F2C2F11F02C2F12004A2F19A
S214004DD4200301FA04F420FA02F2224321FA03F330
S214004DE442EA030010BD00232BF044FEFAE700BF9E
S214004DF43C300020F8B516461BA3D3E900238B42AB
S214004E0408BF82422AD3174B1A684FF47A73A0FB62
S214004E14034503FB0155C2B1531E13EA020014D125
S214004E24B2FA82F2C2F11F02C2F12007A2F12001F7
S214004E3424FA02F305FA07F73B4325FA01F10B437C
S214004E4425FA02F2C6E90032F8BD002320462946B8
S214004E542BF010FEC6E900010020F5E72120F3E759
S214004E64AFF300803C300020EFA7C64B37894100E3
S214004E74C2072DE9F84F04460BD5374A1388013389
S214004E849BB21380FFF7F6FD344B1B680BB1FFF79C
S214004E940BFEA3075DD500F09FF8314E0746356834
S214004EA44FF0000A451B01F018FD8046DFF8AC9071
S214004EB4D9F80040002C48D06369AB4209D95D1B81
S214004EC465613760FFF7F0FD4046BDE8F84F01F036
S214004ED40ABD23462A4637605969914209D818798B
S214004EE494F804C0521A844588BF1C469B68002B5D
S214004EF4F2D1404601F0F7FCD4F81480C4F814A0AC
S214004F0401F0EBFC83462046FFF710FE584601F0FE
S214004F14EAFC23694BB101F0E0FC83462169204694
S214004F24FFF784FD584601F0DEFCE36813B1216800
S214004F342046984700F050F84744ED1B04460544C5
S214004F4401F0CBFC27468046B2E7022000F084F846
S214004F54BAE7BDE8F88F00BF3830002040300020A4
S214004F64303000201FB50024184B18689A88029029
S214004F7453F8060FADF80C201B79009002A88DF8A4
S214004F8404308DF808408DF80C4001F007FF6946A0
S214004F9401208DF8004001F0C5FE4FF090431F211C
S214004FA49A6922F01F029A61094A11609A6A12F0FD
S214004FB40802FBD11A62012001F0CEFE4FF4806293
S214004FC4044BC3F880211A6004B010BD043E0300ED
S214004FD41420004800E100E04FF090439A6A12075C
S214004FE4FCD4186A704700004FF09042936A190781
S214004FF4FCD4136A116C5269120704D4CA1A022A22
S21400500401D899420ED1C21A012A98BF981CB0F151
S214005014FF3F28BF01304FF0904318649A6942F06E
S21400502408029A61054A13783BB14FF09041CB6B66
S21400503443F00203CB63002313707047241E002042
S21400504482074FF0904200F00103916948BF43F095
S21400505408030B4393617047830700F001020AD5E7
S2140050640121084B42F0080219704FF09041CB6BB7
S21400507423F00303CB634FF090418B6923EA0203CA
S2140050848B617047241E00204FF0904301285B6913
S21400509404D0022805D1C3F3C000704703F0010012
S2140050A4704700207047000010B501F016FC4FF062
S2140050B4904304465B691A07074A03F0010003F0AD
S2140050C40D0348BF40F002001360FFF7D1FE2046F0
S2140050D4BDE8104001F007BC142000481B2001F076
S2140050E40DB90000002211462D48F0B503682D4D79
S2140050F454592CB11E68AC18002E3DD1234601210C
S2140051040832282AF4D101B1036000221446264945
S214005114264E0B6895592DB11F68B518002F32D14D
S2140051242B4601240832282AF4D104B10B60006807
S2140051340368002B2FD04FF04022936F007923F0A2
S214005144FF7323F4803343EA00439367184B4FF00E
S214005154004209681A600B68FBB14FF04022936F57
S214005164097923F4FF7323F001030B439367104B71
S2140051744FF080421A60F0BD1E792779B74284BF8B
S21400518423460121BCE71F7995F804C0BC453CBF03
S2140051942B460124C6E7074BD9E7064BE8E700BFD2
S2140051A448300020583000204C300020803000204A
S2140051B4685000406860004010B5012228240F4B58
S2140051C400211A700E4822462BF030FE224600219B
S2140051D40C482BF02BFE0C4B0C4A13600C4A136045
S2140051E44FF040430B4A1360536020220A4BC3F827
S2140051F480211A60FFF776FF002010BD443000209F
S21400520458300020803000205030002048300020E5
S2140052144C3000206460004000E100E04FF0402283
S214005224D2F88800D2F88830C0F38800C3F3880325
S2140052349842F5D16FF48873184440B27047000062
S2140052444FF04022936E526E10B5134013F0804216
S21400525411D0114B1B681C682CB1002119605960D1
S214005264FFF7DCFFA0474FF080420C4B1A60BDE806
S2140052741040FFF737BF002BF9DA094B1B681C6890
S2140052842CB11A605A60FFF7C9FF0121A047034BEF
S2140052944FF00042EAE700BF4C3000206460004054
S2140052A448300020FFF7CCBF012203685A619A6990
S2140052B4D207FCD541F2AC52042103795B0103F119
S2140052C4804303F5703399507047000038B141B1FC
S2140052D4013AB2F5006F044838BF0020704703480F
S2140052E470470148704700BF037000F0027000F07A
S2140052F438B504460D4601F0F0FAA28892B222B9F7
S2140053042A6001F0F0FA064838BD1422638802FBCE
S214005314034308332B6001F0E6FA0020F4E700BFED
S2140053240B7000F038B504460D4601F0D6FAA38893
S2140053349BB223B92B6001F0D6FA0C4838BD142270
S2140053446388E18802FB034308332B6063885A1C96
S21400535492FBF1F301FB13239BB26380A388013B0A
S2140053649BB2A38001F0BFFA0020E7E70B7000F0C1
S21400537490F83130022B0BD13022437F90F8210075
S2140053845A43044B9B5823FA00F000F00100704780
S2140053940020704714C00340002313B51C4A52F87B
S2140053A4234094F8211081420ED00133042BF6D109
S2140053B402B010BD0028FBD19DF80730002BF7D0B3
S2140053C4A068FFF7F5F9F3E794F83130022BEFD134
S2140053D42046FFF7CDFF637E2076022BE8D194F8B3
S2140053E42E3003F0FF02002BE2D102A901F8012DB2
S2140053F4A068FFF73DFA237E1BB194F82F30002BEC
S214005404D8D00023A06884F82F30FFF7F1F9CFE74F
S214005414A8300020012230B590F8324087B080F8DA
S2140054242C207CB9094D0368CDE9024504904C68EC
S2140054342433CDE900240A684169C068FFF79EF961
S21400544407B030BD002380F82C30F9E7055D000076
S214005454012330B590F8324087B080F82D307CB9FF
S214005464094D0268CDE9024504904C683C32CDE90A
S21400547400340B6801698068FFF766F907B030BD31
S214005484002380F82D30F9E791540000F7B5906AB0
S21400549401A91446FFF72CFF144B984220D0002590
S2140054A4019B1D619D6001F018FA019A0746D668B3
S2140054B426B1D2E9002329462046B04701A9A06AAE
S2140054C4FFF730FFA06A83889BB263B101A9FFF798
S2140054D40FFF01992046FFF7BBFF384601F003FA99
S2140054E4012003B0F0BD84F82D30F6E70B7000F011
S2140054F4F8B5044617460D4601F0EFF9A388E2888E
S21400550406469A4205D800233B6001F0ECF916489B
S214005514F8BD1422238805F1100C02FB034308335C
S2140055242A4603CA624518605960154603F1080303
S214005534F6D11068142218602388E18802FB03431E
S21400554408333B60238830465A1C92FBF1F301FB78
S21400555413239BB22380A38801339BB2A38001F05C
S214005564C2F90020D4E700BF0A7000F02DE9F34129
S2140055740D460446002800F0868001F0AEF9012DA1
S214005584064637D1A36A9B889BB2002B39D0A06805
S214005594FFF74EF90023A06A84F82D3083889BB267
S2140055A4002B34D1226893699B04FCD5023D012D5F
S2140055B41BD8E068FFF73CF90023606A84F82C30B7
S2140055C483889BB2002B41D194F83130032B0CD046
S2140055D442F2AC52042123795B0103F1804303F5C4
S2140055E470339950022223685A61304601F07BF9E1
S2140055F4002009E0022D48D1636A9B889BB2002BE9
S214005604D4D101F070F9264802B0BDE8F08101A9B2
S214005614FFF76EFE0199A0680831FFF751F9214F94
S214005624019B1F61A06A83889BB2002BBAD001A994
S214005634FFF778FE019BD3F80C80B8F1000FF1D089
S2140056449B68002239462046C047EBE76946FFF7C9
S2140056544FFE0099E0680831FFF732F9114F009BBE
S2140056641F61606A83889BB2002BADD06946FFF742
S21400567459FE009BDD68002DF3D09B680022394656
S2140056842046A847EDE70848BEE7032D8ED1A36A57
S2140056949B889BB2002B7FF47AAF636A73E700BFE4
S2140056A4087000F0097000F0027000F00368986952
S2140056B47047436A9888C0B270472DE9F34198460C
S2140056C400230546406A0E4684881746A4B2CDE9F0
S2140056D400333CB16946FFF70BFE01A90446E868AF
S2140056E4FFF7EEF8009969B164B94868019BC01ADF
S2140056F43860C8F800300B6833602B68986902B0CD
S214005704BDE8F0810021C8F8001039603160F4E784
S214005714836A9888C0B270472DE9F34198460023FF
S2140057240546806A0E4684881746A4B2CDE900333F
S2140057343CB16946FFF7DCFD01A90446A868FFF7FB
S214005744BFF8009969B164B94868019BC01A38600B
S214005754C8F800300B6833602B68986902B0BDE85F
S214005764F0810021C8F8001039603160F4E7007E4B
S21400577470472DE9F04104460F469046FFF7A6FD14
S2140057840546002839D1152001F0CCF80646A26A51
S21400579493889BB213B194F82E308BB323689E691A
S2140057A416F002060ED104225A619A699207FCD5B5
S2140057B441F2AC52102123795B0103F1804303F5D7
S2140057C470339950012384F8303094F8323033B96A
S2140057D4B8444745206818D183699B06FCD566B94A
S2140057E442F2AC52102123795B0103F1804303F5A6
S2140057F470339950082223685A612846BDE8F08120
S214005804002EC5D0FFF77EF8C1E717F8011B01F09C
S21400581449FDDEE710B5044680B190F82E302BB96A
S214005824FFF7A6FD10B9A068FEF7C2FF002094F8A3
S2140058342E300133DBB284F82E3010BD0048FCE76E
S214005844027000F010B50446A0B190F82E309BB15B
S21400585490F82E30012B05D1FFF78AFD10B9A06809
S214005864FEF7C6FF002094F82E30013BDBB284F826
S2140058742E3010BD0148FCE70148FAE7027000F03C
S214005884057000F037B590F831500446022D1ED14D
S214005894012190F82220457E837F01FA02F230200F
S2140058A4154925B900FB031342F2100105E0012D4A
S2140058B407D100FB031341F210015A50002003B035
S2140058C430BD247E00FB0313002CF4D1ECE7012D3D
S2140058D4F4D1037E73B911238DF80730FFF79AFFCE
S2140058E42A460DF107012046FFF743FF2046FFF73F
S2140058F4A9FFE3E71323EFE700C00340F0B504462F
S2140059048BB09E4F03AE0D460FCF0FC697E8070029
S21400591486E807001CB99A4C20460BB0F0BD0DB9BA
S214005924984CF9E73822002120462BF07FFA964956
S214005934964A0B78002B40F0D3800120C2E900334E
S214005944C2E90233087042F823402B7D286884F8A5
S21400595431300023206084F832302B7B23718C4B4B
S214005964984240F0CA80202384F82330894B236170
S2140059744FF4802300266361D5E90723626216800C
S2140059845680968084F82C60A3621E805E809E807B
S2140059946B6803A90593EB8984F82D60ADF81C3079
S2140059A42B8A84F82F60ADF81A30AB7C8DF80C6027
S2140059B48DF81830EB7C8DF81E3005238DF81930E1
