:10000000001B00203DA20100AD3D0000B13D0000FD
:10001000A70B0000000000000000FFFF54000000DC
:1000200004180F00000000000000000000000000A5
:1000300000000000000000000000000000000000C0
:10004000000000000000000000000000A701000008
:0400500000000000AC
:10005400001B00203DA20100AD3D0000B13D0000A9
:10006400A70A0A010002000004180FACA067A70148
:10007400000000000000000000000000000000007C
:10008400000000000000000000000000000000006C
:100094000000000000000000FFFFFFFFFFFFFFFF64
:1000A400FFFFFFFF006007000000000000000000E9
:1000B400FFFFFFFFFFFFFFFF8000000000000000C4
:1000C400000000000000000000000000000000002C
:1000D40000000000000000008C5300208C5300201E
:1000E400001B0020E0A3030000220300A011002055
:0C00F4007411002000E007000000000074
:10020000001B00203DA20100AD3D0000B13D0000FB
:100210002D910000B53D0000BD3D00003BA2010056
:100220003BA201003BA201003BA201003BA2010056
:10023000C13D00003BA201003BA201003BA2010026
:10024000343E0000343E0000343E0000343E0000E6
:10025000343E0000F959000029670000343E0000D8
:10026000343E0000343E0000FD570000D1B60000CF
:10027000343E0000343E0000343E000009B7000068
:10028000343E0000343E0000343E00003BA201003A
:10029000343E000059500000343E0000343E00005F
:1002A000343E00005951000031510000343E00003E
:1002B000343E0000343E0000343E00000D7C01005E
:1002C000997B0100957B0100D5720100097C01003A
:1002D0009D7B0100BD7B0100A17B01003BA20100D1
:1002E000517C0100343E0000343E00009540000087
:1002F000343E0000343E0000343E00003BA20100CA
:10030000343E0000343E0000343E0000343E000025
:10031000343E0000343E0000343E0000343E000015
:10032000343E0000343E0000343E0000343E000005
:04033000343E000057
:10033400F8B500BFF8BC08BC9E467047F8B500BFCE
:10034400F8BC08BC9E46704710B5054C237833B9F9
:10035400044B13B1044800E000BF0123237010BD17
:100364008C240020000000004C9A030008B5034BC5
:100374001BB10349034800E000BF08BD00000000B2
:10038400902400204C9A0300154B002B08BF134BFC
:100394009D46A3F5803A00218B460F461348144A24
:1003A400121A31F007FF0F4B002B00D098470E4B69
:1003B400002B00D098470020002104000D000D48B8
:1003C400002802D00C4800E000BF31F0B5FE200048
:1003D40029000BF0E7FB31F09BFE00BF0000080092
:1003E400001B002000000000000000008C240020FE
:1003F4008C530020000000000000000030B50024F1
:10040400144D85B02C700CF0C9FA022817D1009055
:100414000DF10E032246032101200DF0E2FCBDF88C
:100424000E0048B1204603F006FD4FF47A612846D9
:100434001EF0ECFC05B030BD03F0FCFCFAE709F05B
:100444002DFE054B0090054A054901200EF0BAFE29
:10045400F0E700BFD0430020D1390300002203009D
:100464000522030008B50CF099FA02280CD10022E9
:10047400064B01201A7008F027FDBDE8084002462B
:10048400034901200EF09EBE08BD00BFC8430020F2
:1004940019220300704738B5C37B05460BB183208E
:1004A40038BDC47C2CB902F061FC20B9EB7B002B75
:1004B400F5D18120F4E72046F2E738B5C37B054641
:1004C4000BB1832038BDC47C6CB9017D82898B1C3F
:1004D4009A420AD380680EF0CEF908F0B3FC30B922
:1004E400EB7B002BEDD18120ECE78020EAE720466E
:1004F400E8E7C37B10B504460BB1832010BDC37C71
:100504001BB1012B10D08120F8E7017D82898B1C5F
:100514009A420CD380680EF0AEF908F07FFE40B921
:10052400E37B002BE9D1EEE708F090FEF7E78020AB
:10053400E4E70020E2E738B5C37B0446002B437DA3
:1005440014BF8325C325012B0FD10368028A598860
:1005540058790CF07FFF40B123685B88032B2DD1C1
:100564002046BDE83840FFF7A8BF637D33BB23684E
:10057400228A598858790CF064FFF8B123685B88A3
:10058400B3F5806F15D009D8032B19D0252B10D0C3
:10059400A3B92046BDE83840FFF77DBF40F20542CD
:1005A400934206D0B3F5A06F03D040F202429342C7
:1005B40004D1E37B002B14BF83258125284638BD55
:1005C4002046BDE83840FFF794BF01207047012062
:1005D4007047012070477047002070470020704723
:1005E40000207047002070470020704700207047AB
:1005F400002070470120704701207047B5207047E4
:10060400002070470020704700207047002070478A
:1006140070470020704700207047704700207047E3
:10062400842070477047002070477047704700204F
:100634007047704700207047012070470246024906
:1006440001200EF0BFBD00BF3A220300704770477F
:100654000020704700207047034B1B68187801285E
:1006640008BF0220704700BF3C3C002000207047B8
:1006740003460120024AC3E9032000221A7070478E
:100684000100FEFF704700207047002070470020E3
:10069400704700207047002070477047B5207047AE
:1006A4000020704700207047002070477047704753
:1006B400B5207047704770477047002070477047F7
:1006C400704700000023FF21084A137082F8783035
:1006D40082F8653082F8773082F8793082F87A10BF
:1006E40082F87B30024A1360704700BFA8240020C0
:1006F400D8430020F8B50D468C680A680646284998
:10070400202004F034FA6B687BB92649202004F0D9
:100714002EFA20200AF04CFD2349202004F03CFA54
:10072400BDE8F84020200AF043BD002EF1D01F4D53
:100734001F4E204F013C14F8013F23B91A492020D1
:1007440004F02AFAE5E7752B18D0762B18D0772B0E
:1007540018D0732B18D0722B18D0712B18D0622B91
:1007640018D06E2B18D02A2B18D01349134A212BDA
:1007740018BF1146202004F0FAF9DCE72946F9E70E
:100784003146F7E73946F5E70D49F3E70D49F1E757
:100794000D49EFE70D49EDE70D49EBE70D49E9E7B1
:1007A4002D520300F5220300A6220300B322030006
:1007B400A7220300BE220300FF220300FC22030041
:1007C400CA220300D4220300DF220300EA2203002A
:1007D400F4220300F9220300F0B50026204A92F81F
:1007E4007B30184452FA80F090F865C090F8665057
:1007F40030461C4BA5EB0C051F78EDB2F4B2A542B4
:1008040025D90CEB060313445B7811B10CB92D2BDD
:1008140017D0782B1FD0582B05D108B137240AE004
:10082400013C012C14D9602B17D8402BF6D83A2B55
:1008340034BF302400241B1BDBB29F4203D900FBCE
:1008440007300136DAE70523002082F87930F0BD5D
:1008540010270020F5E70028E2D05724EBE700BF7B
:10086400A8240020981C0020FFF72CBF034B93F80A
:10087400770093F87B30C01AC0B27047A8240020D8
:100884000021FFF7A9BF000010B50A4B93F87B20A5
:10089400024453FA82F292F8652013445C78A4F17E
:1008A4002D0359425941FFF797FF2D2C08BF4042B1
:1008B40010BD00BFA824002030B50C4A92F87B304C
:1008C4000344C043DBB2C00F39B1D51895F8664074
:1008D40095F86550641B241A0C7042FA83F393F85C
:1008E40065301844024B184430BD00BFA8240020D2
:1008F400A9240020F7B515460E460DF107011C4644
:10090400FFF7DAFF9DF807300746AB4288BF8DF842
:1009140007501CB19DF807402C1BE4B22246304618
:10092400002100F079FB30199DF80720394600F0CA
:1009340017FB9DF8070003B0F0BD38B50C46012342
:100944000822FFF7D7FF04F10803621E043413F8EA
:10095400011D12F8015FA3421D701170F7D138BD5B
:1009640038B5054601460120FFF7C4FED5E9014329
:100974006CB91C46084D236863B12946202004F055
:10098400F6F821460020FFF7B5FE0C34F3E71B7898
:100994006E2BEFD038BD00BF6272030008B5044966
:1009A400202004F0E4F8BDE8084020200AF000BC50
:1009B4006722030038B5FFF7F1FF0024054D6119E4
:1009C4000C34631953F80C3C03B938BD0020FFF70D
:1009D40091FEF4E7FC2F03002DE9F84F1F4B204D47
:1009E40053F820201F49202004F0C1F82B681BB9BC
:1009F400BDE8F84FFFF7DEBF1B4FFFF7CFFF002620
:100A0400B946DFF86CA097F87B30F4B2013B9C4206
:100A140004DB2868BDE8F84FFFF7A2BF47FA86F366
:100A240093F8658000234C44C84494F8662094F8F5
:100A3400651003F1010B521ADBB2D2B2934205D313
:100A44000A49202004F093F80136DCE743445A783D
:100A54005146202004F08BF85B46E6E79C1C0020FE
:100A6400D843002062220300A824002063720300FC
:100A7400E87403002DE9F74F884C94F87730002B85
:100A840000F0A180864B671C1B7813F0010F1FD068
:100A94000025844E14E0631993F8662093F86530BA
:100AA4002020D21A44FA85F393F86510D2B239445F
:100AB4000AF079FB3146202004F059F80135EDB2F3
:100AC40094F87730AB42E6D87749202004F04FF809
:100AD400002694F87730DFF8DCE10193734B4FF094
:100AE4000008714645461EF8012B91F801C007EB3A
:100AF400020AACEB020C5FFA8CFC1868002852D096
:100B04000138D14619E02AB9002D4AD04FF0010826
:100B14000C33F2E719F8011BA1F1410BBBF1190FDA
:100B240098BF2031A2F1410B98BFC9B2BBF1190F94
:100B34009CBF2032D2B28A42EAD1A9EB0A016145B4
:100B440010F8012FDFD1002ADED11D46584B0136A3
:100B54001D6094F87B30F6B2013384F87B30D5E91C
:100B64000123002A35D01B786E2B31D03F2B23D0A4
:100B74004FF000094FF0070BC846042394F8771090
:100B8400AA68B14212F808702BD8AFB1904498F813
:100B940001302A2B10D0212F1CBF032384F8793075
:100BA4000AE01D46B4E7B8F1000F01D1002DCDD104
:100BB4000223002584F8793094F87900002869D15B
:100BC40068680DF047FB03B0BDE8F04FFFF77ABD4E
:100BD4001346019AB24282D803221D4684F8792032
:100BE400EAE7732F09D8712F0BD2212F1FD0622F60
:100BF4003CD0002F4BD1032246E0A7F17502022A14
:100C040045D8752F29D0762F2AD0732F2BD0722F49
:100C140047F6FF7A18BF4FF0FF3A01214846019387
:100C2400FFF7DAFD5045019B01D984F87930AA68B1
:100C3400424452782A2A94F879201CBF08F101080A
:100C44005FFA88F8002AB7D1212F1FBF013609F1B6
:100C54000109F6B25FFA89F990E74FF0FF0ADCE781
:100C64004FF6FF7AD9E74FF07F0AD6E794F87B2056
:100C74004A4454FA82F292F8652022445278222A95
:100C8400D5D07B2AD3D0052284F87920CFE784F805
:100C940079B0CCE7FFF7A0FE95E700BFA8240020B9
:100CA4002425002063720300A4220300FC2F030008
:100CB400D84300200D2500202DE9F34106460D46BA
:100CC4004FF000085C4C5D4F66B90DF107012846F2
:100CD4000AF064FA78B1262800F0A980012384F888
:100CE40079304BE0002D00F0A28016F8013B013D65
:100CF4008DF80730EDB23A789DF807300D2A3B7035
:100D040001D10A2BE0D00D2B0CD0A3F10A025142E1
:100D1400514122788846042AD6D8DFE802F0051D1E
:100D2400263C31000121F4E721B1FFF7A3FE4FF087
:100D34000108C9E7202B63D0222B07D1022323709B
:100D440094F87820642A5DD10623C8E77B2B01D16F
:100D54000323F4E70123F2E709B9202BF0D194F837
:100D64007730112B3FD10323B9E7222BF7D0002989
:100D7400E6D005234FF0010884F87930042323706A
:100D8400B8F1000FA0D094F8790008B1FFF724FE61
:100D9400FFF798FC98E77D2B94F87A0003D1FF289D
:100DA400DDD005239BE7602B13D8402B13D8392BB8
:100DB4008CBF002230229A1AD2B20F2A10D8FF28F0
:100DC4000BD0FF2302EB00128DF8072084F87A3051
:100DD400B6E75722EFE73722EDE784F87A2073E786
:100DE400202BDED170E70133DBB294F8782084F84D
:100DF4007730234483F8652000232370002994D19D
:100E0400884661E72378012B09D19DF80730A3F1C7
:100E1400410119299CBF2033DBB28DF807309DF8BE
:100E24000710A3180132597084F878204CE7404623
:100E340002B0BDE8F08100BFA824002025250020D1
:100E440049BA89B24840C0F303114140080380B253
:100E54004840C3B280EA431070471AF0DBB97047C8
:100E640070477047704770477047704770477047C6
:100E7400704770477047704700207047704770474D
:100E840000207047704770470020704770477047D4
:100E94007047002070477047012070470120704759
:100EA400704770477047704770477047704700003D
:100EB4002DE9F0470024204DDFF89C90DFF89CA03A
:100EC4005FFA84F840461DF05FFDFF2806460CD10A
:100ED40022461A49287803F05FFE287801340AF084
:100EE40067F9142CECD1BDE8F087154B47B213EA2F
:100EF400270338BF534659F824201249287803F0B1
:100F04004BFE002FE9DA14B1B8F1030F08D10E4BF0
:100F140016F0010F0D49287818BF194603F03CFE5E
:100F24000A2CDAD10A4B16F0010F0A49287818BFA7
:100F3400194603F031FED0E7812100201D2403006F
:100F4400A622030045240300E0230300F623030044
:100F540008240300122403008C230300B57003004B
:100F64008842F0B54FEA92031AD804460D469BB264
:100F74009E00871904370434BC4205F104053AD1B4
:100F8400C3EB8333314402EB8303013E304411FA53
:100F940083F3994220D011F8012B00F8012FF8E7D0
:100FA400541E204421440D4604469BB2A0EB830604
:100FB400043E043CB442A5F104050ED16FF00304D1
:100FC4005C43C3EB833302EB830321449BB20134C0
:100FD4002044CB1A994209D1F0BD2F792771EF78BB
:100FE400E770AF78A7706F786770E2E711F80129AE
:100FF40000F8012DEEE715F804CC04F804CC15F83C
:1010040003CC04F803CC15F802CC04F802CC15F890
:1010140001CC04F801CCAEE70244904200D1704701
:1010240000F8011BF9E710B5013801390AB9104677
:1010340006E010F8014F11F8013F9C4201D0E01A7C
:1010440010BD013A92B2F1E782B2074B4AB1000CEB
:101054001A8008BF4FF6CE22044B14BF18801A80A2
:1010640070474BF6EF62F2E76C1D00206E1D002006
:10107400094B1888020448BF80F0620042001A80BD
:10108400064A1388190444BF83F4805383F00B0386
:1010940059001180584070476C1D00206E1D0020BF
:1010A4000022034B1870034B1970034B1A707047DE
:1010B4002F2500202E250020302500202DE9F04F7B
:1010C400234E85B0337807468846002B3DD04FF633
:1010D400FB73204D98422C7803D952211E4802F00C
:1010E40055FA1E4B4FF0000B9A4632785FFA8BF993
:1010F4004A45187811D9484402A9C0B2019326F090
:101104007DFA082241460DEB0200FFF78CFF0BF13C
:10111400010B019B0028E8D14C462B78A34207D150
:10112400631C3278DBB29A422B7004BF00232B700D
:101134009AF8003041461C44E4B2204626F086FB6F
:1011440018B93946204626F027FA05B0BDE8F08FD5
:101154002E250020302500203A2503002F250020CD
:10116400024B187800F07F00704700BF3125002043
:10117400034B18780130C0B2187000F07F0070473C
:10118400312500201FB5030A8DF80E300323009388
:1011940003AB8DF80D0000F0BFF905B05DF804FB5A
:1011A4001FB58DF80F100421030A8DF80E3000913D
:1011B40003AB8DF80D0000F0AFF905B05DF804FB4A
:1011C4002DE9F043994689B0BDF840509DF844603C
:1011D400074688460DF1090011460822BDF84C4027
:1011E400FFF7BEFE8DF81250012E4FEA15258DF83B
:1011F40011908DF813508DF8146017D0032E1CD164
:10120400082212990DF11500FFF7AAFE9DF850303F
:101214008DF81D3016230093BDF8542002AB4146CF
:10122400384600F079F909B0BDE8F0838DF815402F
:10123400240A8DF816400F23EDE70120F3E71FB5CC
:101244000C46194602238DF80D2000930A4603AB81
:101254000146204600F060F904B010BD70B586B0B8
:10126400044616460DF10D0008221D46FFF778FED0
:101274000A232A460093342103AB20468DF81560D7
:1012840000F04AF906B070BD30B5002485B0ADF861
:101294000A20021D92B2012A1D46ADF80840ADF89D
:1012A4000610ADF8044003D94FF6FF72904207D1FF
:1012B400064A2B46127801A924F0C6FA05B030BDBF
:1012C400014601AA204624F085FBF7E7701D0020A3
:1012D4002DE9F74F9846FF2A16BF474B00241B6899
:1012E4000E4618BF9C5C814618BF6408B8F1FF0F16
:1012F40016BF414B00271B6815461CBF13F8087026
:101304007F08FFF735FF4FEA19238DF800008DF8A9
:1013140003600621360A68468DF804608DF8019052
:101324008DF802308DF805401EF0E6F8FF280646D9
:1013340004D11824204603B0BDE8F08F4FEA440BD3
:101344000BF1070A0AEB4701C9B21EF089F800281D
:10135400EFD10446A3451BD10BF106013A4601F037
:10136400FE0130465FFA8AF41EF041F94FF0000A9C
:101374005FFA8AF5AF4223D83346BDF83020062100
:101384004846FFF781FF044630461DF057FFD1E77A
:10139400214628461EF026F9A11D0246C9B2304650
:1013A4001EF025F9611CC9B228461EF01BF9E11D87
:1013B4000246C9B2304602341EF019F9E4B2C9E754
:1013C4006D00EDB2294640461EF00CF92146024656
:1013D40030461EF00CF9691CC9B240461EF002F9F1
:1013E400611C0246C9B2304602341EF000F90AF10B
:1013F400010AE4B2BCE700BF081D00202DE9F0415A
:1014040088B00F4602A906460BF094FB00287CD056
:10141400FFF7AEFE8DF810001DF08AFC8DF8110068
:101424001DF086FC000A8DF81200082239490DF1DE
:101434001300FFF795FDBDF808300F218DF81C301F
:101444001B0A8DF81D309DF80D3004A88DF81B6023
:101454008DF81E301EF050F8FF28044657D04FF088
:1014640000089DF80D305FFA88F2934208F10108F4
:101474001DD801220DF10E0120461EF07FF84FF019
:1014840000089DF80E305FFA88F2934208F10108D3
:1014940024D823463A4620210020FFF7F5FE0546CE
:1014A40020461DF0CBFE284608B0BDE8F08100219F
:1014B40030460BF06BFB05468DF807000DF1070174
:1014C400012220461EF05AF82D0A01220DF10701CF
:1014D40020468DF807501EF051F8C2E7012130462E
:1014E4000BF054FB05468DF807000DF107010122AE
:1014F40020461EF043F82D0A01220DF10701204673
:101504008DF807501EF03AF8BBE7A325CBE7182562
:10151400C9E700BF31520020F8B51C460E461746F5
:101524000546FFF725FE9DF81810207020461DF093
:10153400E3FFFF2804460BD003463A4628463146CB
:10154400FFF7A2FE054620461DF078FE2846F8BDAA
:101554001825FBE708B500F05FF90EF0CBFEBDE8F7
:10156400084007F019B908B5FFF757F80EF0ECFE7C
:1015740007F082FABDE8084007F0DABD704700F0D2
:10158400E5B900F07BBA0020704738B504460D4633
:10159400FFF795F829462046BDE838400AF03EBBDF
:1015A400FFF777B8FFF780B84022032101200FF03E
:1015B40079BB0122032110460FF074BB00220321E2
:1015C40001200FF06FBB0222032101200FF06ABB40
:1015D40000224FF4A06109200FF064BB01224FF4F4
:1015E400A06109200FF05EBB0122002109200FF049
:1015F40059BB704713B504462C4901200DF0E2FD98
:10160400E01E042850D8DFE800F02123033D330016
:10161400274901200DF0D6FD4FF496730322009361
:101624000521002001F064F80123224A41F28831A7
:101634001370214A214813701DF0E8FB4FF47A71AE
:101644001F4802B0BDE810401DF0E0BB1D49E0E7B3
:101654001D4901200DF0B6FD4FF4FA730222012159
:101664000093002001F044F80222134B1A70E5E7BE
:10167400164901200DF0A6FD4FF496730322009342
:101684001146EEE70B4B1B7873B1114901200DF0A5
:1016940099FD4FF49673032200930421002001F076
:1016A40027F8054B0322E1E702B010BD9B3A030083
:1016B400AE3A0300322500201C44002028440020B8
:1016C4000C440020C13A0300D63A0300E83A030070
:1016D400FC3A0300042908B50BD1012005490DF09B
:1016E40071FD0322044B05481A70BDE808401DF043
:1016F40081BB08BD103B03001C4400200C440020A7
:10170400042837B505460C4629D14C1E042C2CD888
:10171400DFE804F0030F182B1D00244901200DF00D
:1017240051FD05220421032003B0BDE8304000F040
:101734000FBD00F02BF91E49012003B0BDE8304075
:101744000DF040BD032007F0F9FA1A49F4E703222B
:10175400194B1A481A701DF04DFB1949ECE7032880
:1017640003D1012903D0022913D003B030BD154998
:1017740020460DF027FD05220421284600F0E8FC50
:101784004FF49673022200930521002000F0B0FF6D
:10179400EBE70D4901200DF015FD0821072000F0AD
:1017A4004BFD4FF4967322460093EDE7533A030042
:1017B4005F3A03006B3A03001C4400200C440020F1
:1017C400773A0300833A03008F3A030008B5C8B19F
:1017D4000138052816D8DFE800F0031511131309A2
:1017E40009490120BDE808400DF0ECBC074901207F
:1017F4000DF0E8FCBDE8084001F082BA0449F0E7C6
:101804000449EEE708BD00BF253B0300383B030055
:10181400523B03006A3B030008B5124901200DF056
:10182400D1FC114800F0ACF8104800F01FF9104941
:10183400104800F063FA00F079FB00F0EFFD00F0CF
:10184400FFFE00F0D9FF0A2001F056F90A4801F022
:1018540085F90022094B0A481A70BDE808401DF0BA
:10186400C9BA00BF8B3B0300F9150000D91600006C
:10187400F715000005170000D11700001C440020D4
:101884000C44002007B51D4901200DF09BFC0022EB
:101894001B4B1A701B4B1A78042A10D8DFE802F08D
:1018A40003120F1D270002221A700BF077F830B9CB
:1018B4004FF4967303220093012100F019FF03B043
:1018C4005DF804FB02221A7000F02EF901200E4983
:1018D40003B05DF804EB0DF075BC00F015F94FF49E
:1018E400FA610A4803B05DF804EB1DF08FBA0222D6
:1018F4001A7003B05DF804EB02F058BDA33B03007B
:101904000C4400201C440020B93B03002044002068
:10191400002208B5094B0A4901201A700DF052FC47
:101924000422084B1A7019F05DF820F0EDFABDE8B6
:1019340008404FF4FA6104481DF068BA20440020BE
:10194400095803001C4400200C4400200020704768
:101954000022024B1A7000F0E9BA00BF28440020AC
:10196400002310B5044C237000F0FEF82046BDE8B7
:10197400104002491DF04ABA14440020A0BB0D00D7
:10198400014B1860704700BF3825002008B50BF0E4
:1019940005F830B9BDE808404FF4FA6101481DF07C
:1019A40035BA08BD3044002008B50AF0F7FF022814
:1019B40006D1BDE808404FF4FA6102481DF026BA8A
:1019C40008BD00BF3044002038B500240C4D2C70F5
:1019D4000AF0E4FF60B908F061FB0A4A284613687C
:1019E40041F2883101331360BDE838401DF00EBA6E
:1019F400022803D108F092FB024B1C6038BD00BFE3
:101A0400304400203425002010B504461449012038
:101A14000DF0D8FB902C10D1124B134C1B683BB12A
:101A2400FFF7C2FF23680BB103209847002010BDC5
:101A34002368002BFAD00520F7E7912CF6D10AF0A1
:101A4400ADFF28B9084B1B68002BEFD00620ECE74C
:101A54000328EBD1044B1B68002BE7D00720E4E7F5
:101A6400C73B03003425002038250020014B1860B3
:101A7400704700BF3C2500200020704708B50B8844
:101A84005BB948F234024988914206D1044B1B6881
:101A94000BB104219847012000E0002008BD00BFDD
:101AA4003C25002070B51646002290B08DF80E201B
:101AB4009DF854208DF80C10090A05469DF85040F5
:101AC4008DF80D108DF80F2023B12246194604A875
:101AD40030F065FB03AB043400930194034B3246AE
:101AE400294610200CF028FB10B070BDC938030043
:101AF40010B50446084611460CF0A4FB2146BDE887
:101B0400104000200CF07CBB1FB502230020009382
:101B14004FF48A5203AB48F234018DF80D00FFF7FD
:101B2400FBFC05B05DF804FB1FB50E4B18689B88E1
:101B34000290ADF80C300AF031FF02280ED10623D2
:101B440042220521CDE900320020012202ABFFF739
:101B5400A9FF012200201146FFF7CAFF05B05DF876
:101B640004FB00BFE73B030013B50AF017FF02288C
:101B740011D1002420232246CDE9004321462346E7
:101B84002520FFF78FFF01222046114602B0BDE851
:101B94001040FFF7ADBF02B010BD30B520220124C4
:101BA400054685B004AB03F8011D40F20240CDE9BF
:101BB400004200212246FFF775FF224629460020F5
:101BC400FFF796FF05B030BD30B52022012405464D
:101BD40085B004AB03F8011D40F20540CDE9004295
:101BE40000212246FFF75EFF224629460020FFF728
:101BF4007FFF05B030BD1FB504AB23F8021D0222E0
:101C040021210446CDE900214FF480600122002106
:101C1400FFF748FF012221460020FFF769FF04B0C7
:101C240010BDF0B501252027064685B004AC04F8A4
:101C3400011D23462A46CDE9005700214FF4A06038
:101C4400FFF730FF2A4631460020FFF751FF009787
:101C5400234600224FF4A06130460CF071F805B021
:101C6400F0BD00002DE9F04F0646894617469A4616
:101C740000254FF6FF7BDFF8808087B0ECB202A925
:101C8400204618F0B7FC0190204618F0ABFC019BED
:101C940004465BBB504507D19DF80930B34203D1DC
:101CA4009DF80C304B451ED00AF074FEA0421AD0A9
:101CB4005C4518D0231D9BB2012B14D99DF8093023
:101CC400B34210D14346A7B10122062101200CF0F2
:101CD40033FA9DF80C109DF809000CF0B3FA214674
:101CE40000200CF08DFA01351C2DC7D107B0BDE8DA
:101CF400F08F3A46E9E700BFA6220300024B1860C2
:101D0400024B1960704700BF482500204025002081
:101D1400054B5A78824205D05B7C83420CBF01207C
:101D2400FF20704700207047741D002038B5FFF76E
:101D3400EFFF194DFF280446287025D0012910D142
:101D440000F0FEFE2A78154B03EB041403EB021398
:101D54009A89606001329A811148BDE838401DF0CB
:101D640049B889B900F0ECFE0C4C2B78014604EB21
:101D74000313586800F0EAFE32282D7805D804EBE6
:101D84000514A389013BA38138BD00F0D9FE04EBFF
:101D94000514A060F8E700BF44250020741D00204E
:101DA400384400202DE9F8430023374E374C384D92
:101DB400DFF8E480337004F1200900F0C1FEA38948
:101DC4000746E3B1302223785A43324B9B5862785A
:101DD400D340DB072FD40146606800F0B7FEB0F5AE
:101DE4007A7F11D10121D8F8003060789847012317
:101DF400A373A3891BB1642130461DF007F8103486
:101E04004C45DAD1BDE8F8833946606800F09EFE9F
:101E1400B0F5FA6F03D1D8F800300221E5E739466E
:101E2400606800F093FE40F6B8339842E1D1D8F8E8
:101E340000300321D9E7A37B13BB0146606800F09F
:101E440085FEB0F5C87FD4D3A389013B042B08D801
:101E5400DFE803F0030A0D10130001212B686078FA
:101E640098470023A381C4E72B680221F7E72B6876
:101E74000321F4E72B680421F1E72B680521EEE741
:101E84000023A373EEE700BF38440020741D002034
:101E94004825002014C0034040250020D0ED007ADE
:101EA400E1EE017AB0EE677AE0EEA07A0A4BC7EE73
:101EB400276AD3ED007A30EE670AE0EE267AB0EEB8
:101EC400670AC3ED007AF7EE007A77EEE67A67EEFA
:101ED400877AC0ED007A7047941D002007B501236E
:101EE4000022CDE9002303220220114605F03CF92B
:101EF40003B05DF804FB000008B50B4B1A786AB117
:101F04000022012103201A70FFF78BFE0AF042FD24
:101F14000122034611460320FFF7A4FEBDE8084052
:101F24000621012000F0BABB981D0020022208B54A
:101F340010460123032105F05DF90549032003F050
:101F4400E7F804481CF056FFBDE80840FFF7C6BF99
:101F5400911F00004044002007B5034620B103B0A0
:101F64005DF804EBFFF7BABF0322CDE90000114688
:101F7400022005F0F9F803B05DF804FB024B186881
:101F8400C0F3C000704700BF70C00340032810B501
:101F94000FD1FFF7F3FF60B10024064B20461C70FD
:101FA400FFF7DAFF0448C8210470BDE810401CF0B4
:101FB4002DBF10BD7E2500204044002070B504468E
:101FC40028B1012817D1BDE87040FFF795BF01255E
:101FD400094B28461D7000F00FFB21460320FFF734
:101FE40020FE0AF0D7FC224603462946BDE870408D
:101FF4000320FFF737BE70BD981D002070B5002682
:10200400174D184C2B782670012B19D002D3022BB4
:102014001DD070BDFFF7B2FF70B1134901200DF060
:10202400D1F801232B70FFF767FF41F28831204676
:10203400BDE870401CF0EABEBDE87040FFF74EBF3B
:1020440002232B70FFF74AFF47F23051EFE70120DC
:1020540006490DF0B7F83046BDE87040FFF7AEBF53
:102064007E25002040440020ED3B0300023C030099
:10207400FD2110B5FC240948094A0388D154591C90
:1020840089B25454FB24991C89B25454191D0180FB
:10209400FA2103339BB2D15410BD00BF8025002028
:1020A4004C250020042110B503240948094A03885B
:1020B400D154591C89B254540224991C89B25454E1
:1020C400191D0180012103339BB2D15410BD00BFFF
:1020D400802500204C250020F8B500261A4D012843
:1020E40007461A4C2E801ED1FFF7C2FF0422FF219F
:1020F4002B88E2545A1C92B2A6549A1C92B2A15450
:10210400DA1C92B2A6541A1D92B2A7549A1D2A80C0
:1021140005339BB2E654FFF7C5FF29880B48BDE899
:10212400F84000F0E7BDFFF7A3FF0222FE212B8851
:10213400E2545A1C92B2A6549A1C92B2A1541A1D8B
:102144002A800333E5E700BF802500204C250020CA
:102154002DE9F8430025364E81460120884617466E
:10216400FFF7BAFF3580FFF783FF1422602133881D
:10217400304CE2545A1C92B2A5549A1C92B2A15407
:102184000121DA1C92B2A5541A1D92B2A5545A1D0B
:1021940092B2A5549A1D92B204F80290DA1D92B23A
:1021A400A55403F1080292B2A55403F1090292B2B4
:1021B400A55403F10A0292B2A15403F10B0292B2A4
:1021C400A55403F10C0292B204F8028003F10D024B
:1021D40092B2A55403F10E0292B2A55403F10F0278
:1021E40092B2A554022203F1100189B2625403F1A0
:1021F400110189B2655403F1130203F1120189B28A
:1022040092B26754A55403F1140292B2A55403F197
:10221400160215339BB23280E554FFF743FF204684
:10222400318800F067FD2846BDE8F843FFF754BF46
:10223400802500204C2500202DE9F0410025364E54
:10224400804601200F46FFF747FF3580FFF710FF58
:10225400142264213388314CE2545A1C92B2A5549E
:102264009A1C92B2A154FF21DA1C92B2A5541A1DF1
:1022740092B2A5545A1D92B2A5549A1D92B2A15479
:10228400DA1D92B2A154012103F1080292B2A554BD
:1022940003F1090292B2A55403F10A0292B2A154C5
:1022A400022103F10B0292B2A55403F10C0292B283
:1022B40004F8028003F10D0292B2A55403F10E0258
:1022C40092B2A55403F10F0292B2A55403F1100285
:1022D40092B2A15403F1110292B2A55403F1120275
:1022E40092B2A75403F1130292B2A55403F114025B
:1022F40092B2A55403F1160215339BB23280E55411
:10230400FFF7D0FE2046318800F0F4FC2846BDE8F3
:10231400F041FFF7E1BE00BF802500204C250020DE
:1023240070B500250F4E104C3580FFF7A1FE042236
:1023340060213388E2545A1C92B2A5549A1C92B27A
:10234400A1540121DA1C92B2A1541A1D92B2A554CF
:102354009A1D05339BB23280E554FFF7A3FE204655
:1023640070BD00BF802500204C25002070B50025DD
:102374000F4E104C3580FFF77BFE04226421338816
:10238400E2545A1C92B2A5549A1C92B2A15401214F
:10239400DA1C92B2A1541A1D92B2A5549A1D0533A7
:1023A4009BB23280E554FFF77DFE204670BD00BF2E
:1023B400802500204C25002038B5FFF7B1FF0546E5
:1023C40000F08EFC044600F08FFCE21C0444EB1C7D
:1023D4000334A24201D1012038BD12F8010F13F8D1
:1023E400011F8842F5D00020F6E738B5FFF7BEFF9D
:1023F400054600F075FC044600F076FCE21C04443B
:10240400EB1C0334A24201D1012038BD12F8010FA4
:1024140013F8011F8842F5D00020F6E7F0B52C4EE2
:102424008FB008AD00240FCE03270FC596E8030034
:10243400012685E80300274DCDE903442846CDE96C
:10244400054407948DF80E708DF808608DF80940E6
:102454008DF80A408DF80B4005F038F9022105206B
:1024640004F032FC022322461B4928468DF817301B
:1024740005F0A2F923468DF819000090224642F295
:10248400107128468DF8237005F0AEF904238DF8F9
:102494002130A5238DF8250008AA05A928468DF822
:1024A40009308DF80E408DF8086005F0C1F902AAD4
:1024B40003A9284605F0CAF8084A0948D2F828337F
:1024C40043F48033C2F828331CF094FC0FB0F0BD01
:1024D4001C3C03000040004A40420F0000C003407F
:1024E40048440020012213B50446184BDA605A69A7
:1024F40002F4A072B2F5807FF9D16846134905F061
:10250400EDFA0098124A134B03FB0023B3FBF0F0DF
:102514002FF024F99FED091B41EC100B2CF0FAFB72
:1025240008A3D3E9002351EC100B2FF091F92FF0FD
:102534003FFC206002B010BDAFF3008066666666A3
:102544006666F6BF00000000D8227E410040004AC3
:10255400408AF701F0D8FFFF13B501A8FFF7C2FFC7
:10256400DDED017AB2EE041AB8EE670ADFED170A60
:102574001748FFF793FCFCEEC07A17EE901A154C3F
:10258400CDED017A2368994202D9CA1A1D2A04D8CA
:10259400994206D25B1A1D2B03D989B20220FFF798
:1025A4002AFB019BB3F5FA7F0CD30221012000F032
:1025B40075F8BDF804100220FFF71DFB019B236092
:1025C40002B010BD012000F017F8F2E7CDCCCC3DED
:1025D4008425002088250020002310B5054C237095
:1025E400FFF7BAFF2046BDE810404EF660211CF00C
:1025F4000DBC00BF484400200C2370B5584330255F
:102604000D4901230A18085C41F210010B4C56884D
:1026140005FB004003FA06F646501079D68805FB00
:10262400004003FA06F64650107A5289934005FB9F
:102634000042535070BD00BF9A1D002000C00340EB
:1026440070B5124D00242E462919285D002302225C
:102654004988043404F0CEFD0C2CF5D10024301943
:10266400C18900230222007B043404F0C3FD0C2C36
:10267400F5D10020FFF7C0FF0120FFF7BDFF044B99
:10268400044A1A60044A5A6070BD00BF9A1D0020B3
:102694008844002080440020504400200C22124B27
:1026A4002DE9F04102FB003001270023302641F2DE
:1026B400100C42F2100E0D4D10F8232000EB830491
:1026C40006FB0252648841FA03F818F0010F07FA76
:1026D40004F403F1010314BF42F80E4042F80C4025
:1026E400032BE9D1BDE8F0819A1D002000C003400E
:1026F400F0B4142501274543074EBA407419A3606A
:10270400049B7755E360054BA174A28053F8200025
:10271400F0BC1CF06FBB00BF58440020884400206C
:102724000022F8B5154F164D57F8203004461A709C
:1027340014234343EE18B288BAB1EB5C012B14D1D5
:10274400D3070ED5B17CFFF7A9FFB16857F8240071
:102754001CF05CFB142303FB0454A388013BA380FB
:10276400F8BDFFF749FFF168F0E714230022634343
:102774002046EA54BDE8F840FFF73EBF88440020F5
:10278400584400200020FFF7CBBF0120FFF7C8BF4B
:102794001FB56C46144B0FCB84E80F0001230B22AA
:1027A4001846002104F026FD01230B221946184681
:1027B40004F020FD03220D4B0D48C3F89824D3F8F0
:1027C400A014014041F00111C3F8A014D3F89C24D3
:1027D4002146024042F00102C3F89C24054804F05B
:1027E40091FD04B010BD00BF343C030000C00340A1
:1027F400FCFFF0FF0000014A30B589B0FFF7C8FFC5
:102804004CF6FC121C4B03A9039308AB23F81C2DB4
:1028140004930223ADF8143002AB06930323174844
:10282400ADF81C3004F09CFE0546144C012D16D066
:102834002A46134901200CF0C5FC9DF80820B2F18A
:10284400140418BF0124002D18BF012464B10D49DC
:1028540001200CF0B7FC0124204609B030BD20460D
:1028640004F072FD0546E1E7074901200CF0AAFCDB
:1028740006481CF0BFFAEFE7800004000000014A9C
:10288400443C03005B3C0300823C03009044002072
:1028940070B5164B88B0039308AB03F81C1D049362
:1028A4000123ADF8143002AB06930223054603A9B5
:1028B4000F48ADF81C3042F2107404F051FE0C4E77
:1028C400012808D1013C02D1204608B070BD304631
:1028D40004F03AFDF4E79DF809309DF8082003F070
:1028E400FC0303EB02232B600120EEE780000400CD
:1028F4000000014A70B50C46E0210646FFF7C8FF08
:1029040008B9002070BD45F2CD524FF47A75336892
:10291400E5215A43520BA2F53742023AB2FBF5F2D3
:1029240020463260FFF7B4FF0028EAD043F609538B
:10293400226853435B0BA3F5BB53103BB3FBF5F386
:102944002360DFE773B55D4E5D4D336801A9013344
:1029540033602B68684601332B60FFF7CBFF4FF4DD
:102964007A723168574CB1FBF2F302FB131383B94B
:10297400009BB2EE041A07EE903ADFED530AB8EE6C
:10298400670A52482360FFF789FABCEEC00A84ED57
:10299400000A3368042B17D9009BB2EE041A07EE21
:1029A400903ADFED490AB8EE670A48482360FFF71A
:1029B40075FAFCEEC07A012017EE901AC4ED007A85
:1029C400FFF7EBF800233360009B2268934202D99F
:1029D400991A012904D1934217D2D21A012A14D088
:1029E40007EE903A3948B8EE670AB2EE041ADFED02
:1029F400360A2360FFF752FAFCEEC07A012017EE84
:102A0400901AC4ED007AFFF7C8F84FF47A72296877
:102A14002F4CB1FBF2F302FB131383B9019BB2EE0B
:102A2400041A07EE903ADFED280AB8EE670A29483F
:102A34002360FFF733FABCEEC00A84ED000A2B686A
:102A4400042B17D9019BB2EE041A07EE903ADFED7E
:102A54001E0AB8EE670A1F482360FFF71FFAFCEE50
:102A6400C07A012017EE901AC4ED007AFFF7ACF893
:102A740000232B60019B2268934202D9991A0129F1
:102A840004D1934217D2D21A012A14D007EE903AF5
:102A94001048B8EE670AB2EE041ADFED0B0A2360A1
:102AA400FFF7FCF9FCEEC07A012017EE901AC4ED92
:102AB400007AFFF789F802B070BD00BF90250020AE
:102AC4008C25002098250020CDCCCC3DA0250020CD
:102AD400942500209C250020002310B5054C23706C
:102AE400FFF730FF2046BDE810404FF47A711CF028
:102AF4008DB900BF9044002000220146044B0548D4
:102B04001A700260044A184611601CF07FB900BFB5
:102B140098440020A4250020A8250020002305486F
:102B2400054A0370054B196813680B4413601CF0C5
:102B34006DB900BF98440020A4250020A8250020DA
:102B4400014B1868704700BFA42500200B1A81426E
:102B540038BF03F1FF3318467047000010B5044630
:102B640001234FF461410022032008F0B3FA044B1F
:102B74004FF47A711C600348BDE810401CF046B95C
:102B8400B0260020A0440020002212232DE9F041A9
:102B9400284DDFF8A8E0284F03282A708EF800306B
:102BA4003978164614469046DFF894C036D004B1FE
:102BB400397002B12E702878BDE8F0811CF803004A
:102BC400FD282ED101240E46A04621460133DBB256
:102BD4000029F3D0012902D000210124F8E7162BA3
:102BE40018D90CEB030010F8048CB8F1040F11D1C0
:102BF40010F8038CB8F1030F0CD110F8028CB8F163
:102C0400020F07D110F8010C012801BF0246002170
:102C1400062614464FF001080133DBB2002ED7D04C
:102C240001E001221646B8F1000FC0D08EF8003042
:102C3400BDE700BFAF250020AE250020AD25002054
:102C4400B025002010B50320FFF79EFF034B1B683F
:102C540013B1BDE81040184710BD00BFB0260020D6
:102C6400002373B51B4A032013708DF8073008F056
:102C740093FA194A044613780344137020B19DF85B
:102C84000720FD2A0ED02CB9322112481CF0BEF8C0
:102C940002B070BD0DF107010320013C08F07EFA7B
:102CA400A4B2ECE7002CEFD001250C4E32700DF1EC
:102CB4000701032008F072FA9DF807307355ABB290
:102CC4009C4203D00135B5F5807FF0D1FFF7BAFF00
:102CD400DAE700BFA0440020AC250020B025002086
:102CE40000487047C2250020014B987D704700BF03
:102CF400B0250020CAB20146032008F054BA0000EF
:102D040013B5FFF759FB0446FFF76FFB012C01D005
:102D140001280ED14FF4967302220093052100205E
:102D2400FFF7E6FC0120044902B0BDE810400CF0B6
:102D340049BA02B010BD00BF9B3C0300002307B595
:102D4400CDE90033012369464FF0FF308DF802309E
:102D54000FF0BAFE003018BF012003B05DF804FB89
:102D640001207047012070470120704710B5084CBE
:102D740023681B6858790AF0D0FC23681B685879CB
:102D8400FDF753FC00200DF073FC012010BD00BFC3
:102D9400945000202DE9F84F80460D46144699467C
:102DA400164E06F1010A0DB9BDE8F88F102D4FF04B
:102DB4000D02494650462F4628BF1027FEF7D0F88B
:102DC4000123337000230D48F473B37324F0D6FD4C
:102DD400424601340A495FFA87FBE4B212F8013B28
:102DE40011F8010F434002F8013CA2EB0803DBB2E7
:102DF4005B45F3D3ED1BADB29046D4E7B826002073
:102E0400B72600202DE9F04F4FF00209364D85B06A
:102E140003930F9B174601900D220E460146681C32
:102E2400BDF838800293FEF79BF849234C46AA4626
:102E34002B7028464FEA1823AB7385F80F8024F0D3
:102E44009DFD2B7883EA17232B706B787B406B7086
:102E54004FF0000B21E0C4F1100CA7EB0B031FFA99
:102E64008CFC9BB2634528BF63463046A11B00EB34
:102E7400010C5FFA8CF2A0EB060C1FFA8CFC9C454B
:102E84001BD31C44E4B29B44102C1E441FFA8BFB3E
:102E940003D1284624F072FD0024BB45DBD314B1D2
:102EA400504624F06BFDB9F1010F4FF00004039E6E
:102EB40047460BD04FF00109CAE710F801CB1AF8C6
:102EC40002E08CEA0E0C0AF802C0D0E70298042251
:102ED4000549FEF745F822460421019B029805B0F6
:102EE400BDE8F04FFFF756BFB8260020F7B5099F9D
:102EF400BDF820400646CDE900471D46FFF782FF96
:102F04002CB13346012221462846FFF743FF002017
:102F140003B0F0BD2DE9F7431E46054688469146A9
:102F2400BDF828700D4C0346394630460122FFF7A0
:102F340031FF33464A4641462846CDE90074FFF73F
:102F440061FF042221460B98FEF76DF8002814BF98
:102F54007E20002003B0BDE8F08300BFB42600202B
:102F64002DE9F3410C4615461E468046084F991834
:102F7400214438460422FDF7F3FFCDE900676319C5
:102F84002A4621464046FFF7C5FF02B0BDE8F0815E
:102F9400C826002000207047002070477047704703
:102FA400F7B50024094E0A4F0A4D56F8243003B9E8
:102FB4003B6835F814200849009201202246013468
:102FC4000CF000F9292CF0D103B0F0BDB41D0020A1
:102FD4005C1E00201C450020AA3C030008B5FFF736
:102FE400DFFFBDE8084000F0F1B8000007B500209D
:102FF400FDF746FCC2B2282A0DD8084B53F82230FC
:103004000BB9074B1B680749012031F812100091D6
:1030140005490CF0D7F803B05DF804FBB41D00209B
:103024005C1E00201C450020AA3C0300FFF7B8BF2B
:103034007047000038B50020FDF722FC044601204B
:10304400FDF71EFC0546054901200CF0BBF8A9B2AA
:10305400E0B2BDE8384000F0D1B800BFB53C030091
:10306400F7B50024094E0A4F0A4D56F8243003B927
:103074003B6835F8142008490092012022460134A7
:103084000CF0A0F8292CF0D103B0F0BDB41D002041
:103094005C1E0020CA440020AA3C030073B502ABA6
:1030A40003E906000446019D1BF05EFB064620462C
:1030B4001BF068FB9DF800008EB1202C0FD82B78F4
:1030C400012B37D84FF6FF75394903EB43132344DB
:1030D40031F81320AA4202D0013221F813204FF60E
:1030E400FF72344B344933F8146031F8145096426B
:1030F4001CBF721C23F8142004F0FD02092A31D1EC
:103104009A8A898A02448A42B4BF9A82998233F89D
:103114001430AB4204D3AE4202D22046FDF786FA05
:103124000025264BEA5CA24228D00135112DF9D1A5
:1031340002B070BD022BD2D14FF6FF714FF6FF756E
:103144001B4B33F814208A421CBF013223F814208D
:1031540004F1210233F81210A9421CBF013123F8F3
:103164001210BCE71D2CD2D15A8F1118A942BDBF31
:1031740002F1FF3212185A875D87C8E717F003FD82
:103184000F4B04461B78834203D8DD210D4800F021
:10319400FDF94FF6FF710C4A04EB04142C4432F889
:1031A40014308B42C4D0013322F81430C0E700BF7E
:1031B4006E4500201C450020CA4400202140030025
:1031C400511D00209D3F0300A844002052220021ED
:1031D4000148FDF721BF00BF1C4500205222FF21FA
:1031E4000148FDF719BF00BFCA44002008B5FFF726
:1031F400EDFFBDE80840FFF7F1BF0000014B23F8E5
:1032040010107047CA440020032310B50F4C4FF42C
:103214008062C4E904330E4B0E49E3610023A161CB
:1032240021660D49E01DC4E919120C49A3626362C9
:10323400E3622367E366636722622EF0C3FF0849F3
:1032440020462EF0BFFF2023A37110BDF4450020BB
:10325400CC2A002032400300CC2600203B4003004F
:103264003F4003002DE9F84F1F4B16461A7881465C
:103274008A4698460AB9FFF7C7FF182707FB09874C
:103284003D6FD7F86CB05D452BD9BC6E796E641B6D
:10329400B44228BF34462944504622462EF07FFFCC
:1032A400BB6E2544AB4208BF0025A244361BABEBE2
:1032B400050B5E4528BF5E4656B1182303FB098300
:1032C400596E3246294450462EF069FF3444354441
:1032D40024B1182303FB0988C8F870502046BDE8C0
:1032E400F88F0024E3E700BFF445002010B50B4637
:1032F400EFF311844FF0200181F311881946FFF791
:10330400B1FF84F3118810BD2DE9F84F144D9B468D
:103314002B788146884692460BB9FFF775FFEFF389
:10332400118C4FF0200181F31188002018236F695C
:1033340003FB0054666E2EB101308742F8DC4FF077
:10334400FF3009E08742FADDC4E91898C4F868A0A0
:103354002667E666C4F874B08CF31188BDE8F88F6C
:10336400F4450020FFF750BF70B54FF060441A4B8E
:1033740000261A68194D42F001021A60DA680C201E
:1033840042F08072DA60164BC4F8B03F0223C4F8EE
:10339400006EC4F8806EC5F8F03003F057FB114B93
:1033A40000F5D52000F2FC40B0FBF3F00E4A0F4BC1
:1033B40001382861C4F8406E1A600D4BC4F8803E91
:1033C4004FF48073C5F80433D4F8003E43F480739B
:1033D400C4F8003E70BD00BFF0ED00E0000004E062
:1033E40055CEACC5F8590D00FF030040001000E0B5
:1033F4000D00010010B501240E4B00201C6003F0E9
:10340400B1FE234604220321002003F0F3FE2046EC
:103414000FF06AF8FFF7A8FF0FF067F8FFF7A2FFB5
:103424002346402204490548FFF76EFF044B186009
:10343400C00F10BD44D40340CC2E002046400300EE
:10344400601E0020024B1868003018BF012070472E
:10345400F0ED00E0D123054A037013784170090AA6
:103464008170591CC3701170042070470C2F002008
:103474002DE9F74F354E074633681C5C032C63D99E
:10348400DFF8CC8016F090FF4FF6FF7A0025C14696
:103494000534E4B20190D8F800204AB1AC4207D90F
:1034A40016F082FF019BC01A80B2B0F5FA7F05D9ED
:1034B400601B18BF012003B0BDE8F08F002D3DD084
:1034C400012D1DD14FF0020B3268D55D4FF06042E3
:1034D400D2F8801ECB0711D51146D9F80C0040F064
:1034E4008070C9F80C00D1F8000E40F48070C1F867
:1034F400000E086A0028F0D082F820505D46CAE722
:10350400E21E05F1010B95425FFA8BFB02D15FFAD3
:103514008AF5DBE7A21E954202D1CAF30725D5E757
:10352400621E95420ED0A91EC9B238461CF05AF844
:1035340051460546FDF784FC8246C7E75B254FF0FC
:10354400010BC3E75D25C1E70120B4E7081D002096
:10355400F0ED00E010B50B4B90B0402269461868BE
:10356400FFF7C4FE58B1C1B268461BF0C5FF04465C
:10357400014612200EF064FC20461BF05FFE10B0E2
:1035840010BD00BF601E002042DE704738B50446FF
:103594000D4600F0AFFD03F040FD294620460EF035
:1035A4001BFC2B4622460549222007F007FE29462C
:1035B4002046BDE83840FFF7E7BF00BF5640030090
:1035C4006D4B2DE9F0415A686C4CA2655A6AE2656C
:1035D4006B4AD2F800122166D2F8042262669A6A13
:1035E400A266DA6AE2661A6B22675A6B6267A26B9A
:1035F400DB6B12F0040FA367D4E90F5318BF1D4609
:1036040016F0B6FE002285420346606522655DD34E
:103614005C4A95425AD8AA696264E969A164B4F81B
:103624005810C1F30801062954D157498A4251D38D
:1036340056498A424ED211884DF64262914249D18E
:1036440040F201706268C4F89420A268C4F898201B
:103654004F4A5049934238BF13460A468B423CD3E3
:10366400D31AE3640023C4E91F33C4E92133C4E952
:103674002333484E444FDFF814C1AE4233D8D4E963
:103684001FC7D4E92165D4E923124FF0000E013B92
:10369400DBB2FF2B42D1BEF1000F05D0C4E91FC736
:1036A400C4E92165C4E92312B4F85830C3F308030C
:1036B400052B57D03CD8032B47D0042B58D040F6C9
:1036C4000722013B4B2B98BF104640E000221D46C9
:1036D400C4E911224FF42060BAE71E68B6F1CD3F69
:1036E400BED10433BAE756F8042DBA42C5D36245B5
:1036F400C3D2D107C1D5002104EB010EDEF87CE072
:103704009645BAD004311829F6D10BB9052301E046
:10371400013BDBB204EB8301CA67AEE7E0464FF03E
:10372400010EBC4637462E460D4611464246AEE7CC
:103734000C2B1AD03B2B0CD0062BC0D140F6042303
:10374400B0F5206F08BF184601E040F60120BDE83F
:10375400F081114B9B6913F0020F40F2025318BF22
:103764001846F4E740F60320F1E740F60520EEE7BB
:1037740040F60220EBE700BF00ED00E0000000206F
:1037840000E100E0E01A00204C03000000220300E6
:103794009C000020001B00200080014A042804D063
:1037A40003280CBF0120022070470020704700004E
:1037B4004FF480732DE9F04385B0ADF80C3000244C
:1037C40001F098FC0127DFF84480DFF8449003AB54
:1037D400E35C012218F8336008EBC3035D683046EC
:1037E4000023294603F006FD4946E8B201F090FCA7
:1037F400CDE9007701232A462946304603F0B4FC7C
:1038040014B105B0BDE8F0830124E0E76C40030087
:103814009938000008B5FFF7C1FF022816BF024B14
:103824000020185C08BD00BF0D2F002008B5FFF76D
:10383400B5FF02281CBF014B195408BD0D2F0020F1
:1038440008B5FFF7ABFF022805D0034A135CB3FAAF
:1038540083F35B09135408BD0D2F002008B5FFF74F
:103864009DFF02280FD03021084A12F8303002EBB5
:10387400C0025943064B50685B5823FA00F0C0431A
:1038840000F0010008BD0020FCE700BF6C4003000D
:1038940014C0034070B504460026FFF7DFFF054659
:1038A40001E000261D462046FFF7D8FFA842034644
:1038B400F7D10136052EF2D12046FFF7ABFFA8421F
:1038C4000BD029462046FFF7B1FF2046FFF7A2FFA1
:1038D4000146204608F0B4FF70BD2046FFF7B0FF54
:1038E4002046FFF797FF0146204608F0A9FF20462F
:1038F400FFF7A6FFE9E7000010B504F0E7F9044676
:1039040004F0DCF90022012101FA02F3234014D06F
:103914001B4B33F812301B4A062B13D040F20721FD
:103924008B420DD1184919480C68844208D14CF2D5
:103934003C334B800B88138012E00132102AE3D110
:10394400104AF8E74FF20F010F4B5888884214D100
:103954001988B1F5406F10D211804CF23C325A8074
:10396400084B1A8840F201739A4201BF084B094A76
:10397400D2E90001C3E9000110BD4FF4C061EBE7D7
:103984007C400300182F00200000002007020FF0E5
:10399400102F002094000020014B1888000A704763
:1039A400182F0020014B1888704700BF182F0020E3
:1039B4002DE9F04F4D4C0546A36BD4F850B05A078F
:1039C40047BF0027B846D4F84CB0D4F85480D4F894
:1039D40040A05DBF464FD4F83CA0DFF83C91DFF82F
:1039E4003C9113F0080F434B434A18BF1A46B7EBF8
:1039F40008061FBF6421730801FB0B33B3FBF6F306
:103A040087B01CBF9BB205933C494B46CDE9017A74
:103A1400CDF8008008BF059601F0BEF8B3B2CDE939
:103A240000931FFA8BF2059B3549284601F0B4F840
:103A3400A36B5B070AD49C3E5E4507D1626D314B94
:103A44009A4203D23049284601F0A6F8BA4501D873
:103A5400C24504D24A462D49284601F09DF828461D
:103A640007F0A6FB236E0BB9636EBBB32849284647
:103A740001F07DF800260127DFF8A480DFF8A49088
:103A8400226E07FA06F3134207D058F8262013785B
:103A94001BB14946284601F06AF80136202EEFD1C1
:103AA40000260127DFF87880DFF87890626E07FA45
:103AB40006F3134209D008EB8603D3F88020137869
:103AC4001BB14946284601F052F801361D2EEDD1AE
:103AD400284607B0BDE8F04F01F058B828460D4914
:103AE40007B0BDE8F04F01F057B800BF0000002058
:103AF400001B002083430300B13B03008A430300FF
:103B0400B84303009C000020F14303001D4403005C
:103B14003B4403006A4403007E430300A95D0300A1
:103B2400804403002C5203002DE9F8430446FFF7B8
:103B340039FF40F60123984239D010D840F202539D
:103B440098421DD040F20173984224D040F20153B0
:103B5400984213D16549204601F01EF822E040F650
:103B6400032398426CD03DD340F60423984200F0DE
:103B74009C8040F60523984200F0B580BDE8F883A8
:103B84005B49204601F008F85A4B5B495A6C2046C1
:103B940001F002F806E0574A5849D2E925232046A5
:103BA40000F0FAFF2046BDE8F84307F001BB514D91
:103BB4005349204600F0F0FF95F86C309F0703D579
:103BC4005049204600F0E8FF95F86F305E0603D5B3
:103BD4004D49204600F0E0FF95F96F30002BE1DA03
:103BE4004A49B8E7434D4A49204600F0D5FF95F8C5
:103BF4006830980704D06A6C3F49204600F0CCFF37
:103C040095F96830002B04DA6A6F4249204600F0C7
:103C1400C3FF00260127DFF80881DFF81491AA6E9C
:103C240007FA06F3134207D058F8262013781BB17D
:103C34004946204600F0B0FF0136082EEFD1B1E727
:103C44002C4D3549204600F0A7FF2B496A6C2046CD
:103C540000F0A2FF95F86930590703D52F49204693
:103C640000F09AFF95F96930002B04DA6A6F29494C
:103C7400204600F091FF0826294FDFF8B480AB6E90
:103C8400F340DA0707D557F8262013781BB14146CD
:103C9400204600F081FF0136102EF0D195F86830EF
:103CA400002B7FF47FAF1F4955E7124D1E49204674
:103CB40000F072FF6A6C1049204600F06DFF102678
:103CC400174FDFF86C80AB6EF340DB0707D557F86E
:103CD400262013781BB14146204600F05DFF0136D3
:103CE4001A2EF0D15EE711494BE700BF0D410300E6
:103CF4004A410300000000207A410300934103007D
:103D0400AD410300C5410300FF41030032420300FB
:103D14006E42030093420300B7420300CE42030005
:103D24009C40030014430300444303005D43030029
:103D3400AF4203002DE9F84F06460025154C164FF7
:103D4400DFF85C80DFF85CA023785FFA85FB0BB9B1
:103D5400BDE8F88F57F8043B22461049304600F07E
:103D640006FF227804F1010982B9627882B10BF06E
:103D7400030103290CBF41465146304600F0F7FECB
:103D8400304607F015FA01354C46DDE74C46E8E7C6
:103D94004146F2E774450300040000200441030097
:103DA400A4220300AD62030000F00CB800F00AB8CE
:103DB40000F008B800F006B800F004B800F002B84B
:103DC40000F000B872B61EF0080F09D01EF0040F00
:103DD4000DD0DFF850E0AEE8FF1F6FF002000CE0FA
:103DE400DFF840E0AEE8FF1F6FF00E0005E0DFF8FB
:103DF40034E0AEE8FF1F6FF006006946EFF3098276
:103E04008EE8070086460848084C854501D3A54539
:103E140001D384F30888FFF7D3FB84F3088816F0F2
:103E240083FA000004000020E0110020001B0020A1
:103E3400FFF7C6BF704770477047000000F07E630D
:103E4400B3F17E6F70B505460E46144616D105F0E3
:103E540065FD18B19A210D48FFF798FB22463146BB
:103E6400C5F30B0003F0EEFF044605F063FD5CB1FF
:103E74009D21BDE870400548FFF788BB520816F045
:103E8400F1F908B18F21F4E770BD00BF984C03002D
:103E940037B57F2A14BF154600254BF23462914290
:103EA400044619D17F2241F2020168460823FFF734
:103EB400EFFF082225496846FDF7B5F830B9082315
:103EC4007F2241F2F0116846FFF7E2FF08226946BB
:103ED4002046FDF745F809E041F2F01291421AD16B
:103EE4001B4901388A6CC96C1D1F0BB903B030BD66
:103EF400013B9D4200F8012F4FEA1222F5D1002226
:103F040003349A42F2D00132042A04F8011F4FEA22
:103F14001121F6D1EAE701F47042B2F5805F07D1CE
:103F2400C1F30B0404F17E649AB203FB0541D0E7AC
:103F340001F46042B2F5005FD8D1C1F30B04054926
:103F44009AB2214403FB0511C3E700BF124D0300DD
:103F54000080E00F00E0070070B5054616461C46D9
:103F6400DBB14BF23463994210D1082C28BF0824EA
:103F74007F2241F202012346FFF78AFFA2B20749DA
:103F84002846FDF750F840B941F2F0112346324675
:103F94002846BDE87040FFF77BBF70BD124D03009B
:103FA4002DE9F7430446E0070F46154603D5DD2106
:103FB4003448FFF7EBFAE90703D5DE213148FFF770
:103FC400E5FA04F47043B3F5805F3ED1C4F30B0407
:103FD40004F17E646B1E2C4A23449342264603D983
:103FE400E3212848FFF7D2FADFF8989006EB05089A
:103FF40046453DD1A2070ED04FF6FF7337F8022B8A
:1040040002A943EA0243A01E41F8043D0422FFF73B
:1040140015FF0234023DAB070ED0023D25F001032B
:10402400FB5A02A96FEA03436FEA1343042241F8DF
:10403400043D6019FFF702FF25B12A4639462046A0
:10404400FFF7FCFE03B0BDE8F08304F46043B3F56E
:10405400005F05D10D4BC4F30B041C442646C3E793
:10406400EA210848FFF792FA6FF00F060024BBE735
:1040740016F8013BFF2BBBD0F4214846FFF786FA24
:10408400B6E700BF984C0300FF1FE00F00E00700F5
:10409400FFF78ABE1FB5144A01AB10685168128934
:1040A40003C31A8001238DF804300D238DF80A30E0
:1040B40003230E4C082123208DF80B3002F004FE5C
:1040C40001A9204604F0F5F84FF40061022342F2FE
:1040D4001800074AC2F884112350516041F21C02AF
:1040E400A35004B010BD00BF1A4D03000080014A64
:1040F40000E100E0014804F0CBB800BF0080014AB1
:10410400A52803D10021024804F0B3B8704700BFCA
:104114000080014A024B586800F00100704700BF5C
:104124000080014A024A536A002BFCD1704700BF49
:104134000080014A0020704700207047704700004B
:1041440007B572B602F069FF894B8A495B69402260
:104154008B6000230B764B768B76F023CB760B7734
:104164004B778B77CA77802281F8202081F8213021
:10417400E023602081F822307F4B81F8232083F8EC
:10418400002383F8012383F8022383F8032383F8AD
:10419400042383F8052383F8062383F8072383F88D
:1041A400082383F8092383F80A2383F80B2383F86D
:1041B4000C2383F80D2383F80E2383F80F2383F84D
:1041C400102383F8112383F8122383F8132383F82D
:1041D400142383F8152383F8162383F8172383F80D
:1041E400182383F8192383F81A2383F81B2383F8ED
:1041F4001C2383F81D2383F81E2383F81F2383F8CD
:10420400202383F82103202083F8222383F8232307
:1042140083F8242383F8252383F8262383F827238C
:1042240083F8282383F8292383F82A2383F82B038C
:1042340083F82C0383F82D2383F82E2383F82F236C
:1042440083F8302383F8312383F8322383F833232C
:1042540083F8342383F8352383F8362383F837230C
:1042640083F8382383F8392383F83A2383F83B23EC
:1042740083F83C23CB6823F4E0631B041B0C43F05A
:10428400BF6343F40133CB604B6943F010034B61CC
:104294004FF4E0234B6204F0F7FEFFF72DFBEFF33E
:1042A40008834FF0CD31354A043B93425DD2344A02
:1042B400002192B23348FCF7AFFE62B6684603F0C1
:1042C400E9FD314B9B6DDB0318D4304A136823F4AA
:1042D400FF0323F4FE4343F4BC1343F4A0631360CD
:1042E40052F8043C23F4704343F4404342F8043C42
:1042F40052F8043C43F4E06342F8043C9DF8013076
:10430400012B0FD19DF8003063B94FF000531B68A7
:104314001F4B1B681F4B1B681F4B1B681F4B1B68E5
:104324001F4B1B681F4AD2F8803043F00303C2F8C6
:10433400803002224FF040231A6704F0EBFD01F0B5
:10434400E3FA002300938DF80430012368468DF8C6
:10435400033002F0FEFE00F027F916F037F8124899
:104364000EF0CCF803B05DF804FB1960043B9CE745
:104374005400000000ED00E000E100E0A011002086
:10438400D4100000A000002000C0004034C0004051
:10439400004000200080002000C000200000012018
:1043A4000040012000800040B478030040F2016026
:1043B40015F0BABFFEF7F2BD08B500210B20FEF7D9
:1043C400EBFDBDE80840FEF7EABD032000F078BA33
:1043D40008B5FFF7E1FA044B0B289ABF00B203EBD0
:1043E4008000184608BD00BF6A4E030008B5FFF7F9
:1043F400D9FA044BC0F30F2253F82230C0B203EBB6
:10440400800008BD344E030010B5FFF7C5FA04461A
:10441400FFF7C8FAC0B228B9012C24D164F07F0494
:10442400E4B216E0072CF9D801A353F824F000BF36
:104434005744000021440000554400005B44000040
:104444005B4400005F4400006344000067440000D4
:104454000924204610BD0224FBE70324F9E70B24BA
:10446400F7E70624F5E70446F3E700BF07282DE93C
:10447400F84F04460F462DD0082808BF02242146D1
:104484000120FCF71DF9FFF745FE651ED5F1000874
:1044940048EB050800B3012C1ED1A520FFF730FE20
:1044A4002646EFF31089012383F31088EFF3118A72
:1044B4004FF0000B8BF31188354D404607F040F95F
:1044C400631EC5F800B0042B59D8DFE803F00E4D85
:1044D4004D5155000324D2E7FFF71CFE18B1FFF736
:1044E40021FE0026DDE70646DBE72A4A136923F0AE
:1044F4000403136130BF284AD2F82434D2F82024AC
:1045040013409BB2254A2B60D2F80011480102D512
:104514001168490106D4D2F80011880105D5126842
:10452400910102D543F480332B601C4BD3F8002156
:10453400520506D51B685B0542BF2B6843F4003364
:104544002B601EB10121164803F093FE404607F08C
:104554002DF9CFB18AF3118889F310882146BDE87B
:10456400F84F0020FCF7ACB8012002F0C5FDC2E70B
:10457400012002F0D5FDBEE702F0D4FDBBE788219F
:104584000848FFF703F8B6E787F31088E6E700BFAB
:10459400242F002000ED00E000C0034000E100E013
:1045A4000080014A9A4E030042F22041044AD2F8A4
:1045B40020341B0C1B045350024A1360704700BF85
:1045C40000C00340202F00200021FFF74FBFFFF75A
:1045D400FBBF00002DE9F04F89B00DF083FF0746C3
:1045E400002840F0DD806F4E6F4D3168286815F06B
:1045F40085F80446002827D033683C46D3E90001F7
:104604009A6912689047336804A89B699B68984725
:10461400336802209B69DB689847326805985368C1
:10462400E7B2B3FBF0F3BB42916904F1010442D851
:10463400CB680020984733689B695B68984731686A
:10464400286815F05BF804460026DFF88891002CF2
:1046540053D1564B4FEA8608F35C002B31D1A24666
:10466400534BF35C0193534B03EB080B019B5FFA31
:104674008AF7BB42286853D84F4BF35C002B3CD0DD
:104684004C4B019F9844FBB27E2B286835D8D8F850
:10469400003003AA07EB030A514602AB15F068FA8F
:1046A40048452AD05146286815F0A8FA013704462F
:1046B4000028E8D021E012680B6907FB0020984726
:1046C400ABE73C4B03AA53F82670286802AB394683
:1046D40015F04EFA484507D078B9039B012B0CD04E
:1046E4003946286815F08AFA344B394653F80830AD
:1046F40028681A6815F066F904460136232EA6D1F7
:10470400B4FA84F32E4A5B0913702E4B9C4241D0B9
:104714002DD8002C32D0013B9C423FD0C5242DE043
:10472400DBF8003003AA1F44394602AB15F020FA27
:1047340048450AD010B10AF1010A97E7039B8BB9E7
:10474400214B029AF35C9A42F5D01F4B1B4A9B5DA6
:1047540052F808203946286815F0A6F80028EAD04F
:10476400044689E73946286815F048FAEDE7174BFF
:104774009C4211D004339C42D0D1C1242B681B7CB1
:1047840023B14FF489711248FEF700FF204609B0A7
:10479400BDE8F08FC324F1E7C424EFE7C224EDE7BA
:1047A400C624F3E7B81E0020B41E0020BC28030072
:1047B4000C28030004290300DF2803003028030029
:1047C400282F002002E000F09029030004E000F00C
:1047D400164F03000BE000F0222970B506460C4684
:1047E40015461AD8144A127822B3144A1068144A87
:1047F40052F82110134A125D3AB1324615F030F9DD
:10480400C0B1BDE87040FCF72ABB7F2D08BF00256E
:104814003246294415F092F8F2E7FF2903D9BDE89E
:104824007040FFF799BB40F24511BDE8704006485F
:10483400FEF7ACBE70BD00BF282F0020B41E0020C0
:1048440004290300BC280300164F03002228F8B5EE
:1048540004460D46164619D81449097829B3144953
:10486400144F0868144951F824103C5D3CB1126897
:1048740015F0A8F8C8B1BDE8F840FCF7F0BA7F2DF0
:1048840008BF0025294415F00FF8F3E7FF2805D9E0
:104894001A463146BDE8F840FFF782BB4FF4BC71BD
:1048A400BDE8F8400548FEF771BEF8BD282F00208A
:1048B400B41E0020BC28030004290300164F030083
:1048C40008B5084B1B7863B1074B002253F820103E
:1048D400064B186815F004F918B1BDE80840FCF758
:1048E400BEBA08BD282F002004290300B41E0020EE
:1048F40070B5164685180AB9304470BD01F00F032F
:104904000A2B34BF30243724013A2344090905F81B
:10491400013DD2B2EFE70000F0B5F9B100281CDA8E
:104924002D23B0F1004F137000D04042012115E057
:10493400801B8642ECB205F10105F9D904B927B10F
:1049440001274D1C30345454E9B20133092B09D1E9
:10495400303050540131C8B2F0BD002100231F464D
:10496400DFF808C05CF823600025E2E78C4F030001
:104974002DE9F04F4FF0000B95B002AC81468A460A
:1049840017461D465E46A0463B7863B902ABE41A5F
:10499400E4B2224619465046C847002840F09380A6
:1049A4003444E0B290E0252B13D0BBF1000F14D1B6
:1049B4002370013412AB9C426DD3A4EB0804E4B21F
:1049C400224641465046C84700287CD12644F6B2C8
:1049D40060E0BBF1000F00D101373B78632B00F09E
:1049E40092801BD8392B09D8302B80F09E80002B65
:1049F400CCD0252B51D04FF0000BDBE7582B00F027
:104A04008B80622BF7D14FF0000B2B6801936B68FE
:104A14000093009B9B4543D10835ECE7702B1ED0D7
:104A240017D8642B01D06C2BE5D16C2B05F1040B4A
:104A340028686CD17B78752B14BF0121002101D02B
:104A4400642B00D101372246FFF766FF04445D461C
:104A5400D1E7752BE9D0782B5ED0732BCBD1A4EBA7
:104A64000804E4B2224602A9504605F1040B2D685D
:104A7400C84740BB2644F6B2C4B22B5D0130002BBC
:104A8400FAD1224629465046C847E0B95D468346D6
:104A94002644F6B24446013776E723700134AAE788
:104AA400019B204613F80B100222FFF721FF12ABE3
:104AB400984204460ED3A0EB0804E4B222464146D1
:104AC4005046C84718B1002015B0BDE8F08F264401
:104AD4004446F6B2009B013B5B4582BF2023237012
:104AE400013412AB9C420BD3A4EB0804E4B222467B
:104AF40041465046C8470028E5D126444446F6B20C
:104B04000BF1010B85E72B6804352370C6E7752B81
:104B14000CBF0021012196E7204602222978FFF7E5
:104B2400E7FE05F1040B044691E77A7802F0DF0210
:104B3400582A19D1322B07F1010B09D1042220463E
:104B440029882F1DFFF7D4FE3D4604465F4652E7F1
:104B5400342B09D12F1D2D680422290C2046FFF780
:104B6400C7FE0422A9B2EDE74FF0010B22E70EB411
:104B740003B503AA52F8041B019206F0CDFEC0B29D
:104B840002B05DF804EB03B0704700000149FFF781
:104B9400EEBF00BFA42203000EB433B505AA52F839
:104BA400041B0546019206F0B7FE04462846FFF7AB
:104BB400EDFFE0B202B0BDE8304003B0704708B585
:104BC40006F0AAFEC0B208BD2DE9F04F9B46584B33
:104BD40085B01B78064689461546109F9DF844A06B
:104BE400DDF85080002B00F09280072A00F29180BB
:104BF4000E9B002B00F08D800F9B002B00F0898012
:104C0400129BB3F5006F00F38480012801D1002FBB
:104C14007FD0484B03EB05131B7B002B7BD0464C0A
:104C24001022002168462DF0C5FA04EB4514102229
:104C3400B9F1000F5CD1494620462DF0BBFAA378A8
:104C440043F01003A370E37843F03003E370BAF148
:104C5400000F03D1DBB243F00303E37036496A016A
:104C6400129B885A013B63F30E100E9B01EB020C5E
:104C74008852CCF808300F9B9DF84C10CCF80430C7
:104C84009CF80330012E61F38303CDF800B08CF857
:104C9400033042D113230CF1100ECCF80C309CE8F5
:104CA4000F008EE80F006FF00301DCF81C20B9F14F
:104CB400010F61F39F02CCF81C20CCF8147004D1CE
:104CC4000F9BCCF80470CCF81830002719492A013E
:104CD4008B1841F80280159A28465A609F605E73CB
:104CE4002246694602F050FF384605B0BDE8F08F11
:104CF400002120462DF05EFA1023A3700323E370F5
:104D0400BAF1000FAAD1DBB243F03003A5E70B4898
:104D1400EBE70B48E9E70B48E7E7B8F1000FD4D11C
:104D24009CF8023068F304138CF80230CDE700BF1E
:104D3400AC3000202C2F0020AC2F0020028000F08B
:104D4400018000F0078000F038B5104B05461B7851
:104D5400BBB1C0B102F069F900230D4901EB0312A4
:104D6400147B3CB92B6001231460137302F063F9C4
:104D7400204638BD0133082BF0D102F05CF9054818
:104D8400F7E70548F5E70548F3E700BFAC30002036
:104D94002C2F0020048000F0028000F0018000F03D
:104DA40038B502F042F9002305460A4AD1180C7BB3
:104DB4005CB91033802BF9D102F098FE064B2846DB
:104DC4001C7002F038F9204638BD284602F033F949
:104DD4000248F9E72C2F0020AC300020058000F0B9
:104DE4000D4B10B51B78044693B1072812D802F076
:104DF4001CF90A4B03EB04131A7B2AB100241C731D
:104E040002F019F9204610BD02F015F90448FAE73A
:104E14000448F8E70448F6E7AC3000202C2F0020C3
:104E2400068000F0028000F0018000F0164B13B5FC
:104E34001868002301908DF8043002F0F6F8134B43
:104E44001C7824B102F0F7F8114802B010BD012219
:104E54001A7002F0F0F80F4B1C731C7783F82C4087
:104E640083F83C4083F84C4083F85C4083F86C4002
:104E740083F87C4004230DEB03008DF8073002F027
:104E840059FE2046E1E700BFB04F0300AC300020DC
:104E9400038000F02C2F002010B588B00E9C0092E7
:104EA40007940D9C024606949DF8304005940B9C93
:104EB40004949DF8284003940024CDE9013420464D
:104EC4000B462146FFF780FE08B010BD10B588B030
:104ED4000E9C009207940D9C024606949DF8304067
:104EE40005940B9C04949DF8284003940024CDE978
:104EF400013420460B460121FFF766FE08B010BDC1
:104F040008B50A4B1B785BB107280BD8084B03EB99
:104F140000131B7B43B1002102F0FCFD002008BDFF
:104F24000448FCE70448FAE70448F8E7AC300020FA
:104F34002C2F0020028000F0018000F0078000F098
:104F440008B50A4B1B785BB107280BD8084B03EB59
:104F540000131B7B43B1012102F0DCFD002008BDDE
:104F64000448FCE70448FAE70448F8E7AC300020BA
:104F74002C2F0020028000F0018000F0078000F058
:104F840008B50A4B1B7853B107280AD8084B03EB22
:104F940000131B7B3BB102F047FE002008BD05480F
:104FA400FCE70548FAE70548F8E700BFAC30002005
:104FB4002C2F0020028000F0018000F0078000F018
:104FC4000D4B1B7893B1072812D889B10B4B03EB17
:104FD40000131B7B73B10A4BDA6A012303FA00F056
:104FE40010401ABF00200B700870704705487047C6
:104FF4000548704705487047AC3000202C2F00202E
:1050040000000440028000F0018000F0078000F0FE
:105014000B4B10B51B780C4663B107280CD859B15B
:10502400084B03EB00131B7B43B102F00FFE20601F
:10503400002010BD0448FCE70448FAE70448F8E7F8
:10504400AC3000202C2F0020028000F0018000F002
:10505400078000F02DE9F843174B1F6D5B6D1F406F
:1050640000D5FEE701260025144CDFF85480DFF854
:105074005490374217D02368C8F800609BB1A168E8
:1050840062680131A16028469847637B012B0AD1ED
:1050940048B909EB4513197B1A7F60F3410160F3AA
:1050A400410219731A770135082D4FEA460604F1B7
:1050B4001004DED1BDE8F883000004402C2F00204A
:1050C40050200440AC2F002070B504460125084E42
:1050D40004B970BD94FAA4F0B0FA80F005FA00F3B4
:1050E40024EA030456F82030002BF1D09847EFE768
:1050F400B03000204FF00072044BC3F880211A60D6
:105104004FF08062C3F880211A60704700E100E02C
:1051140038B504460D4601F088FF034B43F824508C
:10512400BDE8384001F087BFB0300020084BD3F809
:105134002404D3F82024104042F2204220F42A50C0
:1051440020F02A004004400C9850FFF7BDBF00BF78
:1051540000C00340084BD3F82404D3F820241040A3
:1051640042F2204220F4AA4020F055000004000C32
:105174009850FFF7A9BF00BF00C00340104A30B5E4
:10518400136841611546ABB91060836011E0091BD7
:105194009C6841611A467CB123465C698C42F6D90D
:1051A400002CF4D052B19060836013B15A69511A43
:1051B400596130BD0022F0E72346F4E72860F3E7A5
:1051C4000431002010B500F0AFFA094B094A196800
:1051D40031B11368C41A4B69A34203D31B1B4B613F
:1051E400106003E0C01A002310604B6110BD00BFC3
:1051F40004310020F4300020074B10B51B68022056
:105204005C69064B1B681C4400F0C2FA2046BDE8EA
:10521400104000F091BA00BF04310020F4300020A7
:1052240070B59DF81450164605710025049A8560E2
:10523400BDF818500446C5800260C0E903360D4627
:1052440029B961610BB11146984796B1354601F011
:10525400ECFE0646FFF7B6FF29462046FFF78EFF11
:10526400054B1B68A34201D1FFF7C6FF304601F08E
:10527400E2FE002070BD00BF0431002000210C4A72
:1052840013687BB183420AD1836879B18B608368E8
:105294001BB15A6941690A445A6100207047194692
:1052A4009B68EEE70028EFD0022070471360EEE71A
:1052B4000431002070B501F0B8FE114D06462C787B
:1052C400CCB9104B1C60104B1C60104B1C8000F0C0
:1052D400F1F9012000F05CFA00F0A8FA0C4B024648
:1052E400186040F2E73123460A482CF081FD0A4B4E
:1052F400186001232B70304601F09DFE002070BD24
:10530400F030002004310020F4300020FC30002074
:105314000031002018FCFFFFF83000202DE9F04197
:105324000546F8B101F081FE0F4F0646FFF74AFF2C
:105334002846D7F80080FFF7A1FF044628B130467D
:1053440001F079FE2046BDE8F081A8453B6803D111
:1053540023B1FFF751FFF2E7002BF0D1022000F058
:1053640023FAECE72224EDE704310020F0B50D46E2
:1053740085B016461F46044680B1FFF7CFFFBDF83F
:105384002C30002202939DF828302946CDE9007381
:1053940020463346FFF744FF05B0F0BD2220FBE76B
:1053A40038B50C46054698B191B100230B7001F055
:1053B4003CFE0121074B1B680BB122781AB101F0A6
:1053C4003AFE002038BD9D420CBF21709B68F3E774
:1053D4002220F7E704310020F0B51F46002387B0F0
:1053E4000D4616468DF817300446A0B10DF117018D
:1053F400FFF7D6FF9DF817207AB9BDF83430294657
:1054040002939DF830302046CDE900733346FFF710
:1054140007FF07B0F0BD2220FBE70320F9E70000F7
:10542400F8B50C460646C8B1C1B101F0FEFD05460B
:10543400FFF7C8FE73692360134B1B68B3420FD098
:1054440023B9284601F0F7FD03201CE059692268BE
:105454009B680A442260F1E700230FE0222012E057
:10546400276800F061F9094E3368C01A8742F3D9FE
:1054740000F05AF93368C01A23681B1A28462360BF
:1054840001F0D9FD0020F8BD04310020F4300020E3
:1054940070B501F0CAFD064600F046F9094B054611
:1054A4001C880120A4B200F097F918B100F03CF96F
:1054B40005460134304601F0BEFD0022214642EA91
:1054C400050070BDFC3000200A4B10B51B680C466B
:1054D40083420CD3084B4FF47A7219680023A0FB63
:1054E40001012CF085FC01302060002010BD21203A
:1054F400FCE700BFF830002000310020104B10B54D
:105504001A684FF47A73A0FB0301A2B1531E13422D
:1055140011D1B2FA82F2C2F11F02C2F12004A2F147
:10552400200301FA04F420FA02F2224321FA03F3DD
:1055340042EA030010BD00232CF05AFCFAE700BF36
:1055440000310020F8B516461BA3D3E900238B4293
:1055540008BF82422AD3174B1A684FF47A73A0FB10
:10556400034503FB0155C2B1531E13EA020014D1D3
:10557400B2FA82F2C2F11F02C2F12007A2F12001A5
:1055840024FA02F305FA07F73B4325FA01F10B432A
:1055940025FA02F2C6E90032F8BD00232046294666
:1055A4002CF026FCC6E900010020F5E72120F3E7F2
:1055B400AFF3008000310020EFA7C64B37894100CC
:1055C400C2072DE9F84F04460BD5374A1388013337
:1055D4009BB21380FFF7F6FD344B1B680BB1FFF74A
:1055E4000BFEA3075DD500F09FF8314E07463568E2
:1055F4004FF0000A451B01F018FD8046DFF8AC901F
:10560400D9F80040002C48D06369AB4209D95D1B2E
:1056140065613760FFF7F0FD4046BDE8F84F01F0E3
:105624000ABD23462A4637605969914209D8187938
:1056340094F804C0521A844588BF1C469B68002B0A
:10564400F2D1404601F0F7FCD4F81480C4F814A059
:1056540001F0EBFC83462046FFF710FE584601F0AC
:10566400EAFC23694BB101F0E0FC83462169204642
:10567400FFF784FD584601F0DEFCE36813B12168AE
:105684002046984700F050F84744ED1B0446054473
:1056940001F0CBFC27468046B2E7022000F084F8F4
:1056A400BAE7BDE8F88F00BFFC30002004310020C9
:1056B400F43000201FB50024184B18689A88029013
:1056C40053F8060FADF80C201B79009002A88DF852
:1056D40004308DF808408DF80C4002F041FB694617
:1056E40001208DF8004002F0FFFA4FF090431F2193
:1056F4009A6922F01F029A61094A11609A6A12F0AB
:105704000802FBD11A62012002F008FB4FF4806208
:10571400044BC3F880211A6004B010BDB44F0300D9
:105724001420004800E100E04FF090439A6A120709
:10573400FCD4186A704700004FF09042936A19072E
:10574400FCD4136A116C5269120704D4CA1A022ACF
:1057540001D899420ED1C21A012A98BF981CB0F1FF
:10576400FF3F28BF01304FF0904318649A6942F01C
:1057740008029A61054A13783BB14FF09041CB6B14
:1057840043F00203CB63002313707047681E0020AC
:1057940082074FF0904200F00103916948BF43F043
:1057A40008030B4393617047830700F001020AD595
:1057B4000121084B42F0080219704FF09041CB6B65
:1057C40023F00303CB634FF090418B6923EA020378
:1057D4008B617047681E00204FF0904301285B697D
:1057E40004D0022805D1C3F3C000704703F00100C0
:1057F400704700207047000010B501F016FC4FF010
:10580400904304465B691A07074A03F0010003F05A
:105814000D0348BF40F002001360FFF7D1FE20469D
:10582400BDE8104001F007BC142000481B2001F023
:105834000DB90000002211462D48F0B503682D4D26
:1058440054592CB11E68AC18002E3DD123460121B9
:105854000832282AF4D101B10360002214462649F3
:10586400264E0B6895592DB11F68B518002F32D1FB
:105874002B4601240832282AF4D104B10B600068B5
:105884000368002B2FD04FF04022936F007923F050
:10589400FF7323F4803343EA00439367184B4FF0BC
:1058A400004209681A600B68FBB14FF04022936F05
:1058B400097923F4FF7323F001030B439367104B1F
:1058C4004FF080421A60F0BD1E792779B74284BF39
:1058D40023460121BCE71F7995F804C0BC453CBFB1
:1058E4002B460124C6E7074BD9E7064BE8E700BF80
:1058F4000C3100201C3100201031002044310020E4
:10590400685000406860004010B5012228240F4B05
:1059140000211A700E4822462CF04CFC224600212D
:105924000C482CF047FC0C4B0C4A13600C4A1360D7
:105934004FF040430B4A1360536020220A4BC3F8D4
:1059440080211A60FFF776FF002010BD0831002087
:105954001C31002044310020143100200C3100207F
:10596400103100206460004000E100E04FF040226C
:10597400D2F88800D2F88830C0F38800C3F38803D3
:105984009842F5D16FF48873184440B27047000010
:105994004FF04022936E526E10B5134013F08042C4
:1059A40011D0114B1B681C682CB10021196059607F
:1059B400FFF7DCFFA0474FF080420C4B1A60BDE8B4
:1059C4001040FFF737BF002BF9DA094B1B681C683E
:1059D4002CB11A605A60FFF7C9FF0121A047034B9D
:1059E4004FF00042EAE700BF10310020646000403D
:1059F4000C310020FFF7CCBF012203685A619A6979
:105A0400D207FCD541F2AC52042103795B0103F1C6
:105A1400804303F5703399507047000038B141B1A9
:105A2400013AB2F5006F044838BF002070470348BC
:105A340070470148704700BF037000F0027000F027
:105A440038B504460D4601F0F0FAA28892B222B9A4
:105A54002A6001F0F0FA064838BD1422638802FB7C
:105A6400034308332B6001F0E6FA0020F4E700BF9B
:105A74000B7000F038B504460D4601F0D6FAA38841
:105A84009BB223B92B6001F0D6FA0C4838BD14221E
:105A94006388E18802FB034308332B6063885A1C44
:105AA40092FBF1F301FB13239BB26380A388013BB8
:105AB4009BB2A38001F0BFFA0020E7E70B7000F06F
:105AC40090F83130022B0BD13022437F90F8210023
:105AD4005A43044B9B5823FA00F000F0010070472E
:105AE4000020704714C00340002313B51C4A52F829
:105AF400234094F8211081420ED00133042BF6D1B7
:105B040002B010BD0028FBD19DF80730002BF7D060
:105B1400A068FFF7F5F9F3E794F83130022BEFD1E1
:105B24002046FFF7CDFF637E2076022BE8D194F860
:105B34002E3003F0FF02002BE2D102A901F8012D5F
:105B4400A068FFF73DFA237E1BB194F82F30002B99
:105B5400D8D00023A06884F82F30FFF7F1F9CFE7FD
:105B64006C310020012230B590F8324087B080F8C3
:105B74002C207CB9094D0368CDE9024504904C689A
:105B84002433CDE900240A684169C068FFF79EF90F
:105B940007B030BD002380F82C30F9E755640000CD
:105BA400012330B590F8324087B080F82D307CB9AD
:105BB400094D0268CDE9024504904C683C32CDE9B8
:105BC40000340B6801698068FFF766F907B030BDDF
