S017000045465233324D4732315F53656E736F722E733337CB
S214000000001B0020259D0100913800009538000057
S214000010A70B0000000000000000FFFF54000000D7
S21400002004180F00000000000000000000000000A0
S21400003000000000000000000000000000000000BB
S214000040000000000000000000000000A701000003
S20800005000000000A7
S214000054001B0020259D0100913800009538000003
S214000064A70A0A010002000004180FACA067A70143
S2140000740000000000000000000000000000000077
S2140000840000000000000000000000000000000067
S2140000940000000000000000FFFFFFFFFFFFFFFF5F
S2140000A4FFFFFFFF006007000000000000000000E4
S2140000B4FFFFFFFFFFFFFFFF8000000000000000BF
S2140000C40000000000000000000000000000000027
S2140000D40000000000000000845300208453002029
S2140000E4001B0020A49E0300E81C0300A0110020AF
S2100000F47411002000E00700000000006F
S214000200001B0020259D0100913800009538000055
S214000210158C000099380000A1380000239D0100CD
S214000220239D0100239D0100239D0100239D0100C5
S214000230A5380000239D0100239D0100239D010099
S2140002401839000018390000183900001839000065
S21400025018390000E154000011620000183900004F
S2140002601839000018390000E5520000B9B1000046
S214000270183900001839000018390000F1B10000E4
S214000280183900001839000018390000239D0100B5
S214000290183900003D4B00001839000018390000DE
S2140002A0183900003D4C0000154C000018390000BD
S2140002B0183900001839000018390000F5760100DA
S2140002C0817601007D760100BD6D0100F1760100AA
S2140002D085760100A576010089760100239D010040
S2140002E0397701001839000018390000793B000002
S2140002F0183900001839000018390000239D010045
S21400030018390000183900001839000018390000A4
S2140003101839000018390000183900001839000094
S2140003201839000018390000183900001839000084
S2080003301839000073
S214000334F8B500BFF8BC08BC9E467047F8B500BFC9
S214000344F8BC08BC9E46704710B5054C237833B9F4
S214000354044B13B1044800E000BF0123237010BD12
S21400036488240020000000001495030008B5034B01
S2140003741BB10349034800E000BF08BD00000000AD
S2140003848C24002014950300154B002B08BF134B38
S2140003949D46A3F5803A00218B460F461348144A1F
S2140003A4121A31F07BFC0F4B002B00D098470E4BF3
S2140003B4002B00D098470020002104000D000D48B3
S2140003C4002802D00C4800E000BF31F029FC2000D1
S2140003D429000BF05BF931F00FFC00BF00000800A9
S2140003E4001B0020000000000000000088240020FD
S2140003F484530020000000000000000030B50024F4
S214000404144D85B02C700CF03DF8022817D10090DE
S2140004140DF10E032246032101200DF056FABDF815
S2140004240E0048B1204603F078FA4FF47A61284665
S2140004341EF060FA05B030BD03F06EFAFAE709F074
S214000444A1FB054B0090054A054901200EF02EFC41
S214000454F0E700BFC8430020B9340300E81C0300DB
S214000464ED1C030008B50CF00DF802280CD1002290
S214000474064B01201A7008F09BFABDE808400246B5
S214000484034901200EF012BC08BD00BFC043002083
S214000494011D0300704738B5C37B05460BB18320A6
S2140004A438BDC47C2CB902F0D3F920B9EB7B002B01
S2140004B4F5D18120F4E72046F2E738B5C37B05463C
S2140004C40BB1832038BDC47C6CB9017D82898B1C3A
S2140004D49A420AD380680DF042FF08F027FA30B932
S2140004E4EB7B002BEDD18120ECE78020EAE7204669
S2140004F4E8E7C37B10B504460BB1832010BDC37C6C
S2140005041BB1012B10D08120F8E7017D82898B1C5A
S2140005149A420CD380680DF022FF08F0F3FB40B932
S214000524E37B002BE9D1EEE708F004FCF7E7802034
S214000534E4E70020E2E738B5C37B0446002B437D9E
S21400054414BF8325C325012B0FD10368028A59885B
S21400055458790CF0F3FC40B123685B88032B2DD14B
S2140005642046BDE83840FFF7A8BF637D33BB236849
S214000574228A598858790CF0D8FCF8B123685B882D
S214000584B3F5806F15D009D8032B19D0252B10D0BE
S214000594A3B92046BDE83840FFF77DBF40F20542C8
S2140005A4934206D0B3F5A06F03D040F202429342C2
S2140005B404D1E37B002B14BF83258125284638BD50
S2140005C42046BDE83840FFF794BF0120704701205D
S2140005D4704701207047704700207047002070471E
S2140005E400207047002070470020704700207047A6
S2140005F4002070470120704701207047B5207047DF
S2140006040020704700207047002070470020704785
S21400061470470020704700207047704700207047DE
S214000624842070477047002070477047704700204A
S2140006347047704700207047012070470246024901
S21400064401200EF033BB00BF221D03007047704725
S2140006540020704700207047034B1B681878012859
S21400066408BF0220704700BF343C002000207047BB
S21400067403460120024AC3E9032000221A70704789
S2140006840100FEFF704700207047002070470020DE
S214000694704700207047002070477047B5207047A9
S2140006A4002070470020704700207047704770474E
S2140006B4B5207047704770477047002070477047F2
S2140006C4704700000023FF21084A137082F8783030
S2140006D482F8653082F8773082F8793082F87A10BA
S2140006E482F87B30024A1360704700BFA4240020BF
S2140006F4D0430020F8B50D468C680A68064628499B
S214000704202003F0A6FF6B687BB92649202003F05F
S214000714A0FF20200AF0C0FA2349202003F0AEFFF1
S214000724BDE8F84020200AF0B7BA002EF1D01F4DDD
S2140007341F4E204F013C14F8013F23B91A492020CC
S21400074403F09CFFE5E7752B18D0762B18D0772B93
S21400075418D0732B18D0722B18D0712B18D0622B8C
S21400076418D06E2B18D02A2B18D01349134A212BD5
S21400077418BF1146202003F06CFFDCE72946F9E792
S2140007843146F7E73946F5E70D49F3E70D49F1E752
S2140007940D49EFE70D49EDE70D49EBE70D49E9E7AC
S2140007A4F54C0300DD1D03008E1D03009B1D030096
S2140007B48F1D0300A61D0300E71D0300E41D0300B0
S2140007C4B21D0300BC1D0300C71D0300D21D030099
S2140007D4DC1D0300E11D0300F0B50026204A92F854
S2140007E47B30184452FA80F090F865C090F8665052
S2140007F430461C4BA5EB0C051F78EDB2F4B2A542AF
S21400080425D90CEB060313445B7811B10CB92D2BD8
S21400081417D0782B1FD0582B05D108B137240AE0FF
S214000824013C012C14D9602B17D8402BF6D83A2B50
S21400083434BF302400241B1BDBB29F4203D900FBC9
S21400084407300136DAE70523002082F87930F0BD58
S21400085410270020F5E70028E2D05724EBE700BF76
S214000864A4240020981C0020FFF72CBF034B93F809
S214000874770093F87B30C01AC0B27047A4240020D7
S2140008840021FFF7A9BF000010B50A4B93F87B20A0
S214000894024453FA82F292F8652013445C78A4F179
S2140008A42D0359425941FFF797FF2D2C08BF4042AC
S2140008B410BD00BFA424002030B50C4A92F87B304B
S2140008C40344C043DBB2C00F39B1D51895F866406F
S2140008D495F86550641B241A0C7042FA83F393F857
S2140008E465301844024B184430BD00BFA4240020D1
S2140008F4A5240020F7B515460E460DF107011C4643
S214000904FFF7DAFF9DF807300746AB4288BF8DF83D
S21400091407501CB19DF807402C1BE4B22246304613
S214000924002100F079FB30199DF80720394600F0C5
S21400093417FB9DF8070003B0F0BD38B50C4601233D
S2140009440822FFF7D7FF04F10803621E043413F8E5
S214000954011D12F8015FA3421D701170F7D138BD56
S21400096438B5054601460120FFF7C4FED5E9014324
S2140009746CB91C46084D236863B12946202003F051
S21400098468FE21460020FFF7B5FE0C34F3E71B781B
S2140009946E2BEFD038BD00BF2A6D030008B504499E
S2140009A4202003F056FEBDE8084020200AF074B963
S2140009B44F1D030038B5FFF7F1FF0024054D6119FC
S2140009C40C34631953F80C3C03B938BD0020FFF708
S2140009D491FEF4E7E42A03002DE9F84F1F4B204D5F
S2140009E453F820201F49202003F033FE2B681BB940
S2140009F4BDE8F84FFFF7DEBF1B4FFFF7CFFF00261B
S214000A04B946DFF86CA097F87B30F4B2013B9C4201
S214000A1404DB2868BDE8F84FFFF7A2BF47FA86F361
S214000A2493F8658000234C44C84494F8662094F8F0
S214000A34651003F1010B521ADBB2D2B2934205D30E
S214000A440A49202003F005FE0136DCE743445A78C1
S214000A545146202003F0FDFD5B46E6E79C1C002083
S214000A64D04300204A1D0300A42400202B6D03005D
S214000A74B06F03002DE9F74F884C94F87730002BBD
S214000A8400F0A180864B671C1B7813F0010F1FD063
S214000A940025844E14E0631993F8662093F86530B5
S214000AA42020D21A44FA85F393F86510D2B239445A
S214000AB40AF0EDF83146202003F0CBFD0135EDB207
S214000AC494F87730AB42E6D87749202003F0C1FD8E
S214000AD4002694F87730DFF8DCE10193734B4FF08F
S214000AE40008714645461EF8012B91F801C007EB35
S214000AF4020AACEB020C5FFA8CFC1868002852D091
S214000B040138D14619E02AB9002D4AD04FF0010821
S214000B140C33F2E719F8011BA1F1410BBBF1190FD5
S214000B2498BF2031A2F1410B98BFC9B2BBF1190F8F
S214000B349CBF2032D2B28A42EAD1A9EB0A016145AF
S214000B4410F8012FDFD1002ADED11D46584B01369E
S214000B541D6094F87B30F6B2013384F87B30D5E917
S214000B640123002A35D01B786E2B31D03F2B23D09F
S214000B744FF000094FF0070BC846042394F877108B
S214000B84AA68B14212F808702BD8AFB1904498F80E
S214000B9401302A2B10D0212F1CBF032384F8793070
S214000BA40AE01D46B4E7B8F1000F01D1002DCDD1FF
S214000BB40223002584F8793094F87900002869D156
S214000BC468680DF0BBF803B0BDE8F04FFFF77ABDD8
S214000BD41346019AB24282D803221D4684F879202D
S214000BE4EAE7732F09D8712F0BD2212F1FD0622F5B
S214000BF43CD0002F4BD1032246E0A7F17502022A0F
S214000C0445D8752F29D0762F2AD0732F2BD0722F44
S214000C1447F6FF7A18BF4FF0FF3A01214846019382
S214000C24FFF7DAFD5045019B01D984F87930AA68AC
S214000C34424452782A2A94F879201CBF08F1010805
S214000C445FFA88F8002AB7D1212F1FBF013609F1B1
S214000C540109F6B25FFA89F990E74FF0FF0ADCE77C
S214000C644FF6FF7AD9E74FF07F0AD6E794F87B2051
S214000C744A4454FA82F292F8652022445278222A90
S214000C84D5D07B2AD3D0052284F87920CFE784F800
S214000C9479B0CCE7FFF7A0FE95E700BFA4240020B8
S214000CA4202500202B6D03008C1D0300E42A03007E
S214000CB4D0430020092500202DE9F34106460D46C1
S214000CC44FF000085C4C5D4F66B90DF107012846ED
S214000CD409F0D8FF78B1262800F0A980012384F80B
S214000CE479304BE0002D00F0A28016F8013B013D60
S214000CF48DF80730EDB23A789DF807300D2A3B7030
S214000D0401D10A2BE0D00D2B0CD0A3F10A025142DC
S214000D14514122788846042AD6D8DFE802F0051D19
S214000D24263C31000121F4E721B1FFF7A3FE4FF082
S214000D340108C9E7202B63D0222B07D10223237096
S214000D4494F87820642A5DD10623C8E77B2B01D16A
S214000D540323F4E70123F2E709B9202BF0D194F832
S214000D647730112B3FD10323B9E7222BF7D0002984
S214000D74E6D005234FF0010884F879300423237065
S214000D84B8F1000FA0D094F8790008B1FFF724FE5C
S214000D94FFF798FC98E77D2B94F87A0003D1FF2898
S214000DA4DDD005239BE7602B13D8402B13D8392BB3
S214000DB48CBF002230229A1AD2B20F2A10D8FF28EB
S214000DC40BD0FF2302EB00128DF8072084F87A304C
S214000DD4B6E75722EFE73722EDE784F87A2073E781
S214000DE4202BDED170E70133DBB294F8782084F848
S214000DF47730234483F8652000232370002994D198
S214000E04884661E72378012B09D19DF80730A3F1C2
S214000E14410119299CBF2033DBB28DF807309DF8B9
S214000E240710A3180132597084F878204CE740461E
S214000E3402B0BDE8F08100BFA424002021250020D4
S214000E4449BA89B24840C0F303114140080380B24E
S214000E544840C3B280EA4310704719F04FBF70474A
S214000E6470477047704770477047704770477047C1
S214000E747047704770477047002070477047704748
S214000E8400207047704770470020704770477047CF
S214000E947047002070477047012070470120704754
S214000EA47047704770477047704770477047000038
S214000EB42DE9F0470024204DDFF89C90DFF89CA035
S214000EC45FFA84F840461DF0D3FAFF2806460CD194
S214000ED422461A49287803F0D1FB2878013409F011
S214000EE4DBFE142CECD1BDE8F087154B47B213EAB1
S214000EF4270338BF534659F824201249287803F0AC
S214000F04BDFB002FE9DA14B1B8F1030F08D10E4B7C
S214000F1416F0010F0D49287818BF194603F0AEFBEA
S214000F240A2CDAD10A4B16F0010F0A49287818BFA2
S214000F34194603F0A3FBD0E77D210020051F03001C
S214000F448E1D03002D1F0300C81E0300DE1E0300B3
S214000F54F01E0300FA1E0300741E03007D6B0300DC
S214000F648842F0B54FEA92031AD804460D469BB25F
S214000F749E00871904370434BC4205F104053AD1AF
S214000F84C3EB8333314402EB8303013E304411FA4E
S214000F9483F3994220D011F8012B00F8012FF8E7CB
S214000FA4541E204421440D4604469BB2A0EB8306FF
S214000FB4043E043CB442A5F104050ED16FF00304CC
S214000FC45C43C3EB833302EB830321449BB20134BB
S214000FD42044CB1A994209D1F0BD2F792771EF78B6
S214000FE4E770AF78A7706F786770E2E711F80129A9
S214000FF400F8012DEEE715F804CC04F804CC15F837
S21400100403CC04F803CC15F802CC04F802CC15F88B
S21400101401CC04F801CCAEE70244904200D17047FC
S21400102400F8011BF9E710B5013801390AB9104672
S21400103406E010F8014F11F8013F9C4201D0E01A77
S21400104410BD013A92B2F1E782B2074B4AB1000CE6
S2140010541A8008BF4FF6CE22044B14BF18801A809D
S21400106470474BF6EF62F2E76C1D00206E1D002001
S214001074094B1888020448BF80F0620042001A80B8
S214001084064A1388190444BF83F4805383F00B0381
S21400109459001180584070476C1D00206E1D0020BA
S2140010A40022034B1870034B1970034B1A707047D9
S2140010B42B2500202A2500202C2500202DE9F04F82
S2140010C4234E85B0337807468846002B3DD04FF62E
S2140010D4FB73204D98422C7803D952211E4801F008
S2140010E4C7FF1E4B4FF0000B9A4632785FFA8BF917
S2140010F44A45187811D9484402A9C0B2019325F08C
S214001104F1FF082241460DEB0200FFF78CFF0BF1BE
S214001114010B019B0028E8D14C462B78A34207D14B
S214001124631C3278DBB29A422B7004BF00232B7008
S2140011349AF8003041461C44E4B2204626F0FAF8F9
S21400114418B93946204625F09BFF05B0BDE8F08F58
S2140011542A2500202C250020222003002B250020F1
S214001164024B187800F07F00704700BF2D25002042
S214001174034B18780130C0B2187000F07F00704737
S2140011842D2500201FB5030A8DF80E300323009387
S21400119403AB8DF80D0000F0BFF905B05DF804FB55
S2140011A41FB58DF80F100421030A8DF80E30009138
S2140011B403AB8DF80D0000F0AFF905B05DF804FB45
S2140011C42DE9F043994689B0BDF840509DF8446037
S2140011D4074688460DF1090011460822BDF84C4022
S2140011E4FFF7BEFE8DF81250012E4FEA15258DF836
S2140011F411908DF813508DF8146017D0032E1CD15F
S214001204082212990DF11500FFF7AAFE9DF850303A
S2140012148DF81D3016230093BDF8542002AB4146CA
S214001224384600F079F909B0BDE8F0838DF815402A
S214001234240A8DF816400F23EDE70120F3E71FB5C7
S2140012440C46194602238DF80D2000930A4603AB7C
S2140012540146204600F060F904B010BD70B586B0B3
S214001264044616460DF10D0008221D46FFF778FECB
S2140012740A232A460093342103AB20468DF81560D2
S21400128400F04AF906B070BD30B5002485B0ADF85C
S2140012940A20021D92B2012A1D46ADF80840ADF898
S2140012A40610ADF8044003D94FF6FF72904207D1FA
S2140012B4064A2B46127801A924F03AF805B030BD48
S2140012C4014601AA204624F0F9F8F7E7701D00202D
S2140012D42DE9F74F9846FF2A16BF474B00241B6894
S2140012E40E4618BF9C5C814618BF6408B8F1FF0F11
S2140012F416BF414B00271B6815461CBF13F8087021
S2140013047F08FFF735FF4FEA19238DF800008DF8A4
S21400131403600621360A68468DF804608DF801904D
S2140013248DF802308DF805401DF05AFEFF2806465B
S21400133404D11824204603B0BDE8F08F4FEA440BCE
S2140013440BF1070A0AEB4701C9B21DF0FDFD0028A0
S214001354EFD10446A3451BD10BF106013A4601F032
S214001364FE0130465FFA8AF41DF0B5FE4FF0000A1F
S2140013745FFA8AF5AF4223D83346BDF830200621FB
S2140013844846FFF781FF044630461DF0CBFCD1E704
S214001394214628461DF09AFEA11D0246C9B23046D3
S2140013A41DF099FE611CC9B228461DF08FFEE11D92
S2140013B40246C9B2304602341DF08DFEE4B2C9E7D7
S2140013C46D00EDB2294640461DF080FE21460246D9
S2140013D430461DF080FE691CC9B240461DF076FEFC
S2140013E4611C0246C9B2304602341DF074FE0AF18E
S2140013F4010AE4B2BCE700BF081D00202DE9F04155
S21400140488B00F4602A906460BF008F900287CD0DF
S214001414FFF7AEFE8DF810001DF0FEF98DF81100F2
S2140014241DF0FAF9000A8DF81200082239490DF168
S2140014341300FFF795FDBDF808300F218DF81C301A
S2140014441B0A8DF81D309DF80D3004A88DF81B601E
S2140014548DF81E301DF0C4FDFF28044657D04FF00B
S21400146400089DF80D305FFA88F2934208F10108EF
S2140014741DD801220DF10E0120461DF0F3FD4FF09C
S21400148400089DF80E305FFA88F2934208F10108CE
S21400149424D823463A4620210020FFF7F5FE0546C9
S2140014A420461DF03FFC284608B0BDE8F081002128
S2140014B430460BF0DFF805468DF807000DF10701FE
S2140014C4012220461DF0CEFD2D0A01220DF1070152
S2140014D420468DF807501DF0C5FDC2E701213046B1
S2140014E40BF0C8F805468DF807000DF10701012238
S2140014F420461DF0B7FD2D0A01220DF107012046F6
S2140015048DF807501DF0AEFDBBE7A325CBE71825E5
S214001514C9E700BF29520020F8B51C460E461746F8
S2140015240546FFF725FE9DF81810207020461DF08E
S21400153457FDFF2804460BD003463A462846314654
S214001544FFF7A2FE054620461DF0ECFB2846F8BD34
S2140015541825FBE708B500F035F90EF03FFCBDE8AA
S214001564084006F08DBE08B5FFF757F80EF060FC8D
S21400157406F0F6FFBDE8084007F04EBB704700F0E3
S21400158451BA00F051BA0020704738B504460D46EB
S214001594FFF795F829462046BDE838400AF0B2B869
S2140015A4FFF777B8FFF780B84022032101200FF039
S2140015B4EDB80122032110460FF0E8B800220321FB
S2140015C401200FF0E3B80222032101200FF0DEB859
S2140015D400224FF4A06109200FF0D8B801224FF47E
S2140015E4A06109200FF0D2B80122002109200FF0D3
S2140015F4CDB8704713B504462C4901200DF056FBB0
S214001604E01E042850D8DFE800F02123033D330011
S214001614274901200DF04AFB4FF4967303220093EA
S2140016240521002000F058FE0123224A41F28831A9
S2140016341370214A214813701DF05CF94FF47A7137
S2140016441F4802B0BDE810401DF054B91D49E0E73C
S2140016541D4901200DF02AFB4FF4FA7302220121E2
S2140016640093002000F038FE0222134B1A70E5E7C0
S214001674164901200DF01AFB4FF4967303220093CB
S2140016841146EEE70B4B1B7873B1114901200DF0A0
S2140016940DFB4FF49673032200930421002000F000
S2140016A41BFE054B0322E1E702B010BD77350300AD
S2140016B48A3503002E2500201444002020440020F0
S2140016C4044400209D350300B2350300C4350300EE
S2140016D4D8350300042908B50BD1012005490DF0BF
S2140016E4E5FA0322044B05481A70BDE808401DF0CD
S2140016F4F5B808BDEC35030014440020044400206B
S214001704042808B51ED14B1E042B21D8DFE803F0AD
S21400171403090D2012000F490120BDE808400DF012
S214001724C5BA00F007F90C49F6E7032007F07AF883
S2140017340A49F1E703220A4B0A481A701DF0CEF84C
S2140017440949E9E7032803D1012901D10749E3E759
S21400175408BD00BF3B35030047350300533503007F
S21400176414440020044400205F3503006B35030056
S21400177408B5D8B10138052818D8DFE800F0030901
S2140017840B0D15150A490120BDE808400DF08EBA68
S2140017940849F8E70849F6E7084901200DF086FAF3
S2140017A4BDE8084000F00EBC0549ECE708BD00BFE4
S2140017B401360300143603002F36030047360300B1
S2140017C46136030008B5124901200DF06FFA11487E
S2140017D400F0AAF8104800F01DF91049104800F06F
S2140017E4F7F900F0F3FA00F00BFC00F01DFD00F032
S2140017F4F7FD0A2000F01CFF0A4800F04BFF002209
S214001804094B0A481A70BDE808401DF067B800BFC7
S21400181482360300F9150000D9160000F7150000FB
S2140018240517000075170000144400200444002027
S21400183407B51D4901200DF039FA00221B4B1A701A
S2140018441B4B1A78042A10D8DFE802F003120F1D87
S214001854270002221A700AF015FE30B94FF4967368
S21400186403220093012100F037FD03B05DF804FB6A
S21400187402221A7000F01EF901200E4903B05DF82A
S21400188404EB0DF013BA00F092F94FF4FA610A482B
S21400189403B05DF804EB1DF02DB802221A7003B0F5
S2140018A45DF804EB02F0F4BA9A3603000444002010
S2140018B414440020B036030018440020002208B563
S2140018C4094B0A4901201A700DF0F0F90422084B5E
S2140018D41A7018F0FBFD20F08BF8BDE808404FF4B2
S2140018E4FA6104481DF006B818440020D1520300DB
S2140018F414440020044400200022024B1A7000F016
S21400190465BA00BF20440020002310B5044C2370A1
S21400191400F034F92046BDE8104002491CF0EABF46
S2140019240C440020A0BB0D00014B1860704700BF9C
S2140019343425002008B50AF0A5FD30B9BDE80840F6
S2140019444FF4FA6101481CF0D5BF08BD28440020B6
S21400195408B50AF097FD022806D1BDE808404FF402
S214001964FA6102481CF0C6BF08BD00BF2844002028
S21400197438B500240C4D2C700AF084FD60B908F0CC
S21400198401F90A4A2846136841F288310133136084
S214001994BDE838401CF0AEBF022803D108F032F987
S2140019A4024B1C6038BD00BF2844002030250020B0
S2140019B410B50446144901200DF078F9902C10D186
S2140019C4124B134C1B683BB1FFF7C2FF23680BB1E5
S2140019D403209847002010BD2368002BFAD005206A
S2140019E4F7E7912CF6D10AF04DFD28B9084B1B6891
S2140019F4002BEFD00620ECE70328EBD1044B1B6842
S214001A04002BE7D00720E4E7BE360300302500208D
S214001A1434250020014B1860704700BF382500208D
S214001A2400207047002070470B8810B563B948F251
S214001A3434024988914207D1044A146814B11A46FC
S214001A440421A047012000E0002010BD3825002016
S214001A5470B51646002290B08DF80E209DF85420DE
S214001A648DF80C10090A05469DF850408DF80D10A7
S214001A748DF80F2023B12246194604A830F003F946
S214001A8403AB043400930194034B324629461020DA
S214001A940CF0C6F810B070BDB133030010B50446A0
S214001AA4084611460CF042F92146BDE810400020D5
S214001AB40CF01AB91FB50E4B18689B880290ADF847
S214001AC40C300AF0DFFC02280ED106234222052140
S214001AD4CDE900320020012202ABFFF7B9FF012254
S214001AE400201146FFF7DAFF05B05DF804FB00BFDF
S214001AF4DE36030030B520220124054685B004AB4B
S214001B0403F8011D40F20240CDE9004200212246BE
S214001B14FFF79EFF224629460020FFF7BFFF05B0C9
S214001B2430BD30B520220124054685B004AB03F849
S214001B34011D40F20540CDE9004200212246FFF790
S214001B4487FF224629460020FFF7A8FF05B030BDD0
S214001B541FB504AB23F8021D022221210446CDE959
S214001B6400214FF4806001220021FFF771FF01225B
S214001B7421460020FFF792FF04B010BD13B50AF00B
S214001B8481FC022811D1002420232246CDE90043FB
S214001B94214623462520FFF75BFF012220461146F7
S214001BA402B0BDE81040FFF779BF02B010BD1FB504
S214001BB40223002000934FF48A5203AB48F2340108
S214001BC48DF80D00FFF7A8FC05B05DF804FB0000D7
S214001BD4024B1860024B1960704700BF4425002072
S214001BE43C250020054B5A78824205D05B7C834214
S214001BF40CBF0120FF20704700207047741D002092
S214001C0438B5FFF7EFFF194DFF280446287025D096
S214001C14012910D100F030FD2A78154B03EB04148B
S214001C2403EB02139A89606001329A811148BDE879
S214001C3438401CF053BE89B900F01EFD0C4C2B78BE
S214001C44014604EB0313586800F01CFD32282D7877
S214001C5405D804EB0514A389013BA38138BD00F025
S214001C640BFD04EB0514A060F8E700BF4025002038
S214001C74741D0020304400202DE9F8430023374E1D
S214001C84374C384DDFF8E480337004F1200900F057
S214001C94F3FCA3890746E3B1302223785A43324B38
S214001CA49B586278D340DB072FD40146606800F067
S214001CB4E9FCB0F57A7F11D10121D8F800306078BC
S214001CC498470123A373A3891BB1642130461CF0F3
S214001CD411FE10344C45DAD1BDE8F8833946606805
S214001CE400F0D0FCB0F5FA6F03D1D8F8003002212A
S214001CF4E5E73946606800F0C5FC40F6B83398421C
S214001D04E1D1D8F800300321D9E7A37B13BB014601
S214001D14606800F0B7FCB0F5C87FD4D3A389013B54
S214001D24042B08D8DFE803F0030A0D101300012182
S214001D342B68607898470023A381C4E72B680221A8
S214001D44F7E72B680321F4E72B680421F1E72B68F7
S214001D540521EEE70023A373EEE700BF304400201E
S214001D64741D00204425002014C003403C25002098
S214001D74D0ED007AE1EE017AB0EE677AE0EEA07A72
S214001D840A4BC7EE276AD3ED007A30EE670AE0EE18
S214001D94267AB0EE670AC3ED007AF7EE007A77EE9D
S214001DA4E67A67EE877AC0ED007A7047941D0020C5
S214001DB407B501230022CDE90023032202201146A1
S214001DC404F046FF03B05DF804FB0000022208B5E9
S214001DD410460123032104F081FF0549032002F085
S214001DE409FF04481CF07AFDBDE80840FFF7E0BF91
S214001DF4311E00003844002007B5034620B103B066
S214001E045DF804EBFFF7D4BF0322CDE900001146CA
S214001E14022004F01DFF03B05DF804FB024B1868B3
S214001E24C0F3C000704700BF70C00340032810B55D
S214001E340FD1FFF7F3FF60B10024064B20461C7059
S214001E44FFF7DAFF0448C8210470BDE810401CF010
S214001E5451BD10BD7A25002038440020704700008C
S214001E64FD2110B5FC240948094A0388D154591C9D
S214001E7489B25454FB24991C89B25454191D018008
S214001E84FA2103339BB2D15410BD00BF7C25002039
S214001E9448250020042110B503240948094A03886C
S214001EA4D154591C89B254540224991C89B25454EE
S214001EB4191D0180012103339BB2D15410BD00BF0C
S214001EC47C2500204825002070B500250F4E104CB8
S214001ED43580FFF7C5FF042260213388E2545A1C7C
S214001EE492B2A5549A1C92B2A1540121DA1C92B261
S214001EF4A1541A1D92B2A5549A1D05339BB2328082
S214001F04E554FFF7C7FF204670BD00BF7C250020C0
S214001F144825002070B500250F4E104C3580FFF77D
S214001F249FFF042264213388E2545A1C92B2A554BB
S214001F349A1C92B2A1540121DA1C92B2A1541A1D21
S214001F4492B2A5549A1D05339BB23280E554FFF72E
S214001F54A1FF204670BD00BF7C2500204825002038
S214001F6438B5FFF7B1FF054600F050FC044600F014
S214001F7451FCE21C0444EB1C0334A24201D10120B0
S214001F8438BD12F8010F13F8011F8842F5D000205F
S214001F94F6E738B5FFF7BEFF054600F037FC044603
S214001FA400F038FCE21C0444EB1C0334A24201D1CA
S214001FB4012038BD12F8010F13F8011F8842F5D02E
S214001FC40020F6E713B5FFF7CBFF0446FFF7E1FF63
S214001FD4012C01D001280ED14FF4967302220093EF
S214001FE40521002000F078F90120044902B0BDE87C
S214001FF410400CF05BBE02B010BD00BFE436030018
S214002004F0B52C4E8FB008AD00240FCE03270FC5B5
S21400201496E80300012685E80300274DCDE903442E
S2140020242846CDE9054407948DF80E708DF80860AF
S2140020348DF809408DF80A408DF80B4005F0BAF883
S2140020440221052004F0B4FB022322461B4928463D
S2140020548DF8173005F024F923468DF81900009002
S214002064224642F2107128468DF8237005F030F9A6
S21400207404238DF82130A5238DF8250008AA05A988
S21400208428468DF809308DF80E408DF8086005F066
S21400209443F902AA03A9284605F04CF8084A094859
S2140020A4D2F8283343F48033C2F828331CF016FCE5
S2140020B40FB0F0BDF43603000040004A40420F0063
S2140020C400C003404044002000000000012213B575
S2140020D40446184BDA605A6902F4A072B2F5807F9F
S2140020E4F9D16846134905F06DFA0098124A134B65
S2140020F403FB0023B3FBF0F02FF0A4F89FED091BBD
S21400210441EC100B2CF07AFB08A3D3E9002351EC26
S214002114100B2FF011F92FF0BFFB206002B010BD9A
S214002124AFF30080666666666666F6BF000000006B
S214002134D8227E410040004A408AF701F0D8FFFFCB
S21400214413B51B4C01A8237801332370FFF7BEFF99
S214002154DDED017AB2EE041AB8EE670ADFED150A71
S2140021641548FFF705FEFCEEC07A237817EE901AA2
S214002174042BCDED017A05D989B20220FFF7E8FCDD
S214002184002323700D4C01992368994202D9CA1A78
S2140021941D2A04D8994206D25B1A1D2B03D989B28C
S2140021A40220FFF7D5FC019B236002B010BD00BFE0
S2140021B47E250020CDCCCC3D802500208425002023
S2140021C4002310B5054C2370FFF7BAFF2046BDE880
S2140021D410404FF47A711CF08DBB00BF40440020C1
S2140021E40C2370B5584330250D4901230A18085CA2
S2140021F441F210010B4C568805FB004003FA06F624
S21400220446501079D68805FB004003FA06F6465079
S214002214107A5289934005FB0042535070BD00BFAC
S214002224981D002000C0034070B5124D00242E46B1
S2140022342919285D002302224988043404F04EFD3F
S2140022440C2CF5D100243019C18900230222007B0E
S214002254043404F043FD0C2CF5D10020FFF7C0FF36
S2140022640120FFF7BDFF044B044A1A60044A5A6073
S21400227470BD00BF981D00208044002078440020D4
S214002284484400200C22124B2DE9F04102FB00309A
S21400229401270023302641F2100C42F2100E0D4D99
S2140022A410F8232000EB830406FB0252648841FAEC
S2140022B403F818F0010F07FA04F403F1010314BF3E
S2140022C442F80E4042F80C40032BE9D1BDE8F081F9
S2140022D4981D002000C00340F0B414250127454390
S2140022E4074EBA407419A360049B7755E360054B08
S2140022F4A174A28053F82000F0BC1CF0EFBA00BF13
S21400230450440020804400200022F8B5154F164D96
S21400231457F8203004461A7014234343EE18B28844
S214002324BAB1EB5C012B14D1D3070ED5B17CFFF701
S214002334A9FFB16857F824001CF0DCFA142303FB49
S2140023440454A388013BA380F8BDFFF749FFF16856
S214002354F0E71423002263432046EA54BDE8F8401D
S214002364FFF73EBF80440020504400200020FFF7C3
S214002374CBBF0120FFF7C8BF1FB56C46144B0FCB6D
S21400238484E80F0001230B221846002104F0A6FC63
S21400239401230B221946184604F0A0FC03220D4B19
S2140023A40D48C3F89824D3F8A014014041F0011155
S2140023B4C3F8A014D3F89C242146024042F001023C
S2140023C4C3F89C24054804F011FD04B010BD00BFFA
S2140023D40C37030000C00340FCFFF0FF0000014A76
S2140023E430B589B0FFF7C8FF4CF6FC121C4B03A9A6
S2140023F4039308AB23F81C2D04930223ADF8143082
S21400240402AB069303231748ADF81C3004F01CFEF9
S2140024140546144C012D16D02A46134901200CF00B
S21400242445FC9DF80820B2F1140418BF0124002DC1
S21400243418BF012464B10D4901200CF037FC0124B7
S214002444204609B030BD204604F0F2FC0546E1E71C
S214002454074901200CF02AFC06481CF03FFAEFE777
S214002464800004000000014A1C37030033370300D1
S2140024745A3703008844002070B5164B88B003937F
S21400248408AB03F81C1D04930123ADF8143002AB0B
S21400249406930223054603A90F48ADF81C3042F202
S2140024A4107404F0D1FD0C4E012808D1013C02D171
S2140024B4204608B070BD304604F0BAFCF4E79DF838
S2140024C409309DF8082003F0FC0303EB02232B607D
S2140024D40120EEE7800004000000014A70B50C46B7
S2140024E4E0210646FFF7C8FF08B9002070BD45F294
S2140024F4CD524FF47A753368E5215A43520BA2F550
S2140025043742023AB2FBF5F220463260FFF7B4FFD8
S2140025140028EAD043F60953226853435B0BA3F51D
S214002524BB53103BB3FBF5F32360DFE737B5314C01
S214002534314D237801A9013323702B786846013383
S2140025442B70FFF7CBFFDDED007AB2EE041ADFED59
S2140025542B0AB8EE670A2A48FFF70AFCDDED017A73
S214002564BCEEC00AB2EE041A8DED000ADFED230AB3
S214002574B8EE670A2348FFF7FBFBBCEEC00A2378D5
S2140025848DED010A042B05D900990120FFF7B2FA54
S214002594002323701C4C00992368994202D9CA1A56
S2140025A4012A04D1994205D25B1A012B02D00120DC
S2140025B4FFF7A0FA2B78042B05D901990120FFF721
S2140025C4B0FA00232B70114D01992B68994202D959
S2140025D4CA1A012A04D1994205D25B1A012B02D0E9
S2140025E40120FFF79EFA009B2360019B2B6003B03B
S2140025F430BD00BF8925002088250020CDCCCC3DE9
S214002604982500208C250020942500209025002065
S214002614002310B5054C2370FFF788FF2046BDE85D
S21400262410404FF47A711CF065B900BF884400204E
S21400263400220146044B05481A700260044A1846F4
S21400264411601CF057B900BF904400209C25002060
S214002654A025002000230548054A0370054B196889
S21400266413680B4413601CF045B900BF9044002067
S2140026749C250020A0250020014B1868704700BF49
S2140026849C2500200B1A814238BF03F1FF331846FD
S2140026947047000010B5044601234FF4E1310022D0
S2140026A4032008F08BFA044B4FF47A711C6003483D
S2140026B4BDE810401CF01EB9A8260020984400204F
S2140026C4002212232DE9F043284DDFF8A8E0284F16
S2140026D403282A708EF80030397816461446944635
S2140026E4DFF8948036D004B1397002B12E702878A1
S2140026F4BDE8F08318F80300FD282ED101240E4609
S214002704A44621460133DBB20029F3D0012902D0C6
S21400271400210124F8E7162B18D908EB030010F85B
S21400272404CCBCF1040F11D110F8039CB9F1030FCB
S2140027340CD110F8029CB9F1020F07D110F8010C65
S214002744012801BF02460021664614464FF0010CDC
S2140027540133DBB2002ED7D001E001221646BCF1CD
S214002764000FC0D08EF80030BDE700BFA6250020BD
S214002774A5250020A4250020A725002010B50320A9
S214002784FFF79EFF034B1B6813B1BDE810401847C4
S21400279410BD00BFA8260020002373B5194A0320E5
S2140027A413708DF8073008F06BFA044620B19DF8D4
S2140027B40720FD2A0ED02CB9322112481CF09AF8B4
S2140027C402B070BD0DF107010320013C08F05AFA6F
S2140027D4A4B2ECE7002CEFD001250B4E32700DF1BD
S2140027E40701032008F04EFA9DF807307355ABB284
S2140027F49C4203D00135B5F5807FF0D1FFF7BEFFCC
S214002804DAE700BF98440020A72500200048704758
S214002814B9250020014B987D704700BFA7250020EE
S214002824002307B5CDE90033012369464FF0FF3096
S2140028348DF802300FF0BCFE003018BF012003B044
S2140028445DF804FB012070470120704701207047A3
S21400285410B5084C23681B6858790AF0D2FC236824
S2140028641B685879FDF7E1FE00200DF075FC012089
S21400287410BD00BF8C5000202DE9F84F80460D4651
S21400288414469946164E06F1010A0DB9BDE8F88FAE
S214002894102D4FF00D02494650462F4628BF1027EC
S2140028A4FEF75EFB0123337000230D48F473B37305
S2140028B424F0D8FD424601340A495FFA87FBE4B2A5
S2140028C412F8013B11F8010F434002F8013CA2EB59
S2140028D40803DBB25B45F3D3ED1BADB29046D4E7F9
S2140028E4B0260020AF2600202DE9F04F4FF0020955
S2140028F4364D85B003930F9B174601900D220E4666
S2140029040146681CBDF838800293FEF729FB49236C
S2140029144C46AA462B7028464FEA1823AB7385F814
S2140029240F8024F09FFD2B7883EA17232B706B7897
S2140029347B406B704FF0000B21E0C4F1100CA7EB4A
S2140029440B031FFA8CFC9BB2634528BF63463046D4
S214002954A11B00EB010C5FFA8CF2A0EB060C1FFA2D
S2140029648CFC9C451BD31C44E4B29B44102C1E4494
S2140029741FFA8BFB03D1284624F074FD0024BB45C4
S214002984DBD314B1504624F06DFDB9F1010F4FF0BE
S2140029940004039E47460BD04FF00109CAE710F81F
S2140029A401CB1AF802E08CEA0E0C0AF802C0D0E753
S2140029B4029804220549FEF7D3FA22460421019B15
S2140029C4029805B0BDE8F04FFFF756BFB0260020CA
S2140029D4F7B5099FBDF820400646CDE900471D46D9
S2140029E4FFF782FF2CB13346012221462846FFF723
S2140029F443FF002003B0F0BD2DE9F7431E4605460D
S214002A0488469146BDF828700D4C03463946304634
S214002A140122FFF731FF33464A4641462846CDE9B0
S214002A240074FFF761FF042221460B98FEF7FBFAB9
S214002A34002814BF7E20002003B0BDE8F08300BF4A
S214002A44AC2600202DE9F3410C4615461E4680466A
S214002A54084F9918214438460422FEF781FACDE936
S214002A64006763192A4621464046FFF7C5FF02B0B1
S214002A74BDE8F081C0260020002070470020704783
S214002A8470477047F7B50024094E0A4F0A4D56F8AA
S214002A94243003B93B6835F8142008490092012015
S214002AA4224601340CF002F9292CF0D103B0F0BD13
S214002AB4B01D0020581E0020144500207337030064
S214002AC408B5FFF7DFFFBDE8084000F0F1B80000E6
S214002AD407B50020FDF7D4FEC2B2282A0DD8084B4D
S214002AE453F822300BB9074B1B680749012031F80D
S214002AF41210009105490CF0D9F803B05DF804FBF8
S214002B04B01D0020581E0020144500207337030013
S214002B14FFF7B8BF7047000038B50020FDF7B0FED9
S214002B2404460120FDF7ACFE0546054901200CF0DD
S214002B34BDF8A9B2E0B2BDE8384000F0D1B800BF95
S214002B447E370300F7B50024094E0A4F0A4D56F89F
S214002B54243003B93B6835F8142008490092012054
S214002B64224601340CF0A2F8292CF0D103B0F0BDB3
S214002B74B01D0020581E0020C244002073370300F6
S214002B8473B502AB03E906000446019D1BF060FB27
S214002B94064620461BF06AFB9DF800008EB1202CEA
S214002BA40FD82B78012B37D84FF6FF75394903EB2E
S214002BB44313234431F81320AA4202D0013221F8E9
S214002BC413204FF6FF72344B344933F8146031F84F
S214002BD4145096421CBF721C23F8142004F0FD0205
S214002BE4092A31D19A8A898A02448A42B4BF9A82CF
S214002BF4998233F81430AB4204D3AE4202D2204654
S214002C04FDF714FD0025264BEA5CA24228D00135C8
S214002C14112DF9D102B070BD022BD2D14FF6FF713F
S214002C244FF6FF751B4B33F814208A421CBF013243
S214002C3423F8142004F1210233F81210A9421CBF11
S214002C44013123F81210BCE71D2CD2D15A8F11186B
S214002C54A942BDBF02F1FF3212185A875D87C8E742
S214002C6417F005FD0F4B04461B78834203D8DD217D
S214002C740D4800F0FDF94FF6FF710C4A04EB0414FE
S214002C842C4432F814308B42C4D0013322F814306A
S214002C94C0E700BF6645002014450020C24400205B
S214002CA4EA3A0300511D0020663A0300A0440020BF
S214002CB4522200210148FEF7AFB900BF1445002098
S214002CC45222FF210148FEF7A7B900BFC2440020E4
S214002CD408B5FFF7EDFFBDE80840FFF7F1BF0000B9
S214002CE4014B23F810107047C2440020032310B58C
S214002CF40F4C4FF48062C4E904330E4B0E49E36173
S214002D040023A16121660D49E01DC4E919120C498E
S214002D14A3626362E3622367E366636722622EF05C
S214002D24C5FF084920462EF0C1FF2023A37110BD1D
S214002D34EC450020C42A0020FB3A0300C4260020E9
S214002D44043B0300083B03002DE9F84F1F4B1646CF
S214002D541A7881468A4698460AB9FFF7C7FF1827A5
S214002D6407FB09873D6FD7F86CB05D452BD9BC6E61
S214002D74796E641BB44228BF344629445046224622
S214002D842EF081FFBB6E2544AB4208BF0025A2444B
S214002D94361BABEB050B5E4528BF5E4656B11823C3
S214002DA403FB0983596E3246294450462EF06BFFC6
S214002DB43444354424B1182303FB0988C8F87050FA
S214002DC42046BDE8F88F0024E3E700BFEC4500206A
S214002DD410B50B46EFF311844FF0200181F31188F0
S214002DE41946FFF7B1FF84F3118810BD2DE9F84F9B
S214002DF4144D9B462B788146884692460BB9FFF7BE
S214002E0475FFEFF3118C4FF0200181F31188002039
S214002E1418236F6903FB0054666E2EB10130874297
S214002E24F8DC4FF0FF3009E08742FADDC4E9189871
S214002E34C4F868A02667E666C4F874B08CF31188F4
S214002E44BDE8F88FEC450020FFF750BF70B54FF093
S214002E5460441A4B00261A68194D42F001021A60A3
S214002E64DA680C2042F08072DA60164BC4F8B03F81
S214002E740223C4F8006EC4F8806EC5F8F03003F080
S214002E8459FB114B00F5D52000F2FC40B0FBF3F0E3
S214002E940E4A0F4B01382861C4F8406E1A600D4B79
S214002EA4C4F8803E4FF48073C5F80433D4F8003E6B
S214002EB443F48073C4F8003E70BD00BFF0ED00E03C
S214002EC4000004E055CEACC5F8590D00FF030040E1
S214002ED4001000E00D00010010B501240E4B002088
S214002EE41C6003F0B3FE234604220321002003F0F3
S214002EF4F5FE20460FF06CF8FFF7A8FF0FF069F810
S214002F04FFF7A2FF2346402204490548FFF76EFF59
S214002F14044B1860C00F10BD44D40340C42E0020D8
S214002F240F3B03005C1E0020024B1868003018BFDD
S214002F3401207047F0ED00E0D123054A03701378B2
S214002F444170090A8170591CC370117004207047BF
S214002F54042F00202DE9F74F354E074633681C5CD6
S214002F64032C63D9DFF8CC8016F092FF4FF6FF7A75
S214002F740025C1460534E4B20190D8F800204AB1D1
S214002F84AC4207D916F084FF019BC01A80B2B0F594
S214002F94FA7F05D9601B18BF012003B0BDE8F08F87
S214002FA4002D3DD0012D1DD14FF0020B3268D55DAA
S214002FB44FF06042D2F8801ECB0711D51146D9F8DF
S214002FC40C0040F08070C9F80C00D1F8000E40F4F4
S214002FD48070C1F8000E086A0028F0D082F82050ED
S214002FE45D46CAE7E21E05F1010B95425FFA8BFBCC
S214002FF402D15FFA8AF5DBE7A21E954202D1CAF334
S2140030040725D5E7621E95420ED0A91EC9B23846DA
S2140030141CF05CF851460546FDF712FF8246C7E7EA
S2140030245B254FF0010BC3E75D25C1E70120B4E73C
S214003034081D0020F0ED00E010B50B4B90B04022C8
S21400304469461868FFF7C4FE58B1C1B268461BF05B
S214003054C7FF0446014612200EF066FC20461BF00D
S21400306461FE10B010BD00BF5C1E002042DE70473B
S21400307438B504460D4600F0AFFD03F042FD294680
S21400308420460EF01DFC2B4622460549222007F05A
S21400309409FE29462046BDE83840FFF7E7BF00BFD3
S2140030A41F3B03006D4B2DE9F0415A686C4CA2653A
S2140030B45A6AE2656B4AD2F800122166D2F80422F4
S2140030C462669A6AA266DA6AE2661A6B22675A6BC4
S2140030D46267A26BDB6B12F0040FA367D4E90F538D
S2140030E418BF1D4616F0B8FE0022854203466065EA
S2140030F422655DD35C4A95425AD8AA696264E96936
S214003104A164B4F85810C1F30801062954D15749EC
S2140031148A4251D356498A424ED211884DF64262AB
S214003124914249D140F201706268C4F89420A268C2
S214003134C4F898204F4A5049934238BF13460A466B
S2140031448B423CD3D31AE3640023C4E91F33C4E997
S2140031542133C4E92333484E444FDFF814C1AE424A
S21400316433D8D4E91FC7D4E92165D4E923124FF034
S214003174000E013BDBB2FF2B42D1BEF1000F05D09F
S214003184C4E91FC7C4E92165C4E92312B4F858305A
S214003194C3F30803052B57D03CD8032B47D0042B86
S2140031A458D040F60722013B4B2B98BF104640E010
S2140031B400221D46C4E911224FF42060BAE71E68B7
S2140031C4B6F1CD3FBED10433BAE756F8042DBA4261
S2140031D4C5D36245C3D2D107C1D5002104EB010E85
S2140031E4DEF87CE09645BAD004311829F6D10BB93E
S2140031F4052301E0013BDBB204EB8301CA67AEE7BB
S214003204E0464FF0010EBC4637462E460D461146A4
S2140032144246AEE70C2B1AD03B2B0CD0062BC0D163
S21400322440F60423B0F5206F08BF184601E040F6C8
S2140032340120BDE8F081114B9B6913F0020F40F2A8
S214003244025318BF1846F4E740F60320F1E740F6A9
S2140032540520EEE740F60220EBE700BF00ED00E0B5
S2140032640000002000E100E0E01A00204C0300000B
S214003274E81C03009C000020001B00200080014A7C
S214003284042804D003280CBF012002207047002025
S214003294704700004FF480732DE9F04385B0ADF815
S2140032A40C30002401F098FC0127DFF84480DFF896
S2140032B4449003ABE35C012218F8336008EBC303C5
S2140032C45D6830460023294603F008FD4946E8B207
S2140032D401F090FCCDE9007701232A4629463046C2
S2140032E403F0B6FC14B105B0BDE8F0830124E0E7B2
S2140032F4343B03007D33000008B5FFF7C1FF022806
S21400330416BF024B0020185C08BD00BF052F002026
S21400331408B5FFF7B5FF02281CBF014B195408BDBA
S214003324052F002008B5FFF7ABFF022805D0034A97
S214003334135CB3FA83F35B09135408BD052F00200E
S21400334408B5FFF79DFF02280FD03021084A12F86F
S214003354303002EBC0025943064B50685B5823FAE0
S21400336400F0C04300F0010008BD0020FCE700BFE9
S214003374343B030014C0034070B504460026FFF730
S214003384DFFF054601E000261D462046FFF7D8FF6E
S214003394A8420346F7D10136052EF2D12046FFF7A0
S2140033A4ABFFA8420BD029462046FFF7B1FF2046C4
S2140033B4FFF7A2FF0146204608F0B6FF70BD204680
S2140033C4FFF7B0FF2046FFF797FF0146204608F0B8
S2140033D4ABFF2046FFF7A6FFE9E7000010B504F0B0
S2140033E4E9F9044604F0DEF90022012101FA02F3A9
S2140033F4234014D01B4B33F812301B4A062B13D031
S21400340440F207218B420DD1184919480C688442B2
S21400341408D14CF23C334B800B88138012E0013207
S214003424102AE3D1104AF8E74FF20F010F4B5888E1
S214003434884214D11988B1F5406F10D211804CF22D
S2140034443C325A80084B1A8840F201739A4201BFF4
S214003454084B094AD2E90001C3E9000110BD4FF444
S214003464C061EBE7443B0300102F0020000000205F
S21400347407020FF0082F002094000020014B188844
S214003484000A7047102F0020014B1888704700BFB1
S214003494102F00202DE9F04F4D4C0546A36BD4F8B1
S2140034A450B05A0747BF0027B846D4F84CB0D4F8F3
S2140034B45480D4F840A05DBF464FD4F83CA0DFF853
S2140034C43C91DFF83C9113F0080F434B434A18BF76
S2140034D41A46B7EB08061FBF6421730801FB0B33BB
S2140034E4B3FBF6F387B01CBF9BB205933C494B462F
S2140034F4CDE9017ACDF8008008BF059601F0BEF844
S214003504B3B2CDE900931FFA8BF2059B35492846E2
S21400351401F0B4F8A36B5B070AD49C3E5E4507D162
S214003524626D314B9A4203D23049284601F0A6F820
S214003534BA4501D8C24504D24A462D49284601F068
S2140035449DF8284607F0A8FB236E0BB9636EBBB341
S2140035542849284601F07DF800260127DFF8A480D4
S214003564DFF8A490226E07FA06F3134207D058F841
S214003574262013781BB14946284601F06AF801361E
S214003584202EEFD100260127DFF87880DFF8789028
S214003594626E07FA06F3134209D008EB8603D3F8E3
S2140035A4802013781BB14946284601F052F80136AC
S2140035B41D2EEDD1284607B0BDE8F04F01F058B8EF
S2140035C428460D4907B0BDE8F04F01F057B800BFD4
S2140035D400000020001B00204B3E0300A83603001A
S2140035E4523E0300803E03009C000020B93E0300C8
S2140035F4E53E0300033F0300323F0300463E03005C
S21400360471580300483F0300F44C03002DE9F843C7
S2140036140446FFF739FF40F60123984239D010D804
S21400362440F2025398421DD040F20173984224D0CF
S21400363440F20153984213D16549204601F01EF822
S21400364422E040F6032398426CD03DD340F6042390
S214003654984200F09C8040F60523984200F0B5801E
S214003664BDE8F8835B49204601F008F85A4B5B49ED
S2140036745A6C204601F002F806E0574A5849D2E947
S2140036842523204600F0FAFF2046BDE8F84307F05D
S21400369403BB514D5349204600F0F0FF95F86C30BB
S2140036A49F0703D55049204600F0E8FF95F86F3091
S2140036B45E0603D54D49204600F0E0FF95F96F30CD
S2140036C4002BE1DA4A49B8E7434D4A49204600F060
S2140036D4D5FF95F86830980704D06A6C3F492046B1
S2140036E400F0CCFF95F96830002B04DA6A6F424983
S2140036F4204600F0C3FF00260127DFF80881DFF824
S2140037041491AA6E07FA06F3134207D058F8262037
S21400371413781BB14946204600F0B0FF0136082E48
S214003724EFD1B1E72C4D3549204600F0A7FF2B49D1
S2140037346A6C204600F0A2FF95F86930590703D555
S2140037442F49204600F09AFF95F96930002B04DAD9
S2140037546A6F2949204600F091FF0826294FDFF8B2
S214003764B480AB6EF340DA0707D557F826201378F3
S2140037741BB14146204600F081FF0136102EF0D1E1
S21400378495F86830002B7FF47FAF1F4955E7124D3C
S2140037941E49204600F072FF6A6C1049204600F06D
S2140037A46DFF1026174FDFF86C80AB6EF340DB0717
S2140037B407D557F8262013781BB14146204600F05B
S2140037C45DFF01361A2EF0D15EE711494BE700BFC4
S2140037D4D53B0300123C030000000020423C0300DB
S2140037E45B3C0300753C03008D3C0300C73C0300B0
S2140037F4FA3C0300363D03005B3D03007F3D0300B7
S214003804963D0300643B0300DC3D03000C3E0300CE
S214003814253E0300773D03002DE9F84F06460025B4
S214003824154C164FDFF85C80DFF85CA023785FFA4F
S21400383485FB0BB9BDE8F88F57F8043B22461049C0
S214003844304600F006FF227804F1010982B9627856
S21400385482B10BF0030103290CBF414651463046A2
S21400386400F0F7FE304607F017FA01354C46DDE760
S2140038744C46E8E74146F2E73C40030004000020DB
S214003884CC3B03008C1D0300755D030000F00CB8F0
S21400389400F00AB800F008B800F006B800F004B863
S2140038A400F002B800F000B872B61EF0080F09D097
S2140038B41EF0040F0DD0DFF850E0AEE8FF1F6FF0E7
S2140038C402000CE0DFF840E0AEE8FF1F6FF00E00E9
S2140038D405E0DFF834E0AEE8FF1F6FF00600694647
S2140038E4EFF309828EE8070086460848084C8545AB
S2140038F401D3A54501D384F30888FFF7D3FB84F3EB
S214003904088816F085FA000004000020E011002064
S214003914001B0020FFF7C6BF7047704770470000C3
S21400392400F07E63B3F17E6F70B505460E4614460E
S21400393416D105F067FD18B19A210D48FFF798FBDC
S21400394422463146C5F30B0003F0F0FF044605F0AB
S21400395465FD5CB19D21BDE870400548FFF788BB56
S214003964520816F0F3F908B18F21F4E770BD00BFD2
S2140039746047030037B57F2A14BF154600254BF26F
S21400398434629142044619D17F2241F2020168460C
S2140039940823FFF7EFFF082225496846FDF743FB97
S2140039A430B908237F2241F2F0116846FFF7E2FFA0
S2140039B4082269462046FDF7D3FA09E041F2F012E0
S2140039C491421AD11B4901388A6CC96C1D1F0BB968
S2140039D403B030BD013B9D4200F8012F4FEA12228E
S2140039E4F5D1002203349A42F2D00132042A04F8B4
S2140039F4011F4FEA1121F6D1EAE701F47042B2F54D
S214003A04805F07D1C1F30B0404F17E649AB203FB12
S214003A140541D0E701F46042B2F5005FD8D1C1F3A6
S214003A240B0405499AB2214403FB0511C3E700BF02
S214003A34DA4703000080E00F00E0070070B5054693
S214003A4416461C46DBB14BF23463994210D1082C5F
S214003A5428BF08247F2241F202012346FFF78AFF8B
S214003A64A2B207492846FDF7DEFA40B941F2F01142
S214003A74234632462846BDE87040FFF77BBF70BD3C
S214003A84DA4703002DE9F7430446E0070F461546D8
S214003A9403D5DD213448FFF7EBFAE90703D5DE2129
S214003AA43148FFF7E5FA04F47043B3F5805F3ED17E
S214003AB4C4F30B0404F17E646B1E2C4A2344934225
S214003AC4264603D9E3212848FFF7D2FADFF8989070
S214003AD406EB050846453DD1A2070ED04FF6FF7308
S214003AE437F8022B02A943EA0243A01E41F8043D1C
S214003AF40422FFF715FF0234023DAB070ED0023D49
S214003B0425F00103FB5A02A96FEA03436FEA134345
S214003B14042241F8043D6019FFF702FF25B12A4646
S214003B2439462046FFF7FCFE03B0BDE8F08304F4F4
S214003B346043B3F5005F05D10D4BC4F30B041C447E
S214003B442646C3E7EA210848FFF792FA6FF00F0605
S214003B540024BBE716F8013BFF2BBBD0F4214846F4
S214003B64FFF786FAB6E700BF60470300FF1FE00FC3
S214003B7400E00700FFF78ABE1FB5144A01AB1068C1
S214003B845168128903C31A8001238DF804300D236B
S214003B948DF80A3003230E4C082123208DF80B30B1
S214003BA402F006FE01A9204604F0F7F84FF400617F
S214003BB4022342F21800074AC2F8841123505160C7
S214003BC441F21C02A35004B010BD00BFE24703003C
S214003BD40080014A00E100E0014804F0CDB800BFCF
S214003BE40080014AA52803D10021024804F0B5B894
S214003BF4704700BF0080014A024B586800F001007D
S214003C04704700BF0080014A024A536A002BFCD169
S214003C14704700BF0080014A0020704700207047AC
S214003C247047000007B572B602F06BFF894B8A49ED
S214003C345B6940228B6000230B764B768B76F023F1
S214003C44CB760B774B778B77CA77802281F8202048
S214003C5481F82130E023602081F822307F4B81F800
S214003C64232083F8002383F8012383F8022383F8B0
S214003C74032383F8042383F8052383F8062383F8B1
S214003C84072383F8082383F8092383F80A2383F891
S214003C940B2383F80C2383F80D2383F80E2383F871
S214003CA40F2383F8102383F8112383F8122383F851
S214003CB4132383F8142383F8152383F8162383F831
S214003CC4172383F8182383F8192383F81A2383F811
S214003CD41B2383F81C2383F81D2383F81E2383F8F1
S214003CE41F2383F8202383F82103202083F822232C
S214003CF483F8232383F8242383F8252383F82623B1
S214003D0483F8272383F8282383F8292383F82A2390
S214003D1483F82B0383F82C0383F82D2383F82E23B0
S214003D2483F82F2383F8302383F8312383F8322350
S214003D3483F8332383F8342383F8352383F8362330
S214003D4483F8372383F8382383F8392383F83A2310
S214003D5483F83B2383F83C23CB6823F4E0631B04FB
S214003D641B0C43F0BF6343F40133CB604B6943F051
S214003D7410034B614FF4E0234B6204F0F9FEFFF7A7
S214003D842DFBEFF308834FF0CD31354A043B9342C5
S214003D945DD2344A002192B23348FDF73DF962B64B
S214003DA4684603F0EBFD314B9B6DDB0318D4304AB9
S214003DB4136823F4FF0323F4FE4343F4BC1343F4D1
S214003DC4A063136052F8043C23F4704343F4404366
S214003DD442F8043C52F8043C43F4E06342F8043CE2
S214003DE49DF80130012B0FD19DF8003063B94FF0D8
S214003DF400531B681F4B1B681F4B1B681F4B1B681D
S214003E041F4B1B681F4B1B681F4AD2F8803043F0B9
S214003E140303C2F8803002224FF040231A6704F0EE
S214003E24EDFD01F0E5FA002300938DF8043001233C
S214003E3468468DF8033002F000FF00F027F916F00C
S214003E4439F812480EF0CEF803B05DF804FB19609A
S214003E54043B9CE75400000000ED00E000E100E0B5
S214003E64A0110020D4100000A000002000C00040D4
S214003E7434C00040004000200080002000C0002025
S214003E840000012000400120008000407C730300F5
S214003E9440F2016015F0BCBFFEF7F2BD08B5002184
S214003EA40B20FEF7EBFDBDE80840FEF7EABD032055
S214003EB400F078BA08B5FFF7E1FA044B0B289ABF6E
S214003EC400B203EB8000184608BD00BF3249030069
S214003ED408B5FFF7D9FA044BC0F30F2253F8223083
S214003EE4C0B203EB800008BDFC48030010B5FFF722
S214003EF4C5FA0446FFF7C8FAC0B228B9012C24D183
S214003F0464F07F04E4B216E0072CF9D801A353F852
S214003F1424F000BF3B3F0000053F0000393F00008F
S214003F243F3F00003F3F0000433F0000473F000084
S214003F344B3F00000924204610BD0224FBE703245F
S214003F44F9E70B24F7E70624F5E70446F3E700BF92
S214003F5407282DE9F84F04460F462DD0082808BF39
S214003F64022421460120FCF7ABFBFFF745FE651E45
S214003F74D5F1000848EB050800B3012C1ED1A52096
S214003F84FFF730FE2646EFF31089012383F31088EB
S214003F94EFF3118A4FF0000B8BF31188354D404632
S214003FA407F042F9631EC5F800B0042B59D8DFE8C1
S214003FB403F00E4D4D5155000324D2E7FFF71CFEC7
S214003FC418B1FFF721FE0026DDE70646DBE72A4A9E
S214003FD4136923F00403136130BF284AD2F824344B
S214003FE4D2F8202413409BB2254A2B60D2F8001145
S214003FF4480102D51168490106D4D2F80011880197
S21400400405D51268910102D543F480332B601C4B0E
S214004014D3F80021520506D51B685B0542BF2B6802
S21400402443F400332B601EB10121164803F095FEBD
S214004034404607F02FF9CFB18AF3118889F3108828
S2140040442146BDE8F84F0020FCF73ABB012002F0F9
S214004054C7FDC2E7012002F0D7FDBEE702F0D6FD99
S214004064BBE788210848FFF703F8B6E787F310880C
S214004074E6E700BF1C2F002000ED00E000C0034070
S21400408400E100E00080014A6249030042F2204158
S214004094044AD2F820341B0C1B045350024A136003
S2140040A4704700BF00C00340182F00200021FFF710
S2140040B44FBFFFF7FBBF00002DE9F04F89B00DF0AE
S2140040C485FF0746002840F0DD806F4E6F4D31684F
S2140040D4286815F087F80446002827D033683C463D
S2140040E4D3E900019A6912689047336804A89B696B
S2140040F49B689847336802209B69DB689847326858
S21400410405985368E7B2B3FBF0F3BB42916904F138
S214004114010442D8CB680020984733689B695B68E3
S21400412498473168286815F05DF804460026DFF8DD
S2140041348891002C53D1564B4FEA8608F35C002B2B
S21400414431D1A246534BF35C0193534B03EB080B5C
S214004154019B5FFA8AF7BB42286853D84F4BF35C3F
S214004164002B3CD04C4B019F9844FBB27E2B286816
S21400417435D8D8F8003003AA07EB030A514602AB39
S21400418415F06AFA48452AD05146286815F0AAFA66
S214004194013704460028E8D021E012680B6907FBC3
S2140041A400209847ABE73C4B03AA53F826702868D0
S2140041B402AB394615F050FA484507D078B9039B48
S2140041C4012B0CD03946286815F08CFA344B394646
S2140041D453F8083028681A6815F068F9044601365A
S2140041E4232EA6D1B4FA84F32E4A5B0913702E4B01
S2140041F49C4241D02DD8002C32D0013B9C423FD06B
S214004204C5242DE0DBF8003003AA1F44394602AB70
S21400421415F022FA48450AD010B10AF1010A97E7C8
S214004224039B8BB9214B029AF35C9A42F5D01F4B41
S2140042341B4A9B5D52F808203946286815F0A8F8F2
S2140042440028EAD0044689E73946286815F04AFA71
S214004254EDE7174B9C4211D004339C42D0D1C124C5
S2140042642B681B7C23B14FF489711248FEF700FFBC
S214004274204609B0BDE8F08FC324F1E7C424EFE775
S214004284C224EDE7C624F3E7B41E0020B01E0020C7
S214004294A4230300F4220300EC230300C723030033
S2140042A418230300202F002002E000F078240300E7
S2140042B404E000F0DE4903000BE000F0222970B5AC
S2140042C406460C4615461AD8144A127822B3144ADF
S2140042D41068144A52F82110134A125D3AB1324655
S2140042E415F032F9C0B1BDE87040FCF7B8BD7F2DBB
S2140042F408BF00253246294415F094F8F2E7FF2952
S21400430403D9BDE87040FFF799BB40F24511BDE8FC
S21400431470400648FEF7ACBE70BD00BF202F0020DC
S214004324B01E0020EC230300A4230300DE49030090
S2140043342228F8B504460D46164619D814490978B5
S21400434429B31449144F0868144951F824103C5DE5
S2140043543CB1126815F0AAF8C8B1BDE8F840FCF7FD
S2140043647EBD7F2D08BF0025294415F011F8F3E71C
S214004374FF2805D91A463146BDE8F840FFF782BB48
S2140043844FF4BC71BDE8F8400548FEF771BEF8BDB1
S214004394202F0020B01E0020A4230300EC230300DB
S2140043A4DE49030008B5084B1B7863B1074B0022AF
S2140043B453F82010064B186815F006F918B1BDE836
S2140043C40840FCF74CBD08BD202F0020EC2303005A
S2140043D4B01E002070B5164685180AB9304470BD64
S2140043E401F00F030A2B34BF30243724013A234448
S2140043F4090905F8013DD2B2EFE70000F0B5F9B1BE
S21400440400281CDA2D23B0F1004F137000D0404270
S214004414012115E0801B8642ECB205F10105F9D9AD
S21400442404B927B101274D1C30345454E9B2013382
S214004434092B09D1303050540131C8B2F0BD0021E7
S21400444400231F46DFF808C05CF823600025E2E777
S214004454544A03002DE9F04F4FF0000B95B002AC20
S21400446481468A4617461D465E46A0463B7863B993
S21400447402ABE41AE4B2224619465046C84700285E
S21400448440F093803444E0B290E0252B13D0BBF187
S214004494000F14D12370013412AB9C426DD3A4EBED
S2140044A40804E4B2224641465046C84700287CD158
S2140044B42644F6B260E0BBF1000F00D101373B782A
S2140044C4632B00F092801BD8392B09D8302B80F050
S2140044D49E80002BCCD0252B51D04FF0000BDBE771
S2140044E4582B00F08B80622BF7D14FF0000B2B6813
S2140044F401936B680093009B9B4543D10835ECE71A
S214004504702B1ED017D8642B01D06C2BE5D16C2BE6
S21400451405F1040B28686CD17B78752B14BF012138
S214004524002101D0642B00D101372246FFF766FF35
S21400453404445D46D1E7752BE9D0782B5ED0732B07
S214004544CBD1A4EB0804E4B2224602A9504605F1F6
S214004554040B2D68C84740BB2644F6B2C4B22B5D94
S2140045640130002BFAD1224629465046C847E0B906
S2140045745D4683462644F6B24446013776E7237002
S2140045840134AAE7019B204613F80B100222FFF71A
S21400459421FF12AB984204460ED3A0EB0804E4B203
S2140045A4224641465046C84718B1002015B0BDE81B
S2140045B4F08F26444446F6B2009B013B5B4582BF1F
S2140045C420232370013412AB9C420BD3A4EB0804C3
S2140045D4E4B2224641465046C8470028E5D1264460
S2140045E44446F6B20BF1010B85E72B6804352370BD
S2140045F4C6E7752B0CBF0021012196E72046022250
S2140046042978FFF7E7FE05F1040B044691E77A786C
S21400461402F0DF02582A19D1322B07F1010B09D117
S2140046240422204629882F1DFFF7D4FE3D46044663
S2140046345F4652E7342B09D12F1D2D680422290C1E
S2140046442046FFF7C7FE0422A9B2EDE74FF0010BA0
S21400465422E70EB403B503AA52F8041B019206F02F
S214004664CFFEC0B202B05DF804EB03B070470000A2
S2140046740149FFF7EEBF00BF8C1D03000EB433B52F
S21400468405AA52F8041B0546019206F0B9FE044634
S2140046942846FFF7EDFFE0B202B0BDE8304003B0B5
S2140046A4704708B506F0ACFEC0B208BD2DE9F04F61
S2140046B49B46584B85B01B78064689461546109F80
S2140046C49DF844A0DDF85080002B00F09280072A65
S2140046D400F291800E9B002B00F08D800F9B002B28
S2140046E400F08980129BB3F5006F00F384800128E4
S2140046F401D1002F7FD0484B03EB05131B7B002B07
S2140047047BD0464C1022002168462DF0C7FA04EBF5
S21400471445141022B9F1000F5CD1494620462DF00D
S214004724BDFAA37843F01003A370E37843F0300394
S214004734E370BAF1000F03D1DBB243F00303E37076
S21400474436496A01129B885A013B63F30E100E9B8E
S21400475401EB020C8852CCF808300F9B9DF84C10E5
S214004764CCF804309CF80330012E61F38303CDF8B3
S21400477400B08CF8033042D113230CF1100ECCF8A1
S2140047840C309CE80F008EE80F006FF00301DCF895
S2140047941C20B9F1010F61F39F02CCF81C20CCF861
S2140047A4147004D10F9BCCF80470CCF81830002792
S2140047B419492A018B1841F80280159A28465A602E
S2140047C49F605E732246694602F052FF384605B083
S2140047D4BDE8F08F002120462DF060FA1023A37068
S2140047E40323E370BAF1000FAAD1DBB243F030031F
S2140047F4A5E70B48EBE70B48E9E70B48E7E7B8F112
S214004804000FD4D19CF8023068F304138CF80230FD
S214004814CDE700BFA4300020242F0020A42F0020C2
S214004824028000F0018000F0078000F038B5104BDD
S21400483405461B78BBB1C0B102F06BF900230D49E5
S21400484401EB0312147B3CB92B6001231460137331
S21400485402F065F9204638BD0133082BF0D102F08A
S2140048645EF90548F7E70548F5E70548F3E700BFAE
S214004874A4300020242F0020048000F0028000F0E2
S214004884018000F038B502F044F9002305460A4AD0
S214004894D1180C7B5CB91033802BF9D102F09AFE48
S2140048A4064B28461C7002F03AF9204638BD2846C6
S2140048B402F035F90248F9E7242F0020A43000203E
S2140048C4058000F00D4B10B51B78044693B10728FD
S2140048D412D802F01EF90A4B03EB04131A7B2AB112
S2140048E400241C7302F01BF9204610BD02F017F9D1
S2140048F40448FAE70448F8E70448F6E7A43000203A
S214004904242F0020068000F0028000F0018000F0D2
S214004914164B13B51868002301908DF8043002F086
S214004924F8F8134B1C7824B102F0F9F8114802B0D9
S21400493410BD01221A7002F0F2F80F4B1C731C779C
S21400494483F82C4083F83C4083F84C4083F85C4062
S21400495483F86C4083F87C4004230DEB03008DF849
S214004964073002F05BFE2046E1E700BF784A03000A
S214004974A4300020038000F0242F002010B588B057
S2140049840E9C009207940D9C024606949DF83040B7
S21400499405940B9C04949DF8284003940024CDE9C8
S2140049A4013420460B462146FFF780FE08B010BDB2
S2140049B410B588B00E9C009207940D9C024606948F
S2140049C49DF8304005940B9C04949DF8284003946D
S2140049D40024CDE9013420460B460121FFF766FE8C
S2140049E408B010BD08B50A4B1B785BB107280BD876
S2140049F4084B03EB00131B7B43B1002102F0FEFDC2
S214004A04002008BD0448FCE70448FAE70448F8E731
S214004A14A4300020242F0020028000F0018000F043
S214004A24078000F008B50A4B1B785BB107280BD843
S214004A34084B03EB00131B7B43B1012102F0DEFDA0
S214004A44002008BD0448FCE70448FAE70448F8E7F1
S214004A54A4300020242F0020028000F0018000F003
S214004A64078000F008B50A4B1B7853B107280AD80C
S214004A74084B03EB00131B7B3BB102F049FE0020FE
S214004A8408BD0548FCE70548FAE70548F8E700BF0F
S214004A94A4300020242F0020028000F0018000F0C3
S214004AA4078000F00D4B1B7893B1072812D889B104
S214004AB40B4B03EB00131B7B73B10A4BDA6A01231F
S214004AC403FA00F010401ABF00200B7008707047FD
S214004AD4054870470548704705487047A4300020CD
S214004AE4242F002000000440028000F0018000F023
S214004AF4078000F00B4B10B51B780C4663B10728F3
S214004B040CD859B1084B03EB00131B7B43B102F0DE
S214004B1411FE2060002010BD0448FCE70448FAE7B4
S214004B240448F8E7A4300020242F0020028000F078
S214004B34018000F0078000F02DE9F843174B1F6D45
S214004B445B6D1F4000D5FEE701260025144CDFF8F8
S214004B545480DFF85490374217D02368C8F80060B2
S214004B649BB1A16862680131A16028469847637BBF
S214004B74012B0AD148B909EB4513197B1A7F60F358
S214004B84410160F3410219731A770135082D4FEA83
S214004B94460604F11004DED1BDE8F88300000440A4
S214004BA4242F002050200440A42F002070B5044673
S214004BB40125084E04B970BD94FAA4F0B0FA80F04A
S214004BC405FA00F324EA030456F82030002BF1D04B
S214004BD49847EFE7A83000204FF00072044BC3F864
S214004BE480211A604FF08062C3F880211A607047F3
S214004BF400E100E038B504460D4601F08AFF034B99
S214004C0443F82450BDE8384001F089BFA83000209E
S214004C14084BD3F82404D3F82024104042F2204250
S214004C2420F42A5020F02A004004400C9850FFF745
S214004C34BDBF00BF00C00340084BD3F82404D3F81C
S214004C442024104042F2204220F4AA4020F05500CE
S214004C540004000C9850FFF7A9BF00BF00C0034033
S214004C64104A30B5136841611546ABB910608360CD
S214004C7411E0091B9C6841611A467CB123465C69B5
S214004C848C42F6D9002CF4D052B19060836013B1F4
S214004C945A69511A596130BD0022F0E72346F4E7F9
S214004CA42860F3E7FC30002010B500F0B1FA094B99
S214004CB4094A196831B11368C41A4B69A34203D36D
S214004CC41B1B4B61106003E0C01A002310604B618D
S214004CD410BD00BFFC300020EC300020074B10B5A0
S214004CE41B6802205C69064B1B681C4400F0C4FA6F
S214004CF42046BDE8104000F093BA00BFFC30002008
S214004D04EC30002070B59DF8145016460571002549
S214004D14049A8560BDF818500446C5800260C0E950
S214004D2403360D4629B961610BB11146984796B111
S214004D34354601F0EEFE0646FFF7B6FF2946204646
S214004D44FFF78EFF054B1B68A34201D1FFF7C6FF92
S214004D54304601F0E4FE002070BD00BFFC300020A9
S214004D6400210C4A13687BB183420AD1836879B167
S214004D748B6083681BB15A6941690A445A610020F2
S214004D84704719469B68EEE70028EFD0022070476C
S214004D941360EEE7FC30002070B501F0BAFE114D4A
S214004DA406462C78CCB9104B1C60104B1C60104B7C
S214004DB41C8000F0F3F9012000F05EFA00F0AAFA75
S214004DC40C4B0246186040F2E73123460A482CF0A2
S214004DD483FD0A4B186001232B70304601F09FFEBA
S214004DE4002070BDE8300020FC300020EC300020AD
S214004DF4F4300020F830002018FCFFFFF0300020CC
S214004E042DE9F0410546F8B101F083FE0F4F064642
S214004E14FFF74AFF2846D7F80080FFF7A1FF0446AD
S214004E2428B1304601F07BFE2046BDE8F081A84557
S214004E343B6803D123B1FFF751FFF2E7002BF0D113
S214004E44022000F025FAECE72224EDE7FC300020EF
S214004E54F0B50D4685B016461F46044680B1FFF7EA
S214004E64CFFFBDF82C30002202939DF82830294647
S214004E74CDE9007320463346FFF744FF05B0F0BD86
S214004E842220FBE738B50C46054698B191B10023BD
S214004E940B7001F03EFE0121074B1B680BB1227814
S214004EA41AB101F03CFE002038BD9D420CBF2170B3
S214004EB49B68F3E72220F7E7FC300020F0B51F4696
S214004EC4002387B00D4616468DF817300446A0B169
S214004ED40DF11701FFF7D6FF9DF817207AB9BDF834
S214004EE43430294602939DF830302046CDE90073CD
S214004EF43346FFF707FF07B0F0BD2220FBE7032089
S214004F04F9E70000F8B50C460646C8B1C1B101F091
S214004F1400FE0546FFF7C8FE73692360134B1B6843
S214004F24B3420FD023B9284601F0F9FD03201CE054
S214004F34596922689B680A442260F1E700230FE05F
S214004F44222012E0276800F063F9094E3368C01A7D
S214004F548742F3D900F05CF93368C01A23681B1A39
S214004F642846236001F0DBFD0020F8BDFC3000205D
S214004F74EC30002070B501F0CCFD064600F048F990
S214004F84094B05461C880120A4B200F099F918B113
S214004F9400F03EF905460134304601F0C0FD00221B
S214004FA4214642EA050070BDF43000200A4B10B5D5
S214004FB41B680C4683420CD3084B4FF47A7219686C
S214004FC40023A0FB01012CF087FC013020600020A8
S214004FD410BD2120FCE700BFF0300020F830002090
S214004FE4104B10B51A684FF47A73A0FB0301A2B1F4
S214004FF4531E134211D1B2FA82F2C2F11F02C2F159
S2140050042004A2F1200301FA04F420FA02F2224357
S21400501421FA03F342EA030010BD00232CF05CFCE3
S214005024FAE700BFF830002000000000F8B5164686
S2140050341BA3D3E900238B4208BF82422AD3174B13
S2140050441A684FF47A73A0FB034503FB0155C2B1FB
S214005054531E13EA020014D1B2FA82F2C2F11F02FE
S214005064C2F12007A2F1200124FA02F305FA07F799
S2140050743B4325FA01F10B4325FA02F2C6E9003256
S214005084F8BD0023204629462CF026FCC6E900017C
S2140050940020F5E72120F3E7AFF30080F830002086
S2140050A4EFA7C64B37894100C2072DE9F84F0446DF
S2140050B40BD5374A138801339BB21380FFF7F4FDF0
S2140050C4344B1B680BB1FFF709FEA3075DD500F050
S2140050D49FF8314E074635684FF0000A451B01F02D
S2140050E418FD8046DFF8AC90D9F80040002C48D074
S2140050F46369AB4209D95D1B65613760FFF7EEFD56
S2140051044046BDE8F84F01F00ABD23462A463760FC
S2140051145969914209D8187994F804C0521A8445FA
S21400512488BF1C469B68002BF2D1404601F0F7FC72
S214005134D4F81480C4F814A001F0EBFC834620468F
S214005144FFF70EFE584601F0EAFC23694BB101F066
S214005154E0FC834621692046FFF782FD584601F0AD
S214005164DEFCE36813B121682046984700F050F847
S2140051744744ED1B0446054401F0CBFC2746804615
S214005184B2E7022000F084F8BAE7BDE8F88F00BF63
S214005194F4300020FC300020EC3000201FB5002442
S2140051A4184B18689A88029053F8060FADF80C202E
S2140051B41B79009002A88DF804308DF808408DF80D
S2140051C40C4002F041FB694601208DF8004002F0D5
S2140051D4FFFA4FF090431F219A6922F01F029A614A
S2140051E4094A11609A6A12F00802FBD11A62012079
S2140051F402F008FB4FF48062044BC3F880211A6067
S21400520404B010BD7C4A03001420004800E100E00E
S2140052144FF090439A6A1207FCD4186A704700004D
S2140052244FF09042936A1907FCD4136A116C5269C2
S214005234120704D4CA1A022A01D899420ED1C21AF5
S214005244012A98BF981CB0F1FF3F28BF01304FF0E9
S214005254904318649A6942F008029A61054A1378E2
S2140052643BB14FF09041CB6B43F00203CB6300237A
S21400527413707047641E002082074FF0904200F0BF
S2140052840103916948BF43F008030B4393617047D9
S214005294830700F001020AD50121084B42F00802F8
S2140052A419704FF09041CB6B23F00303CB634FF0A0
S2140052B490418B6923EA02038B617047641E0020C9
S2140052C44FF0904301285B6904D0022805D1C3F34C
S2140052D4C000704703F001007047002070470000CC
S2140052E410B501F016FC4FF0904304465B691A07AC
S2140052F4074A03F0010003F00D0348BF40F0020024
S2140053041360FFF7D1FE2046BDE8104001F007BC4D
S214005314142000481B2001F00DB90000002211469D
S2140053242D48F0B503682D4D54592CB11E68AC18A1
S214005334002E3DD1234601210832282AF4D101B19A
S2140053440360002214462649264E0B6895592DB153
S2140053541F68B518002F32D12B4601240832282A9C
S214005364F4D104B10B6000680368002B2FD04FF013
S2140053744022936F007923F0FF7323F4803343EACB
S21400538400439367184B4FF0004209681A600B6895
S214005394FBB14FF04022936F097923F4FF7323F097
S2140053A401030B439367104B4FF080421A60F0BD25
S2140053B41E792779B74284BF23460121BCE71F79AB
S2140053C495F804C0BC453CBF2B460124C6E7074BF2
S2140053D4D9E7064BE8E700BF04310020143100206B
S2140053E4083100203C3100206850004068600040CE
S2140053F410B5012228240F4B00211A700E482246AD
S2140054042CF04CFC224600210C482CF047FC0C4B9C
S2140054140C4A13600C4A13604FF040430B4A136067
S214005424536020220A4BC3F880211A60FFF776FFE8
S214005434002010BD00310020143100203C31002033
S2140054440C31002004310020083100206460004044
S21400545400E100E04FF04022D2F88800D2F888300D
S214005464C0F38800C3F388039842F5D16FF48873B9
S214005474184440B2704700004FF04022936E526EBC
S21400548410B5134013F0804211D0114B1B681C68F2
S2140054942CB1002119605960FFF7DCFFA0474FF0DC
S2140054A480420C4B1A60BDE81040FFF737BF002B54
S2140054B4F9DA094B1B681C682CB11A605A60FFF7AE
S2140054C4C9FF0121A047034B4FF00042EAE700BFA3
S2140054D4083100206460004004310020FFF7CCBF90
S2140054E4012203685A619A69D207FCD541F2AC528C
S2140054F4042103795B0103F1804303F5703399506B
S2140055047047000038B141B1013AB2F5006F044863
S21400551438BF00207047034870470148704700BFF3
S214005524037000F0027000F038B504460D4601F032
S214005534F0FAA28892B222B92A6001F0F0FA06487C
S21400554438BD1422638802FB034308332B6001F042
S214005554E6FA0020F4E700BF0B7000F038B5044606
S2140055640D4601F0D6FAA3889BB223B92B6001F04E
S214005574D6FA0C4838BD14226388E18802FB03433C
S21400558408332B6063885A1C92FBF1F301FB132348
S2140055949BB26380A388013B9BB2A38001F0BFFA51
S2140055A40020E7E70B7000F090F83130022B0BD1A7
S2140055B43022437F90F821005A43044B9B5823FA29
S2140055C400F000F0010070470020704714C003404C
S2140055D4002313B51C4A52F8234094F82110814244
S2140055E40ED00133042BF6D102B010BD0028FBD137
S2140055F49DF80730002BF7D0A068FFF7F3F9F3E720
S21400560494F83130022BEFD12046FFF7CDFF637EAE
S2140056142076022BE8D194F82E3003F0FF02002BFC
S214005624E2D102A901F8012DA068FFF73BFA237E18
S2140056341BB194F82F30002BD8D00023A06884F830
S2140056442F30FFF7EFF9CFE764310020012230B5A1
S21400565490F8324087B080F82C207CB9094D036856
S214005664CDE9024504904C682433CDE900240A6849
S2140056744169C068FFF79CF907B030BD002380F885
S2140056842C30F9E73D5F0000012330B590F8324036
S21400569487B080F82D307CB9094D0268CDE9024503
S2140056A404904C683C32CDE900340B68016980688C
S2140056B4FFF764F907B030BD002380F82D30F9E712
S2140056C4C9560000F7B5906A01A91446FFF72CFFE7
S2140056D4144B984220D00025019B1D619D6001F06B
S2140056E418FA019A0746D66826B1D2E90023294655
S2140056F42046B04701A9A06AFFF730FFA06A838856
S2140057049BB263B101A9FFF70FFF01992046FFF78B
S214005714BBFF384601F003FA012003B0F0BD84F85D
S2140057242D30F6E70B7000F0F8B5044617460D4624
S21400573401F0EFF9A388E28806469A4205D80023CA
S2140057443B6001F0ECF91648F8BD1422238805F1F5
S214005754100C02FB034308332A4603CA624518604A
S2140057645960154603F10803F6D110681422186030
S2140057742388E18802FB034308333B6023883046D2
S2140057845A1C92FBF1F301FB13239BB22380A388DC
S21400579401339BB2A38001F0C2F90020D4E700BF16
S2140057A40A7000F02DE9F3410D460446002800F087
S2140057B4868001F0AEF9012D064637D1A36A9B8890
S2140057C49BB2002B39D0A068FFF74CF90023A06ADF
S2140057D484F82D3083889BB2002B34D122689369D9
S2140057E49B04FCD5023D012D1BD8E068FFF73AF96F
S2140057F40023606A84F82C3083889BB2002B41D146
S21400580494F83130032B0CD042F2AC5204212379A5
S2140058145B0103F1804303F5703399500222236839
S2140058245A61304601F07BF9002009E0022D48D188
S214005834636A9B889BB2002BD4D101F070F926488A
S21400584402B0BDE8F08101A9FFF76EFE0199A068D9
S2140058540831FFF74FF9214F019B1F61A06A838827
S2140058649BB2002BBAD001A9FFF778FE019BD3F8B0
S2140058740C80B8F1000FF1D09B6800223946204610
S214005884C047EBE76946FFF74FFE0099E06808312A
S214005894FFF730F9114F009B1F61606A83889BB243
S2140058A4002BADD06946FFF759FE009BDD68002D3E
S2140058B4F3D09B68002239462046A847EDE70848FF
S2140058C4BEE7032D8ED1A36A9B889BB2002B7FF480
S2140058D47AAF636A73E700BF087000F0097000F0DF
S2140058E4027000F0036898697047436A9888C0B2EB
S2140058F470472DE9F341984600230546406A0E4654
S21400590484881746A4B2CDE900333CB16946FFF754
S2140059140BFE01A90446E868FFF7ECF8009969B1A4
S21400592464B94868019BC01A3860C8F800300B6830
S21400593433602B68986902B0BDE8F0810021C8F88E
S214005944001039603160F4E7836A9888C0B2704703
S2140059542DE9F341984600230546806A0E4684885E
S2140059641746A4B2CDE900333CB16946FFF7DCFD27
S21400597401A90446A868FFF7BDF8009969B164B99F
S2140059844868019BC01A3860C8F800300B6833605A
S2140059942B68986902B0BDE8F0810021C8F80010B1
S2140059A439603160F4E7007E70472DE9F041044623
S2140059B40F469046FFF7A6FD0546002839D1152068
