:10000000001B00209D940100A5340000A9340000CD
:10001000A70B0000000000000000FFFF54000000DC
:1000200004180F00000000000000000000000000A5
:1000300000000000000000000000000000000000C0
:10004000000000000000000000000000A701000008
:0400500000000000AC
:10005400001B00209D940100A5340000A934000079
:10006400A70A0A010002000004180FACA067A70148
:10007400000000000000000000000000000000007C
:10008400000000000000000000000000000000006C
:100094000000000000000000FFFFFFFFFFFFFFFF64
:1000A400FFFFFFFF006007000000000000000000E9
:1000B400FFFFFFFFFFFFFFFF8000000000000000C4
:1000C400000000000000000000000000000000002C
:1000D4000000000000000000045100200451002032
:1000E400001B0020C072030070F80200A011002061
:0C00F4007411002000E007000000000074
:10020000001B00209D940100A5340000A9340000CB
:100210002D7A0000AD340000B53400009B9401003D
:100220009B9401009B9401009B9401009B9401000E
:10023000B93400009B9401009B9401009B94010041
:100240002C3500002C3500002C3500002C3500002A
:100250002C350000F1500000215E00002C3500001C
:100260002C3500002C350000F54E000045AA00009A
:100270002C3500002C3500002C3500007DAA000034
:100280002C3500002C3500002C3500009B9401001B
:100290002C350000514700002C3500002C350000A3
:1002A0002C35000051480000294800002C35000082
:1002B0002C3500002C3500002C3500006D6E01003F
:1002C000F96D0100F56D010035650100696E0100F1
:1002D000FD6D01001D6E0100016E01009B94010087
:1002E000B16E01002C3500002C3500008D37000068
:1002F0002C3500002C3500002C3500009B940100AB
:100300002C3500002C3500002C3500002C35000069
:100310002C3500002C3500002C3500002C35000059
:100320002C3500002C3500002C3500002C35000049
:040330002C35000068
:10033400F8B500BFF8BC08BC9E467047F8B500BFCE
:10034400F8BC08BC9E46704710B5054C237833B9F9
:10035400044B13B1044800E000BF0123237010BD17
:1003640034240020000000008469030008B5034B16
:100374001BB10349034800E000BF08BD00000000B2
:100384003824002084690300154B002B08BF134B4D
:100394009D46A3F5803A00218B460F461348144A24
:1003A400121A2FF03FFA0F4B002B00D098470E4B38
:1003B400002B00D098470020002104000D000D48B8
:1003C400002802D00C4800E000BF2FF0EDF9200017
:1003D40029000AF0A1FD2FF0D3F900BF00000800A6
:1003E400001B002000000000000000003424002056
:1003F4000451002000000000000000001FB501238C
:100404000022009306210DF10F030CF034FE20B9F5
:100414009DF80F3023B103F089F805B05DF804FBB3
:1004240003F085F8F9E7000030B50024144D85B0D9
:100434002C700BF02BFC022817D100900DF10E0349
:100444002246032101200CF016FEBDF80E0048B12F
:10045400204603F06DF84FF47A6128461DF0EAFD5A
:1004640005B030BD03F062F8FAE708F097FA054BDF
:100474000090054A054901200DF0E0FFF0E700BFB8
:10048400C8420020AD0F030070F8020075F80200A6
:1004940008B50BF0FBFB02280CD10022064B01200F
:1004A4001A7006F043FFBDE80840024603490120E4
:1004B4000DF0C4BF08BD00BFC042002089F802008F
:1004C4007047FFF79BBF09B9FFF798BF704738B56E
:1004D400C37B05460BB1832038BDC47C2CB901F025
:1004E400C1FF20B9EB7B002BF5D18120F4E7204636
:1004F400F2E7C37B10B504460BB1832010BDC37C67
:100504001BB1012B10D08120F8E7017D82898B1C5F
:100514009A420CD380680DF0E0FA07F0FFFA40B974
:10052400E37B002BE9D1EEE707F010FBF7E780202F
:10053400E4E70020E2E7F8B5C37B04460BB183206F
:10054400F8BDC37C052B29D8DFE803F0032A354125
:100554004C4F057D8289AB1C9A4201D28020EFE783
:10056400ADB2294680680DF0B8FA0646A068023597
:100574002844A7890DF0CAFA284401308742EDD3F4
:100584002946A289A0680DF0AFFA0146304606F06C
:100594008DFF002848D1E37B002BD0D18120CFE709
:1005A400017D82898B1C9A42D8D380680DF095FA1C
:1005B40006F09CFFEDE7037D81895A1C9142CDD35F
:1005C4008268591C1144D05C06F0C0FFE1E7017D4C
:1005D40082898B1C9A42C1D380680DF07EFA07F0A1
:1005E40037F8D6E707F090F8D3E7057D8289AB1C8E
:1005F4009A42B3D3ADB2294680680DF06EFA06462E
:10060400A06802352844A7890DF080FA28440130F7
:100614008742A3D32946A289A0680DF065FA014652
:10062400304607F0B9F8B4E7002089E7C37B2DE929
:10063400F7430446002B40F0BA80C37C062B00F23B
:10064400B880DFE803F0044A5A6A7585A800057D7E
:100654008289AB1C9A4203D2802003B0BDE8F083A8
:10066400ADB2294680680DF038FAA289E91C8A42A5
:10067400064605F10203EFD3881C8242ECD3A0683E
:100684000535C75C0DF029FA8046A068B4F80C90D3
:1006940028440DF03BFA284401308145DCD3294637
:1006A400A289A0680DF020FA8146A06828440DF0C4
:1006B4002DFA01300544A0684B4610FA85F50095E3
:1006C40042463946304609F0F9FD002873D1E37BF0
:1006D400002B14BF83208120BFE7057D8289EB1C9A
:1006E4009A42B9D3ADB2294680680DF0F6F9A368F1
:1006F4000235595D09F056FEE7E7057D8289EB1C5A
:100704009A42A9D3ADB2294680680DF0E6F9A368F0
:100714000235595D09F078FAD7E7017D82898B1C8F
:100724009A4299D380680DF0D8F909F0DBFACCE746
:10073400057D8289EB1C9A428ED3ADB2294680682E
:100744000DF0CBF9A3680235595D09F01DFCBCE737
:10075400057D8289AB1C9A42FFF47EAFADB2294677
:1007640080680DF0BAF9A289E91C8A42064605F1AF
:100774000203FFF471AFA068C75C8B1C9A4207D3D5
:100784000DF0ABF902463946304609F05BFC9CE7B4
:100794004FF6FF72F7E7017D82898B1C9A42FFF4C2
:1007A4005BAF80680DF099F909F006FB8DE78320B3
:1007B40053E7812051E700204FE7C37B10B504467F
:1007C4000BB1832010BDC37C012B0BD003D3022BB0
:1007D4000BD08120F6E708F09FFA48B9E37B002BA1
:1007E400EFD1F6E708F0A8FAF7E708F0B5FAF4E76E
:1007F4000020E7E738B5C37B0446002B437D14BFD4
:100804008325C325012B15D0637DDBB92368228A98
:10081400598858790BF03DFFA0B123685B88042BFD
:1008240022D011D8DBB1032B0CD12046BDE83840CF
:10083400FFF75FBE0368028A598858790BF032FFCC
:100844000028E1D0284638BD062B17D011D3252B1C
:10085400F8D1E37B002B14BF83258125F2E72046E2
:10086400BDE83840FFF733BE2046BDE83840FFF707
:1008740062BE2046BDE83840FFF7D8BE2046BDE83A
:100884003840FFF79ABF7047012070470120704736
:1008940001207047704700207047002070470020F7
:1008A40070470020704700207047002070470120E7
:1008B400704701207047B520704700207047002022
:1008C4007047002070470020704770470020704731
:1008D400704700207047704700207047842070479D
:1008E40070477047704770470020704770477047E3
:1008F400704700207047002070470000034B1B68BE
:100904001878012808BF0220704700BF343B00203C
:100914000020704703460120024AC3E90320002255
:100924001A7070470100FEFF7047002070470020D6
:1009340070470020704700207047002070477047C0
:10094400B520704700207047002070477047002092
:10095400704770477047B5207047704770477047BD
:1009640000207047704770470023FF21084A137026
:1009740082F8783082F8653082F8773082F87930FE
:1009840082F87A1082F87B30024A1360704700BF05
:1009940050240020D0420020F8B50D468C680A6827
:1009A40006462849202003F05EFC6B687BB9264983
:1009B400202003F058FC202009F0B4FD2349202016
:1009C40003F066FCBDE8F840202009F0ABBD002E22
:1009D400F1D01F4D1F4E204F013C14F8013F23B9A5
:1009E4001A49202003F054FCE5E7752B18D0762B28
:1009F40018D0772B18D0732B18D0722B18D0712BDA
:100A040018D0622B18D06E2B18D02A2B18D013496B
:100A1400134A212B18BF1146202003F024FCDCE7E5
:100A24002946F9E73146F7E73946F5E70D49F3E793
:100A34000D49F1E70D49EFE70D49EDE70D49EBE706
:100A44000D49E9E7E13F03003DF90200EEF8020039
:100A5400FBF80200EFF8020006F9020047F9020071
:100A640044F9020012F902001CF9020027F90200FD
:100A740032F902003CF9020041F90200F0B5002607
:100A8400204A92F87B30184452FA80F090F865C0FE
:100A940090F8665030461C4BA5EB0C051F78EDB260
:100AA400F4B2A54225D90CEB060313445B7811B1CB
:100AB4000CB92D2B17D0782B1FD0582B05D108B18A
:100AC40037240AE0013C012C14D9602B17D8402BA1
:100AD400F6D83A2B34BF302400241B1BDBB29F42D0
:100AE40003D900FB07300136DAE70523002082F83A
:100AF4007930F0BD10270020F5E70028E2D0572414
:100B0400EBE700BF50240020981C0020FFF72CBF07
:100B1400034B93F8770093F87B30C01AC0B2704748
:100B2400502400200021FFF7A9BF000010B50A4B94
:100B340093F87B20024453FA82F292F8652013441E
:100B44005C78A4F12D0359425941FFF797FF2D2CEE
:100B540008BF404210BD00BF5024002030B50C4AED
:100B640092F87B300344C043DBB2C00F39B1D518CF
:100B740095F8664095F86550641B241A0C7042FA87
:100B840083F393F865301844024B184430BD00BF1A
:100B94005024002051240020F7B515460E460DF1CF
:100BA40007011C46FFF7DAFF9DF807300746AB4202
:100BB40088BF8DF807501CB19DF807402C1BE4B288
:100BC40022463046002100F079FB30199DF80720B9
:100BD400394600F017FB9DF8070003B0F0BD38B5A7
:100BE4000C4601230822FFF7D7FF04F10803621E15
:100BF400043413F8011D12F8015FA3421D70117033
:100C0400F7D138BD38B5054601460120FFF7C4FECB
:100C1400D5E901436CB91C46084D236863B12946E4
:100C2400202003F020FB21460020FFF7B5FE0C3402
:100C3400F3E71B786E2BEFD038BD00BF01420300F1
:100C440008B50449202003F00EFBBDE8084020202D
:100C540009F068BCAFF8020038B5FFF7F1FF0024D3
:100C6400054D61190C34631953F80C3C03B938BDB4
:100C74000020FFF791FEF4E7900603002DE9F84FFA
:100C84001F4B204D53F820201F49202003F0EBFA7E
:100C94002B681BB9BDE8F84FFFF7DEBF1B4FFFF70A
:100CA400CFFF0026B946DFF86CA097F87B30F4B28A
:100CB400013B9C4204DB2868BDE8F84FFFF7A2BF64
:100CC40047FA86F393F8658000234C44C84494F8AB
:100CD400662094F8651003F1010B521ADBB2D2B20C
:100CE400934205D30A49202003F0BDFA0136DCE71C
:100CF40043445A785146202003F0B5FA5B46E6E7B0
:100D04009C1C0020D0420020AAF80200502400209D
:100D1400024203003C4403002DE9F74F884C94F849
:100D24007730002B00F0A180864B671C1B7813F0F2
:100D3400010F1FD00025844E14E0631993F8662038
:100D440093F865302020D21A44FA85F393F865109D
:100D5400D2B2394409F0E1FB3146202003F083FA92
:100D64000135EDB294F87730AB42E6D877492020CC
:100D740003F079FA002694F87730DFF8DCE1019388
:100D8400734B4FF00008714645461EF8012B91F84D
:100D940001C007EB020AACEB020C5FFA8CFC18688A
:100DA400002852D00138D14619E02AB9002D4AD082
:100DB4004FF001080C33F2E719F8011BA1F1410BC4
:100DC400BBF1190F98BF2031A2F1410B98BFC9B2F2
:100DD400BBF1190F9CBF2032D2B28A42EAD1A9EBEF
:100DE4000A01614510F8012FDFD1002ADED11D462A
:100DF400584B01361D6094F87B30F6B2013384F809
:100E04007B30D5E90123002A35D01B786E2B31D0F5
:100E14003F2B23D04FF000094FF0070BC8460423A3
:100E240094F87710AA68B14212F808702BD8AFB1C1
:100E3400904498F801302A2B10D0212F1CBF032393
:100E440084F879300AE01D46B4E7B8F1000F01D107
:100E5400002DCDD10223002584F8793094F879004F
:100E6400002869D168680CF027FB03B0BDE8F04F97
:100E7400FFF77ABD1346019AB24282D803221D4677
:100E840084F87920EAE7732F09D8712F0BD2212F28
:100E94001FD0622F3CD0002F4BD1032246E0A7F194
:100EA4007502022A45D8752F29D0762F2AD0732FA0
:100EB4002BD0722F47F6FF7A18BF4FF0FF3A01216B
:100EC40048460193FFF7DAFD5045019B01D984F8A8
:100ED4007930AA68424452782A2A94F879201CBFAF
:100EE40008F101085FFA88F8002AB7D1212F1FBF43
:100EF400013609F10109F6B25FFA89F990E74FF07A
:100F0400FF0ADCE74FF6FF7AD9E74FF07F0AD6E70E
:100F140094F87B204A4454FA82F292F865202244E1
:100F24005278222AD5D07B2AD3D0052284F879207E
:100F3400CFE784F879B0CCE7FFF7A0FE95E700BFD0
:100F440050240020CC24002002420300ECF80200CC
:100F540090060300D0420020B52400202DE9F3417F
:100F640006460D464FF000085C4C5D4F66B90DF126
:100F74000701284609F0CCFA78B1262800F0A980A8
:100F8400012384F879304BE0002D00F0A28016F89C
:100F9400013B013D8DF80730EDB23A789DF80730FA
:100FA4000D2A3B7001D10A2BE0D00D2B0CD0A3F1FC
:100FB4000A025142514122788846042AD6D8DFE8F1
:100FC40002F0051D263C31000121F4E721B1FFF7B1
:100FD400A3FE4FF00108C9E7202B63D0222B07D1D1
:100FE4000223237094F87820642A5DD10623C8E78D
:100FF4007B2B01D10323F4E70123F2E709B9202B6A
:10100400F0D194F87730112B3FD10323B9E7222B89
:10101400F7D00029E6D005234FF0010884F8793091
:1010240004232370B8F1000FA0D094F8790008B11C
:10103400FFF724FEFFF798FC98E77D2B94F87A00DD
:1010440003D1FF28DDD005239BE7602B13D8402B69
:1010540013D8392B8CBF002230229A1AD2B20F2A0D
:1010640010D8FF280BD0FF2302EB00128DF80720C5
:1010740084F87A30B6E75722EFE73722EDE784F8B1
:101084007A2073E7202BDED170E70133DBB294F8CA
:10109400782084F87730234483F865200023237074
:1010A400002994D1884661E72378012B09D19DF862
:1010B4000730A3F1410119299CBF2033DBB28DF81D
:1010C40007309DF80710A3180132597084F878206E
:1010D4004CE7404602B0BDE8F08100BF5024002038
:1010E400CD24002049BA89B24840C0F303114140DD
:1010F400080380B24840C3B280EA4310704719F035
:101104009DB9704770477047704770477047704784
:1011140070477047704770477047704770470020AA
:101124007047704770470020704770477047002031
:101134007047704770477047002070477047012020
:101144007047012070477047704770477047704779
:10115400704770472DE9F0470024204DDFF89C903C
:10116400DFF89CA05FFA84F840461CF021FDFF28BC
:1011740006460CD122461A49287803F089F82878C3
:10118400013409F0CFF9142CECD1BDE8F087154BEC
:1011940047B213EA270338BF534659F824201249AB
:1011A400287803F075F8002FE9DA14B1B8F1030FC9
:1011B40008D10E4B16F0010F0D49287818BF1946B7
:1011C40003F066F80A2CDAD10A4B16F0010F0A492B
:1011D400287818BF194603F05BF8D0E731210020C6
:1011E40065FA0200EEF802008DFA020028FA020005
:1011F4003EFA020050FA02005AFA0200D4F9020040
:10120400544003008842F0B54FEA92031AD80446CA
:101214000D469BB29E00871904370434BC4205F185
:1012240004053AD1C3EB8333314402EB8303013E1B
:10123400304411FA83F3994220D011F8012B00F8BD
:10124400012FF8E7541E204421440D4604469BB266
:10125400A0EB8306043E043CB442A5F104050ED180
:101264006FF003045C43C3EB833302EB8303214439
:101274009BB201342044CB1A994209D1F0BD2F7995
:101284002771EF78E770AF78A7706F786770E2E73F
:1012940011F8012900F8012DEEE715F804CC04F843
:1012A40004CC15F803CC04F803CC15F802CC04F8EC
:1012B40002CC15F801CC04F801CCAEE7024490420C
:1012C40000D1704700F8011BF9E710B50138013966
:1012D4000AB9104606E010F8014F11F8013F9C428C
:1012E40001D0E01A10BD013A92B2F1E782B2074B85
:1012F4004AB1000C1A8008BF4FF6CE22044B14BF2B
:1013040018801A8070474BF6EF62F2E76C1D0020DC
:101314006E1D0020094B1888020448BF80F062004B
:1013240042001A80064A1388190444BF83F4805388
:1013340083F00B0359001180584070476C1D002046
:101344006E1D00200022034B1870034B1970034BD1
:101354001A707047D7240020D6240020D8240020F7
:101364002DE9F04F234E85B0337807468846002B8D
:101374003DD04FF6FB73204D98422C7803D952216F
:101384001E4801F07FFC1E4B4FF0000B9A4632784A
:101394005FFA8BF94A45187811D9484402A9C0B2BA
:1013A400019325F0F5F9082241460DEB0200FFF701
:1013B4008CFF0BF1010B019B0028E8D14C462B78E4
:1013C400A34207D1631C3278DBB29A422B7004BF6C
:1013D40000232B709AF8003041461C44E4B22046A6
:1013E40025F0FEFA18B93946204625F09FF905B0D4
:1013F400BDE8F08FD6240020D824002082FB020010
:10140400D7240020024B187800F07F00704700BFFB
:10141400D9240020034B18780130C0B2187000F0B2
:101424007F007047D92400201FB5030A8DF80E30C1
:101434000323009303AB8DF80D0000F0BFF905B052
:101444005DF804FB1FB58DF80F100421030A8DF815
:101454000E30009103AB8DF80D0000F0AFF905B02C
:101464005DF804FB2DE9F043994689B0BDF840507E
:101474009DF84460074688460DF10900114608228C
:10148400BDF84C40FFF7BEFE8DF81250012E4FEA16
:1014940015258DF811908DF813508DF8146017D020
:1014A400032E1CD1082212990DF11500FFF7AAFE94
:1014B4009DF850308DF81D3016230093BDF854204C
:1014C40002AB4146384600F079F909B0BDE8F08333
:1014D4008DF81540240A8DF816400F23EDE70120FE
:1014E400F3E71FB50C46194602238DF80D2000932F
:1014F4000A4603AB0146204600F060F904B010BD73
:1015040070B586B0044616460DF10D0008221D463E
:10151400FFF778FE0A232A460093342103AB2046C2
:101524008DF8156000F04AF906B070BD30B500249E
:1015340085B0ADF80A20021D92B2012A1D46ADF80D
:101544000840ADF80610ADF8044003D94FF6FF7219
:10155400904207D1064A2B46127801A923F05AFA81
:1015640005B030BD014601AA204623F019FBF7E778
:10157400701D00202DE9F74F9846FF2A16BF474BF0
:1015840000241B680E4618BF9C5C814618BF640883
:10159400B8F1FF0F16BF414B00271B6815461CBF4F
:1015A40013F808707F08FFF735FF4FEA19238DF809
:1015B40000008DF803600621360A68468DF8046041
:1015C4008DF801908DF802308DF805401DF0A8F8D3
:1015D400FF28064604D11824204603B0BDE8F08F46
:1015E4004FEA440B0BF1070A0AEB4701C9B21DF09D
:1015F4004BF80028EFD10446A3451BD10BF106019B
:101604003A4601F0FE0130465FFA8AF41DF003F910
:101614004FF0000A5FFA8AF5AF4223D83346BDF88B
:10162400302006214846FFF781FF044630461CF06F
:1016340019FFD1E7214628461DF0E8F8A11D02460E
:10164400C9B230461DF0E7F8611CC9B228461DF046
:10165400DDF8E11D0246C9B2304602341DF0DBF864
:10166400E4B2C9E76D00EDB2294640461DF0CEF85C
:101674002146024630461DF0CEF8691CC9B24046E8
:101684001DF0C4F8611C0246C9B2304602341DF094
:10169400C2F80AF1010AE4B2BCE700BF081D002049
:1016A4002DE9F04188B00F4602A906460AF0BAFBBC
:1016B40000287CD0FFF7AEFE8DF810001CF04CFC27
:1016C4008DF811001CF048FC000A8DF81200082265
:1016D40039490DF11300FFF795FDBDF808300F21CE
:1016E4008DF81C301B0A8DF81D309DF80D3004A8B0
:1016F4008DF81B608DF81E301DF012F8FF2804468B
:1017040057D04FF000089DF80D305FFA88F29342ED
:1017140008F101081DD801220DF10E0120461DF02B
:1017240041F84FF000089DF80E305FFA88F29342BA
:1017340008F1010824D823463A4620210020FFF767
:10174400F5FE054620461CF08DFE284608B0BDE88F
:10175400F081002130460AF091FB05468DF8070020
:101764000DF10701012220461DF01CF82D0A01226B
:101774000DF1070120468DF807501DF013F8C2E75C
:10178400012130460AF07AFB05468DF807000DF179
:101794000701012220461DF005F82D0A01220DF152
:1017A400070120468DF807501CF0FCFFBBE7A3257A
:1017B400CBE71825C9E700BFA94F0020F8B51C46A0
:1017C4000E4617460546FFF725FE9DF818102070B3
:1017D40020461CF0A5FFFF2804460BD003463A46DA
:1017E40028463146FFF7A2FE054620461CF03AFE85
:1017F4002846F8BD1825FBE708B500F035F9BDE823
:1018040008400DF0A9BE08B5FFF765F80DF0CEFE4F
:10181400BDE8084006F00CB9704700F0B9B900F013
:101824009BBA0020704738B504460D46FFF79AF876
:1018340029462046BDE8384009F0AABBFFF77BB82B
:10184400FFF785B80122002109200EF05DBB704727
:1018540013B504462A4901200CF0F0FDE01E0428CB
:101864004BD8DFE800F01C1E03382E002549012068
:101874000CF0E4FD4FF4967303220093052100203D
:1018840000F05CFC0123204A1370204A13704FF4CB
:101894007A711F4802B0BDE810401CF0CBBB1D4953
:1018A400E5E71D4901200CF0C9FD4FF4FA7302224B
:1018B40001210093002000F041FC0222134B1A7016
:1018C400E5E7164901200CF0B9FD4FF496730322A5
:1018D40000931146EEE70C4B1B7873B110490120BD
:1018E4000CF0ACFD4FF49673032200930421002006
:1018F40000F024FC054B0322E1E702B010BD00BF59
:101904006B1003007E100300DA240020144300202F
:101914000443002091100300A6100300B810030034
:10192400CC100300042908B50BD1012005490CF0A3
:1019340085FD0322044B05481A70BDE808401CF0DD
:101944006DBB08BDE01003001443002004430020D5
:10195400042810B50C461AD103290BD005290ED042
:1019640002291AD100F03AF91A490120BDE81040C1
:101974000CF064BD012005F0D9FC1749F5E70322FA
:10198400164B17481A701CF049FB1649EDE703285B
:1019940003D1012902D0022910D010BD12492046DA
:1019A4000CF04CFD0521204600F09EFB204600F083
:1019B40021FD2046BDE8104000F02CBD0B4901205C
:1019C4000CF03CFD012000F03DFB002000F012FD76
:1019D4000020EFE72F1003003B1003001443002006
:1019E4000443002047100300531003005F1003005A
:1019F40038B580B3013804282DD8DFE800F0030996
:101A0400282A2A0014490120BDE838400CF016BDEC
:101A1400124901200CF012FD00F09CFC43790446AD
:101A2400812B18D18379022B15D1C579012D09D1C8
:101A34000521284600F058FB29462079BDE83840A6
:101A440000F019BA3DB9012000F0FCFAF4E70449AA
:101A5400D9E70449D7E738BDF5100300081103009E
:101A6400231103003B11030008B50F4901200CF0BA
:101A7400E5FC0E4800F0ACF80D4800F01FF90D49E4
:101A84000D4800F00FFA00F001FB0A2000F0A6FB5D
:101A94000A4800F0D5FB0022094B0A481A70BDE839
:101AA40008401CF0BBBA00BF5C11030055180000CD
:101AB400291900005318000055190000F5190000F9
:101AC400144300200443002007B51D4901200CF0F5
:101AD400B5FC00221B4B1A701B4B1A78042A10D831
:101AE400DFE802F003120F1D270002221A700AF029
:101AF400CDF830B94FF4967303220093012100F01E
:101B04001DFB03B05DF804FB02221A7000F07AF9A1
:101B140001200E4903B05DF804EB0CF08FBC00F01B
:101B240061F94FF4FA610A4803B05DF804EB1CF064
:101B340081BA02221A7003B05DF804EB01F0B2BF5F
:101B44007411030004430020144300208A1103008D
:101B540018430020002208B5094B0A4901201A70D5
:101B64000CF06CFC0422084B1A7018F04FF81FF0AC
:101B7400DFFABDE808404FF4FA6104481CF05ABA91
:101B840018430020D12A03001443002004430020FA
:101B940008B503793BB902685288062A05D100F0DA
:101BA40093F8012008BD0020FCE71846FAE700007E
:101BB400002310B5044C237000F044F92046BDE81E
:101BC400104002491CF036BA0C430020A0BB0D00A3
:101BD400014B1860704700BFE024002008B50AF0EC
:101BE40055F830B9BDE808404FF4FA6101481CF0DB
:101BF40021BA08BD2043002008B50AF047F802289E
:101C040006D1BDE808404FF4FA6102481CF012BA4C
:101C140008BD00BF2043002038B500240C4D2C70B3
:101C24000AF034F860B906F0B9FE0A4A2846136887
:101C340041F2883101331360BDE838401CF0FAB931
:101C4400022803D106F0EAFE024B1C6038BD00BF37
:101C540020430020DC24002010B504461449012050
:101C64000CF0ECFB902C10D1124B134C1B683BB1C5
:101C7400FFF7C2FF23680BB103209847002010BD73
:101C84002368002BFAD00520F7E7912CF6D109F050
:101C9400FDFF28B9084B1B68002BEFD00620ECE7AA
:101CA4000328EBD1044B1B68002BE7D00720E4E7A3
:101CB40098110300DC240020E0240020014B18606C
:101CC400704700BFE424002070B503685D79C37CCD
:101CD400012B03D011D3022B1AD070BD012DFCD1DE
:101CE4000421002000F000FA2946284600F0C3F839
:101CF4002846BDE8704000F08DBB012DEDD10020D9
:101D040000F0A0F90021284600F0B5F80020F0E723
:101D14008268037DD1184978D45C44EA012424B252
:101D2400002CDAD10433D65C012E09D104212046DB
:101D340000F0DAF93146284600F09DF83046D8E73D
:101D4400204600F07FF92146284600F094F820460A
:101D5400CFE700207047000008B50B885BB948F254
:101D640034024988914206D1044B1B680BB104210B
:101D74009847012000E0002008BD00BFE4240020B3
:101D840070B51646002290B08DF80E209DF85420B0
:101D94008DF80C10090A05469DF850408DF80D1079
:101DA4008DF80F2023B12246194604A82DF02FFDEB
:101DB40003AB043400930194034B324629461020AC
:101DC4000BF004FB10B070BDA50E030010B5044663
:101DD400084611460BF068FB2146BDE81040002080
:101DE4000BF058BB1FB50223002000934FF48A5216
:101DF40003AB48F234018DF80D00FFF7DFFC05B0AA
:101E04005DF804FB1FB50E4B1A889B78ADF80C20C7
:101E14008DF80E3009F03AFF02280ED10323422236
:101E24000521CDE900320020012203ABFFF7A8FF12
:101E3400012200201146FFF7C9FF05B05DF804FB3D
:101E4400B811030013B509F021FF022811D10024B1
:101E540020232246CDE90043214623462520FFF7CF
:101E64008FFF01222046114602B0BDE81040FFF763
:101E7400ADBF02B010BD30B510220124054685B0B7
:101E840004AB03F8011D0620CDE9004200212246DF
:101E9400FFF776FF224629460020FFF797FF05B09B
:101EA40030BD0000024B1860024B1960704700BF40
:101EB400F0240020E8240020054B5A78824205D003
:101EC4005B7C83420CBF0120FF20704700207047D9
:101ED400741D002038B5FFF7EFFF194DFF280446A5
:101EE400287025D0012910D100F09CF92A78154BCF
:101EF40003EB041403EB02139A89606001329A81A4
:101F04001148BDE838401CF089B889B900F08AF955
:101F14000C4C2B78014604EB0313586800F088F945
:101F240032282D7805D804EB0514A389013BA3813D
:101F340038BD00F077F904EB0514A060F8E700BFA2
:101F4400EC240020741D0020284300202DE9F843D0
:101F54000023374E374C384DDFF8E480337004F1FA
:101F6400200900F05FF9A3890746E3B13022237802
:101F74005A43324B9B586278D340DB072FD4014637
:101F8400606800F055F9B0F57A7F11D10121D8F8D5
:101F94000030607898470123A373A3891BB164219F
:101FA40030461CF047F810344C45DAD1BDE8F883CC
:101FB4003946606800F03CF9B0F5FA6F03D1D8F8FF
:101FC40000300221E5E73946606800F031F940F657
:101FD400B8339842E1D1D8F800300321D9E7A37B84
:101FE40013BB0146606800F023F9B0F5C87FD4D371
:101FF400A389013B042B08D8DFE803F0030A0D1082
:10200400130001212B68607898470023A381C4E75B
:102014002B680221F7E72B680321F4E72B680421DE
:10202400F1E72B680521EEE70023A373EEE700BF79
:1020340028430020741D0020F024002014C0034015
:10204400E82400200C2370B5584330250D490123A2
:102054000A18085C41F210010B4C568805FB00403D
:1020640003FA06F646501079D68805FB004003FAB9
:1020740006F64650107A5289934005FB00425350AD
:1020840070BD00BF941D002000C0034070B5124D08
:1020940000242E462919285D00230222498804348D
:1020A40004F024FC0C2CF5D100243019C189002340
:1020B4000222007B043404F019FC0C2CF5D100201E
:1020C400FFF7C0FF0120FFF7BDFF044B044A1A606D
:1020D400044A5A6070BD00BF941D0020684300206C
:1020E40060430020304300200C22124B2DE9F041C4
:1020F40002FB003001270023302641F2100C42F28B
:10210400100E0D4D10F8232000EB830406FB025241
:10211400648841FA03F818F0010F07FA04F403F194
:10212400010314BF42F80E4042F80C40032BE9D1DE
:10213400BDE8F081941D002000C00340F0B41425D4
:1021440001274543074EBA407419A360049B775591
:10215400E360054BA174A28053F82000F0BC1BF08F
:102164005DBF00BF38430020684300200022F8B55B
:10217400154F164D57F8203004461A701423434364
:10218400EE18B288BAB1EB5C012B14D1D3070ED58B
:10219400B17CFFF7A9FFB16857F824001BF04AFF90
:1021A400142303FB0454A388013BA380F8BDFFF769
:1021B40049FFF168F0E71423002263432046EA5400
:1021C400BDE8F840FFF73EBF6843002038430020D5
:1021D4000020FFF7CBBF0120FFF7C8BF0022014654
:1021E400044B05481A700260044A184611601BF03B
:1021F40021BF00BF70430020F4240020F8240020F5
:1022040000230548054A0370054B196813680B44FD
:1022140013601BF00FBF00BF70430020F4240020A4
:10222400F8240020014B1868704700BFF4240020F4
:102234000B1A814238BF03F1FF3318467047000080
:1022440010B5044601234FF4E1310022032008F0C5
:10225400FBF8044B4FF47A711C600348BDE810404E
:102264001BF0E8BE00260020784300200021F0B5D2
:102274001A4E1B4D032831706F780B468C460A4664
:102284000C4612D02046F0BD012AE85C13D0022A85
:102294001ED0B12820D1012122464FF0FF0C0C465C
:1022A4000133DBB2204614460246002CECD0002950
:1022B400E8D03370E6E7012B88BF8CEA000C9F421C
:1022C40008BF022201331446DBB200220121E9E7F0
:1022D400844518BF0422E5E70122E3E7FD2400203A
:1022E400FE24002010B50320FFF7C0FF022801D010
:1022F400042805D1034B1B6813B1BDE810401847EF
:1023040010BD00BF0026002073B500240F4B03202E
:102314001C7008F0FBF8054690B10D4E0DF1070155
:102324000320013408F0F4F8A4B29DF80730A54264
:1023340006F8013F02D0B4F5807FEFD1FFF7D2FF5A
:10234400322102481BF076FE02B070BD78430020B3
:10235400FD24002000487047FE240020F8B500AF9B
:102364003C7F4FF0B10CE61DF6B206F1090505F409
:10237400FC75ADEB050D6D468DF80520BA698DF839
:1023840001608DF80300060AD0B28DF802608DF862
:1023940000C08DF804108DF80630C0F10706D3B2E2
:1023A40099191B1ADBB29C42C9B216D8104804F121
:1023B40008020378D2B25E1C6B540223FF2106701C
:1023C400A81C93420DD3A95404F10902D2B22946A0
:1023D400032008F0A2F8BD46F8BD12F8013B6B5487
:1023E400DDE710F8016B01337140DBB2E9E700BFB0
:1023F400FC2400201FB5012304AA02F8040DCDE932
:102404000023FE2185224FF6EE70FFF7A7FF05B0EB
:102414005DF804FB1FB5012304AA02F8040DCDE9FD
:102424000023FE2181224FF6EE70FFF797FF05B0DF
:102434005DF804FB002307B5CDE9003301236946A9
:102444004FF0FF308DF802300FF06EFC003018BFF3
:10245400012003B05DF804FB0120704701207047A0
:102464000120704710B5084C23681B6858790AF09E
:10247400AAFA23681B685879FEF733FA00200DF096
:1024840029FA012010BD00BF0C4E00202DE9F84FA1
:1024940080460D4614469946164E06F1010A0DB9BA
:1024A400BDE8F88F102D4FF00D02494650462F46D7
:1024B40028BF1027FEF7A6FE0123337000230D4822
:1024C400F473B37324F024FB424601340A495FFADF
:1024D40087FBE4B212F8013B11F8010F434002F804
:1024E400013CA2EB0803DBB25B45F3D3ED1BADB2B9
:1024F4009046D4E708260020072600202DE9F04F57
:102504004FF00209364D85B003930F9B1746019097
:102514000D220E460146681CBDF838800293FEF772
:1025240071FE49234C46AA462B7028464FEA1823CD
:10253400AB7385F80F8024F0EBFA2B7883EA17232A
:102544002B706B787B406B704FF0000B21E0C4F173
:10255400100CA7EB0B031FFA8CFC9BB2634528BF3E
:1025640063463046A11B00EB010C5FFA8CF2A0EB32
:10257400060C1FFA8CFC9C451BD31C44E4B29B4400
:10258400102C1E441FFA8BFB03D1284624F0C0FAFA
:102594000024BB45DBD314B1504624F0B9FAB9F199
:1025A400010F4FF00004039E47460BD04FF0010982
:1025B400CAE710F801CB1AF802E08CEA0E0C0AF80C
:1025C40002C0D0E7029804220549FEF71BFE22460A
:1025D4000421019B029805B0BDE8F04FFFF756BFF8
:1025E40008260020F7B5099FBDF820400646CDE92E
:1025F40000471D46FFF782FF2CB1334601222146D6
:102604002846FFF743FF002003B0F0BD2DE9F74350
:102614001E46054688469146BDF828700D4C034673
:10262400394630460122FFF731FF33464A464146D8
:102634002846CDE90074FFF761FF042221460B9878
:10264400FEF743FE002814BF7E20002003B0BDE83F
:10265400F08300BF042600202DE9F3410C46154603
:102664001E468046084F9918214438460422FEF736
:10267400C9FDCDE9006763192A4621464046FFF7A4
:10268400C5FF02B0BDE8F081182600200020704785
:102694000020704770477047F7B50024094E0A4F71
:1026A4000A4D56F8243003B93B6835F8142008491C
:1026B40000920120224601340BF0C0FE292CF0D1F7
:1026C40003B0F0BDAC1D0020541E0020F4430020D4
:1026D400BB11030008B5FFF7DFFFBDE8084000F0B9
:1026E400F1B8000007B50020FEF71CFAC2B2282A90
:1026F4000DD8084B53F822300BB9074B1B68074918
:10270400012031F81210009105490BF097FE03B037
:102714005DF804FBAC1D0020541E0020F44300208F
:10272400BB110300FFF7B8BF7047000038B50020A5
:10273400FEF7F8F904460120FEF7F4F905460549C9
:1027440001200BF07BFEA9B2E0B2BDE8384000F0F6
:10275400D1B800BFC6110300F7B50024094E0A4FD3
:102764000A4D56F8243003B93B6835F8142008495B
:1027740000920120224601340BF060FE292CF0D196
:1027840003B0F0BDAC1D0020541E0020A243002065
:10279400BB11030073B502AB03E906000446019DB7
:1027A4001BF0F6F8064620461BF000F99DF80000E1
:1027B4008EB1202C0FD82B78012B37D84FF6FF750C
:1027C400394903EB4313234431F81320AA4202D0BE
:1027D400013221F813204FF6FF72344B344933F899
:1027E400146031F8145096421CBF721C23F8142054
:1027F40004F0FD02092A31D19A8A898A02448A4264
:10280400B4BF9A82998233F81430AB4204D3AE42F7
:1028140002D22046FEF766F80025264BEA5CA24267
:1028240028D00135112DF9D102B070BD022BD2D1BF
:102834004FF6FF714FF6FF751B4B33F814208A4295
:102844001CBF013223F8142004F1210233F81210C2
:10285400A9421CBF013123F81210BCE71D2CD2D1B0
:102864005A8F1118A942BDBF02F1FF3212185A87BC
:102874005D87C8E717F09BFA0F4B04461B78834229
:1028840003D8DD210D4800F0FDF94FF6FF710C4A25
:1028940004EB04142C4432F814308B42C4D00133BA
:1028A40022F81430C0E700BF46440020F44300205F
:1028B400A243002032150300511D0020AE14030072
:1028C40080430020522200210148FEF7F7BC00BFDC
:1028D400F44300205222FF210148FEF7EFBC00BF61
:1028E400A243002008B5FFF7EDFFBDE80840FFF75D
:1028F400F1BF0000014B23F810107047A2430020E1
:10290400032310B50F4C4FF48062C4E904330E4B1B
:102914000E49E3610023A16121660D49E01DC4E96C
:1029240019120C49A3626362E3622367E366636777
:1029340022622CF07FFF084920462CF07BFF2023E5
:10294400A37110BDCC4400201C2A002043150300B1
:102954001C2600204C150300501503002DE9F84FE8
:102964001F4B16461A7881468A4698460AB9FFF7DD
:10297400C7FF182707FB09873D6FD7F86CB05D4583
:102984002BD9BC6E796E641BB44228BF34462944EB
:10299400504622462CF03BFFBB6E2544AB4208BF99
:1029A4000025A244361BABEB050B5E4528BF5E46F3
:1029B40056B1182303FB0983596E32462944504605
:1029C4002CF025FF3444354424B1182303FB098833
:1029D400C8F870502046BDE8F88F0024E3E700BF34
:1029E400CC44002010B50B46EFF311844FF02001C6
:1029F40081F311881946FFF7B1FF84F3118810BDE4
:102A04002DE9F84F144D9B462B7881468846924613
:102A14000BB9FFF775FFEFF3118C4FF0200181F331
:102A24001188002018236F6903FB0054666E2EB1D1
:102A340001308742F8DC4FF0FF3009E08742FADDCD
:102A4400C4E91898C4F868A02667E666C4F874B0A8
:102A54008CF31188BDE8F88FCC440020FFF750BFF9
:102A640070B54FF060441A4B00261A68194D42F0B5
:102A740001021A60DA680C2042F08072DA60164BA8
:102A8400C4F8B03F0223C4F8006EC4F8806EC5F8E1
:102A9400F03003F057FB114B00F5D52000F2FC4059
:102AA400B0FBF3F00E4A0F4B01382861C4F8406EB6
:102AB4001A600D4BC4F8803E4FF48073C5F804339C
:102AC400D4F8003E43F48073C4F8003E70BD00BFE8
:102AD400F0ED00E0000004E055CEACC5F8590D005F
:102AE400FF030040001000E00D00010010B50124B8
:102AF4000E4B00201C6003F0B1FE23460422032188
:102B0400002003F0F3FE20460EF01EFEFFF7A8FFA0
:102B14000EF01BFEFFF7A2FF23464022044905489E
:102B2400FFF76EFF044B1860C00F10BD44D4034080
:102B34001C2E002057150300581E0020024B186855
:102B4400003018BF01207047F0ED00E0D123054AA2
:102B5400037013784170090A8170591CC370117095
:102B6400042070475C2E00202DE9F74F354E0746B0
:102B740033681C5C032C63D9DFF8CC8016F044FD69
:102B84004FF6FF7A0025C1460534E4B20190D8F827
:102B940000204AB1AC4207D916F036FD019BC01A99
:102BA40080B2B0F5FA7F05D9601B18BF012003B0CD
:102BB400BDE8F08F002D3DD0012D1DD14FF0020B4B
:102BC4003268D55D4FF06042D2F8801ECB0711D534
:102BD4001146D9F80C0040F08070C9F80C00D1F807
:102BE400000E40F48070C1F8000E086A0028F0D08E
:102BF40082F820505D46CAE7E21E05F1010B9542BA
:102C04005FFA8BFB02D15FFA8AF5DBE7A21E9542DD
:102C140002D1CAF30725D5E7621E95420ED0A91E3C
:102C2400C9B238461BF0F2FD51460546FEF75AFA82
:102C34008246C7E75B254FF0010BC3E75D25C1E77B
:102C44000120B4E7081D0020F0ED00E010B50B4BA7
:102C540090B0402269461868FFF7C4FE58B1C1B26B
:102C640068461BF05DFD0446014612200EF018FA7A
:102C740020461BF0F7FB10B010BD00BF581E00200B
:102C840042DE704738B504460D4600F0AFFD03F050
:102C940040FD294620460EF0CFF92B462246054931
:102CA400222007F045FC29462046BDE83840FFF7BE
:102CB400E7BF00BF671503006D4B2DE9F0415A686B
:102CC4006C4CA2655A6AE2656B4AD2F8001221661E
:102CD400D2F8042262669A6AA266DA6AE2661A6B1B
:102CE40022675A6B6267A26BDB6B12F0040FA36757
:102CF400D4E90F5318BF1D4616F06AFC0022854222
:102D04000346606522655DD35C4A95425AD8AA6938
:102D14006264E969A164B4F85810C1F30801062992
:102D240054D157498A4251D356498A424ED21188C6
:102D34004DF64262914249D140F201706268C4F892
:102D44009420A268C4F898204F4A5049934238BF4F
:102D540013460A468B423CD3D31AE3640023C4E9E6
:102D64001F33C4E92133C4E92333484E444FDFF809
:102D740014C1AE4233D8D4E91FC7D4E92165D4E9DC
:102D840023124FF0000E013BDBB2FF2B42D1BEF108
:102D9400000F05D0C4E91FC7C4E92165C4E92312A3
:102DA400B4F85830C3F30803052B57D03CD8032B91
:102DB40047D0042B58D040F60722013B4B2B98BF39
:102DC400104640E000221D46C4E911224FF4206061
:102DD400BAE71E68B6F1CD3FBED10433BAE756F860
:102DE400042DBA42C5D36245C3D2D107C1D500214F
:102DF40004EB010EDEF87CE09645BAD004311829C4
:102E0400F6D10BB9052301E0013BDBB204EB8301EE
:102E1400CA67AEE7E0464FF0010EBC4637462E4681
:102E24000D4611464246AEE70C2B1AD03B2B0CD074
:102E3400062BC0D140F60423B0F5206F08BF184616
:102E440001E040F60120BDE8F081114B9B6913F0CD
:102E5400020F40F2025318BF1846F4E740F603206D
:102E6400F1E740F60520EEE740F60220EBE700BF6D
:102E740000ED00E00000002000E100E0E01A002086
:102E84004C03000070F802009C000020001B00208E
:102E94000080014A042804D003280CBF012002202A
:102EA40070470020704700004FF480732DE9F04311
:102EB40085B0ADF80C30002401F098FC0127DFF850
:102EC4004480DFF8449003ABE35C012218F83360DC
:102ED40008EBC3035D6830460023294603F006FD72
:102EE4004946E8B201F090FCCDE9007701232A4677
:102EF4002946304603F0B4FC14B105B0BDE8F083B4
:102F04000124E0E77C150300912F000008B5FFF7CA
:102F1400C1FF022816BF024B0020185C08BD00BF89
:102F24005D2E002008B5FFF7B5FF02281CBF014B3A
:102F3400195408BD5D2E002008B5FFF7ABFF022829
:102F440005D0034A135CB3FA83F35B09135408BD39
:102F54005D2E002008B5FFF79DFF02280FD0302119
:102F6400084A12F8303002EBC0025943064B50684D
:102F74005B5823FA00F0C04300F0010008BD0020B4
:102F8400FCE700BF7C15030014C0034070B5044681
:102F94000026FFF7DFFF054601E000261D46204618
:102FA400FFF7D8FFA8420346F7D10136052EF2D128
:102FB4002046FFF7ABFFA8420BD029462046FFF777
:102FC400B1FF2046FFF7A2FF0146204608F0B0FDFE
:102FD40070BD2046FFF7B0FF2046FFF797FF01467C
:102FE400204608F0A5FD2046FFF7A6FFE9E700000C
:102FF40010B503F0ADFD044603F0A2FD002201214B
:1030040001FA02F3234014D01B4B33F812301B4A4D
:10301400062B13D040F207218B420DD118491948D1
:103024000C68844208D14CF23C334B800B881380EB
:1030340012E00132102AE3D1104AF8E74FF20F01EF
:103044000F4B5888884214D11988B1F5406F10D2BB
:1030540011804CF23C325A80084B1A8840F20173BA
:103064009A4201BF084B094AD2E90001C3E90001B1
:1030740010BD4FF4C061EBE78C150300682E0020EF
:103084000000002007020FF0602E002094000020B2
:10309400014B1888000A7047682E0020014B1888DD
:1030A400704700BF682E00202DE9F04F4D4C0546B7
:1030B400A36BD4F850B05A0747BF0027B846D4F8DA
:1030C4004CB0D4F85480D4F840A05DBF464FD4F837
:1030D4003CA0DFF83C91DFF83C9113F0080F434B20
:1030E400434A18BF1A46B7EB08061FBF642173088A
:1030F40001FB0B33B3FBF6F387B01CBF9BB2059304
:103104003C494B46CDE9017ACDF8008008BF0596CD
:1031140001F0BEF8B3B2CDE900931FFA8BF2059B20
:103124003549284601F0B4F8A36B5B070AD49C3EEA
:103134005E4507D1626D314B9A4203D2304928462D
:1031440001F0A6F8BA4501D8C24504D24A462D4931
:10315400284601F09DF8284607F0E4F9236E0BB9E0
:10316400636EBBB32849284601F07DF80026012789
:10317400DFF8A480DFF8A490226E07FA06F3134266
:1031840007D058F8262013781BB14946284601F089
:103194006AF80136202EEFD100260127DFF8788067
:1031A400DFF87890626E07FA06F3134209D008EB51
:1031B4008603D3F8802013781BB14946284601F0D2
:1031C40052F801361D2EEDD1284607B0BDE8F04F68
:1031D40001F058B828460D4907B0BDE8F04F01F09A
:1031E40057B800BF00000020001B00209318030004
:1031F400821103009A180300C81803009C000020E1
:10320400011903002D1903004B1903007A19030057
:103214008E180300B930030090190300E03F030047
:103224002DE9F8430446FFF739FF40F6012398429D
:1032340039D010D840F2025398421DD040F20173A5
:10324400984224D040F20153984213D16549204654
:1032540001F01EF822E040F6032398426CD03DD3DF
:1032640040F60423984200F09C8040F605239842DF
:1032740000F0B580BDE8F8835B49204601F008F80A
:103284005A4B5B495A6C204601F002F806E0574A53
:103294005849D2E92523204600F0FAFF2046BDE82C
:1032A400F84307F03FB9514D5349204600F0F0FF71
:1032B40095F86C309F0703D55049204600F0E8FF8D
:1032C40095F86F305E0603D54D49204600F0E0FFC7
:1032D40095F96F30002BE1DA4A49B8E7434D4A4982
:1032E400204600F0D5FF95F86830980704D06A6C42
:1032F4003F49204600F0CCFF95F96830002B04DAF2
:103304006A6F4249204600F0C3FF00260127DFF818
:103314000881DFF81491AA6E07FA06F3134207D066
:1033240058F8262013781BB14946204600F0B0FF18
:103334000136082EEFD1B1E72C4D3549204600F077
:10334400A7FF2B496A6C204600F0A2FF95F869306C
:10335400590703D52F49204600F09AFF95F96930A3
:10336400002B04DA6A6F2949204600F091FF0826F1
:10337400294FDFF8B480AB6EF340DA0707D557F86E
:10338400262013781BB14146204600F081FF013608
:10339400102EF0D195F86830002B7FF47FAF1F49D1
:1033A40055E7124D1E49204600F072FF6A6C104921
:1033B400204600F06DFF1026174FDFF86C80AB6ECF
:1033C400F340DB0707D557F8262013781BB1414695
:1033D400204600F05DFF01361A2EF0D15EE7114958
:1033E4004BE700BF1D1603005A160300000000201F
:1033F4008A160300A3160300BD160300D5160300A6
:103404000F170300421703007E170300A3170300DE
:10341400C7170300DE170300AC15030024180300CC
:10342400541803006D180300BF1703002DE9F84F6B
:1034340006460025154C164FDFF85C80DFF85CA0CB
:1034440023785FFA85FB0BB9BDE8F88F57F8043B86
:1034540022461049304600F006FF227804F10109A3
:1034640082B9627882B10BF0030103290CBF414693
:103474005146304600F0F7FE304607F053F8013568
:103484004C46DDE74C46E8E74146F2E7841A030080
:103494000400002014160300ECF802008933030032
:1034A40000F00CB800F00AB800F008B800F006B854
:1034B40000F004B800F002B800F000B872B61EF0D4
:1034C400080F09D01EF0040F0DD0DFF850E0AEE86D
:1034D400FF1F6FF002000CE0DFF840E0AEE8FF1FD2
:1034E4006FF00E0005E0DFF834E0AEE8FF1F6FF088
:1034F40006006946EFF309828EE80700864608480D
:10350400084C854501D3A54501D384F30888FFF70A
:10351400D3FB84F3088816F037F800000400002079
:10352400E0110020001B0020FFF7C6BF7047704762
:103534007047704700F07E63B3F17E6F70B5054647
:103544000E46144616D104F069FE18B19A210D48AE
:10355400FFF798FB22463146C5F30B0003F0B4FB9A
:10356400044604F067FE5CB19D21BDE87040054847
:10357400FFF788BB520815F0A5FF08B18F21F4E7C7
:1035840070BD00BFA821030037B57F2A14BF1546BC
:1035940000254BF234629142044619D17F2241F254
:1035A400020168460823FFF7EFFF08222549684611
:1035B400FDF78BFE30B908237F2241F2F0116846F3
:1035C400FFF7E2FF082269462046FDF71BFE09E0EB
:1035D40041F2F01291421AD11B4901388A6CC96C2C
:1035E4001D1F0BB903B030BD013B9D4200F8012FF4
:1035F4004FEA1222F5D1002203349A42F2D001326A
:10360400042A04F8011F4FEA1121F6D1EAE701F474
:103614007042B2F5805F07D1C1F30B0404F17E64FC
:103624009AB203FB0541D0E701F46042B2F5005FB2
:10363400D8D1C1F30B0405499AB2214403FB051107
:10364400C3E700BF222203000080E00F00E0070070
:1036540070B5054616461C46DBB14BF234639942FD
:1036640010D1082C28BF08247F2241F202012346EE
:10367400FFF78AFFA2B207492846FDF726FE40B9A4
:1036840041F2F011234632462846BDE87040FFF768
:103694007BBF70BD222203002DE9F7430446E007F7
:1036A4000F46154603D5DD213448FFF7EBFAE90749
:1036B40003D5DE213148FFF7E5FA04F47043B3F58E
:1036C400805F3ED1C4F30B0404F17E646B1E2C4A6C
:1036D40023449342264603D9E3212848FFF7D2FA2C
:1036E400DFF8989006EB050846453DD1A2070ED0B9
:1036F4004FF6FF7337F8022B02A943EA0243A01ED8
:1037040041F8043D0422FFF715FF0234023DAB07E4
:103714000ED0023D25F00103FB5A02A96FEA0343D0
:103724006FEA1343042241F8043D6019FFF702FFD6
:1037340025B12A4639462046FFF7FCFE03B0BDE812
:10374400F08304F46043B3F5005F05D10D4BC4F37B
:103754000B041C442646C3E7EA210848FFF792FA03
:103764006FF00F060024BBE716F8013BFF2BBBD01C
:10377400F4214846FFF786FAB6E700BFA821030004
:10378400FF1FE00F00E00700FFF78ABE1FB5144AD1
:1037940001AB10685168128903C31A8001238DF8A4
:1037A40004300D238DF80A3003230E4C0821232006
:1037B4008DF80B3002F004FE01A9204603F0BBFC97
:1037C4004FF40061022342F21800074AC2F8841140
:1037D4002350516041F21C02A35004B010BD00BF3D
:1037E4002A2203000080014A00E100E0014803F0BE
:1037F40091BC00BF0080014AA52803D100210248E2
:1038040003F079BC704700BF0080014A024B58683E
:1038140000F00100704700BF0080014A024A536A69
:10382400002BFCD1704700BF0080014A0020704784
:10383400002070477047000007B572B602F069FFB8
:10384400894B8A495B6940228B6000230B764B7657
:103854008B76F023CB760B774B778B77CA778022E6
:1038640081F8202081F82130E023602081F8223083
:103874007F4B81F8232083F8002383F8012383F806
:10388400022383F8032383F8042383F8052383F8AE
:10389400062383F8072383F8082383F8092383F88E
:1038A4000A2383F80B2383F80C2383F80D2383F86E
:1038B4000E2383F80F2383F8102383F8112383F84E
:1038C400122383F8132383F8142383F8152383F82E
:1038D400162383F8172383F8182383F8192383F80E
:1038E4001A2383F81B2383F81C2383F81D2383F8EE
:1038F4001E2383F81F2383F8202383F82103202029
:1039040083F8222383F8232383F8242383F82523AD
:1039140083F8262383F8272383F8282383F829238D
:1039240083F82A2383F82B0383F82C0383F82D23AD
:1039340083F82E2383F82F2383F8302383F831234D
:1039440083F8322383F8332383F8342383F835232D
:1039540083F8362383F8372383F8382383F839230D
:1039640083F83A2383F83B2383F83C23CB6823F47E
:10397400E0631B041B0C43F0BF6343F40133CB60CF
:103984004B6943F010034B614FF4E0234B6203F0A7
:10399400FBFFFFF72DFBEFF308834FF0CD31354AE2
:1039A400043B93425DD2344A002192B23348FDF77E
:1039B40085FC62B6684603F0AFF9314B9B6DDB03BF
:1039C40018D4304A136823F4FF0323F4FE4343F46A
:1039D400BC1343F4A063136052F8043C23F4704313
:1039E40043F4404342F8043C52F8043C43F4E0639B
:1039F40042F8043C9DF80130012B0FD19DF80030B2
:103A040063B94FF000531B681F4B1B681F4B1B68A7
:103A14001F4B1B681F4B1B681F4B1B681F4AD2F8A8
:103A2400803043F00303C2F8803002224FF0402379
:103A34001A6703F0EFFE01F0E3FA002300938DF818
:103A44000430012368468DF8033002F0FEFE00F0D6
:103A540027F915F0EBFD12480DF080FE03B05DF878
:103A640004FB1960043B9CE75400000000ED00E0F7
:103A740000E100E0A0110020D4100000A00000200C
:103A840000C0004034C000400040002000800020FE
:103A940000C0002000000120004001200080004000
:103AA4000848030040F2016015F06EBDFEF7F2BD58
:103AB40008B500210B20FEF7EBFDBDE80840FEF73A
:103AC400EABD032000F078BA08B5FFF7E1FA044B29
:103AD4000B289ABF00B203EB8000184608BD00BF54
:103AE4007A23030008B5FFF7D9FA044BC0F30F2279
:103AF40053F82230C0B203EB800008BD4423030016
:103B040010B5FFF7C5FA0446FFF7C8FAC0B228B9E2
:103B1400012C24D164F07F04E4B216E0072CF9D818
:103B240001A353F824F000BF4F3B0000193B0000F1
:103B34004D3B0000533B0000533B0000573B00004B
:103B44005B3B00005F3B00000924204610BD0224BB
:103B5400FBE70324F9E70B24F7E70624F5E704461B
:103B6400F3E700BF07282DE9F84F04460F462DD090
:103B7400082808BF022421460120FCF7F4FEFFF7C1
:103B840045FE651ED5F1000848EB050800B3012C7D
:103B94001ED1A520FFF730FE2646EFF3108901233E
:103BA40083F31088EFF3118A4FF0000B8BF3118825
:103BB400354D404606F07EFF631EC5F800B0042B69
:103BC40059D8DFE803F00E4D4D5155000324D2E7D8
:103BD400FFF71CFE18B1FFF721FE0026DDE70646BD
:103BE400DBE72A4A136923F00403136130BF284A30
:103BF400D2F82434D2F8202413409BB2254A2B60F7
:103C0400D2F80011480102D51168490106D4D2F84E
:103C14000011880105D51268910102D543F480335F
:103C24002B601C4BD3F80021520506D51B685B059D
:103C340042BF2B6843F400332B601EB101211648A8
:103C440003F059FA404606F06BFFCFB18AF31188AE
:103C540089F310882146BDE8F84F0020FCF783BEA5
:103C6400012002F0C5FDC2E7012002F0D5FDBEE748
:103C740002F0D4FDBBE788210848FFF703F8B6E754
:103C840087F31088E6E700BF742E002000ED00E003
:103C940000C0034000E100E00080014AAA230300C1
:103CA40042F22041044AD2F820341B0C1B04535026
:103CB400024A1360704700BF00C00340702E00200A
:103CC4000021FFF74FBFFFF7FBBF00002DE9F04FC6
:103CD40089B00DF037FD0746002840F0DD806F4EB7
:103CE4006F4D3168286814F039FE0446002827D047
:103CF40033683C46D3E900019A69126890473368F7
:103D040004A89B699B689847336802209B69DB6819
:103D14009847326805985368E7B2B3FBF0F3BB42A7
:103D2400916904F1010442D8CB68002098473368B4
:103D34009B695B6898473168286814F00FFE044655
:103D44000026DFF88891002C53D1564B4FEA8608A1
:103D5400F35C002B31D1A246534BF35C0193534BDC
:103D640003EB080B019B5FFA8AF7BB42286853D820
:103D74004F4BF35C002B3CD04C4B019F9844FBB25F
:103D84007E2B286835D8D8F8003003AA07EB030A3D
:103D9400514602AB15F01CF848452AD05146286814
:103DA40015F05CF8013704460028E8D021E01268D9
:103DB4000B6907FB00209847ABE73C4B03AA53F879
:103DC4002670286802AB394615F002F8484507D03A
:103DD40078B9039B012B0CD03946286815F03EF8BE
:103DE400344B394653F8083028681A6814F01AFF1F
:103DF40004460136262EA6D1B4FA84F32E4A5B0972
:103E040013702E4B9C4241D02DD8002C32D0013B54
:103E14009C423FD0C5242DE0DBF8003003AA1F44A8
:103E2400394602AB14F0D4FF48450AD010B10AF168
:103E3400010A97E7039B8BB9214B029AF35C9A42E0
:103E4400F5D01F4B1B4A9B5D52F808203946286861
:103E540014F05AFE0028EAD0044689E73946286857
:103E640014F0FCFFEDE7174B9C4211D004339C4245
:103E7400D0D1C1242B681B7C23B14FF48971124823
:103E8400FEF700FF204609B0BDE8F08FC324F1E738
:103E9400C424EFE7C224EDE7C624F3E7A41E002000
:103EA400A01E002024FF020064FE020070FF020036
:103EB4004AFF02008CFE0200782E002002E000F08F
:103EC4000800030004E000F0262403000BE000F0E7
:103ED400252970B506460C4615461AD8144A127898
:103EE40022B3144A1068144A52F82110134A125D7E
:103EF4003AB1324614F0E4FEC0B1BDE87040FDF7BB
:103F040000B97F2D08BF00253246294414F046FE2F
:103F1400F2E7FF2903D9BDE87040FFF799BB40F2EF
:103F24004511BDE870400648FEF7ACBE70BD00BF49
:103F3400782E0020A01E002070FF020024FF020043
:103F4400262403002528F8B504460D46164619D83C
:103F54001449097829B31449144F0868144951F8CD
:103F640024103C5D3CB1126814F05CFEC8B1BDE89D
:103F7400F840FDF7C6B87F2D08BF0025294414F08A
:103F8400C3FDF3E7FF2805D91A463146BDE8F840DA
:103F9400FFF782BB4FF4BC71BDE8F8400548FEF75B
:103FA40071BEF8BD782E0020A01E002024FF020060
:103FB40070FF02002624030008B5084B1B7863B188
:103FC400074B002253F82010064B186814F0B8FE73
:103FD40018B1BDE80840FDF794B808BD782E00205C
:103FE40070FF0200A01E002070B5164685180AB99D
:103FF400304470BD01F00F030A2B34BF3024372442
:10400400013A2344090905F8013DD2B2EFE7000063
:10401400F0B5F9B100281CDA2D23B0F1004F13706C
:1040240000D04042012115E0801B8642ECB205F12C
:104034000105F9D904B927B101274D1C3034545472
:10404400E9B20133092B09D1303050540131C8B2DF
:10405400F0BD002100231F46DFF808C05CF8236090
:104064000025E2E79C2403002DE9F04F4FF0000BFC
:1040740095B002AC81468A4617461D465E46A04668
:104084003B7863B902ABE41AE4B2224619465046BF
:10409400C847002840F093803444E0B290E0252BD8
:1040A40013D0BBF1000F14D12370013412AB9C4226
:1040B4006DD3A4EB0804E4B2224641465046C847F7
:1040C40000287CD12644F6B260E0BBF1000F00D199
:1040D40001373B78632B00F092801BD8392B09D829
:1040E400302B80F09E80002BCCD0252B51D04FF06C
:1040F400000BDBE7582B00F08B80622BF7D14FF0DD
:10410400000B2B6801936B680093009B9B4543D184
:104114000835ECE7702B1ED017D8642B01D06C2B1C
:10412400E5D16C2B05F1040B28686CD17B78752BD9
:1041340014BF0121002101D0642B00D10137224694
:10414400FFF766FF04445D46D1E7752BE9D0782B71
:104154005ED0732BCBD1A4EB0804E4B2224602A9AF
:10416400504605F1040B2D68C84740BB2644F6B2FF
:10417400C4B22B5D0130002BFAD1224629465046A9
:10418400C847E0B95D4683462644F6B24446013743
:1041940076E723700134AAE7019B204613F80B103D
:1041A4000222FFF721FF12AB984204460ED3A0EB84
:1041B4000804E4B2224641465046C84718B10020DC
:1041C40015B0BDE8F08F26444446F6B2009B013B8F
:1041D4005B4582BF20232370013412AB9C420BD376
:1041E400A4EB0804E4B2224641465046C8470028DE
:1041F400E5D126444446F6B20BF1010B85E72B6862
:1042040004352370C6E7752B0CBF0021012196E706
:10421400204602222978FFF7E7FE05F1040B044645
:1042240091E77A7802F0DF02582A19D1322B07F18C
:10423400010B09D10422204629882F1DFFF7D4FE43
:104244003D4604465F4652E7342B09D12F1D2D68A5
:104254000422290C2046FFF7C7FE0422A9B2EDE789
:104264004FF0010B22E70EB403B503AA52F8041B66
:10427400019206F00BFDC0B202B05DF804EB03B08E
:10428400704700000149FFF7EEBF00BFECF80200E1
:104294000EB433B505AA52F8041B0546019206F084
:1042A400F5FC04462846FFF7EDFFE0B202B0BDE896
:1042B400304003B0704708B506F0E8FCC0B208BD52
:1042C4002DE9F04F9B46584B85B01B78064689462E
:1042D4001546109F9DF844A0DDF85080002B00F097
:1042E4009280072A00F291800E9B002B00F08D80B3
:1042F4000F9B002B00F08980129BB3F5006F00F335
:104304008480012801D1002F7FD0484B03EB051393
:104314001B7B002B7BD0464C1022002168462BF0DF
:1043240081FA04EB45141022B9F1000F5CD149461F
:1043340020462BF077FAA37843F01003A370E378B8
:1043440043F03003E370BAF1000F03D1DBB243F062
:104354000303E37036496A01129B885A013B63F3F5
:104364000E100E9B01EB020C8852CCF808300F9B08
:104374009DF84C10CCF804309CF80330012E61F306
:104384008303CDF800B08CF8033042D113230CF131
:10439400100ECCF80C309CE80F008EE80F006FF084
:1043A4000301DCF81C20B9F1010F61F39F02CCF882
:1043B4001C20CCF8147004D10F9BCCF80470CCF8FA
:1043C4001830002719492A018B1841F80280159AE0
:1043D40028465A609F605E732246694602F016FBC7
:1043E400384605B0BDE8F08F002120462BF01AFABC
:1043F4001023A3700323E370BAF1000FAAD1DBB238
:1044040043F03003A5E70B48EBE70B48E9E70B481B
:10441400E7E7B8F1000FD4D19CF8023068F3041335
:104424008CF80230CDE700BFFC2F00207C2E00204A
:10443400FC2E0020028000F0018000F0078000F0D4
:1044440038B5104B05461B78BBB1C0B102F069F911
:1044540000230D4901EB0312147B3CB92B600123AB
:104464001460137302F063F9204638BD0133082B3E
:10447400F0D102F05CF90548F7E70548F5E705488F
:10448400F3E700BFFC2F00207C2E0020048000F006
:10449400028000F0018000F038B502F042F90023F8
:1044A40005460A4AD1180C7B5CB91033802BF9D12C
:1044B40002F05EFA064B28461C7002F038F92046DA
:1044C40038BD284602F033F90248F9E77C2E002073
:1044D400FC2F0020058000F00D4B10B51B7804461E
:1044E40093B1072812D802F01CF90A4B03EB04130A
:1044F4001A7B2AB100241C7302F019F9204610BD5E
:1045040002F015F90448FAE70448F8E70448F6E726
:10451400FC2F00207C2E0020068000F0028000F09A
:10452400018000F0164B13B51868002301908DF834
:10453400043002F0F6F8134B1C7824B102F0F7F8BB
:10454400114802B010BD01221A7002F0F0F80F4BAE
:104554001C731C7783F82C4083F83C4083F84C4050
:1045640083F85C4083F86C4083F87C4004230DEBB3
:1045740003008DF8073002F01FFA2046E1E700BF80
:10458400C0240300FC2F0020038000F07C2E0020B8
:1045940010B588B00E9C009207940D9C02460694B8
:1045A4009DF8304005940B9C04949DF82840039496
:1045B4000024CDE9013420460B462146FFF780FE56
:1045C40008B010BD10B588B00E9C009207940D9CE5
:1045D400024606949DF8304005940B9C04949DF883
:1045E400284003940024CDE9013420460B460121E0
:1045F400FFF766FE08B010BD08B50A4B1B785BB127
:1046040007280BD8084B03EB00131B7B43B1002195
:1046140002F0C2F9002008BD0448FCE70448FAE7A8
:104624000448F8E7FC2F00207C2E0020028000F0D4
:10463400018000F0078000F008B50A4B1B785BB1DD
:1046440007280BD8084B03EB00131B7B43B1012154
:1046540002F0A2F9002008BD0448FCE70448FAE788
:104664000448F8E7FC2F00207C2E0020028000F094
:10467400018000F0078000F008B50A4B1B7853B1A5
:1046840007280AD8084B03EB00131B7B3BB102F04D
:104694000DFA002008BD0548FCE70548FAE705487F
:1046A400F8E700BFFC2F00207C2E0020028000F0E1
:1046B400018000F0078000F00D4B1B7893B10728B0
:1046C40012D889B10B4B03EB00131B7B73B10A4B5C
:1046D400DA6A012303FA00F010401ABF00200B70BD
:1046E400087070470548704705487047054870478B
:1046F400FC2F00207C2E002000000440028000F0EB
:10470400018000F0078000F00B4B10B51B780C46BD
:1047140063B107280CD859B1084B03EB00131B7B7A
:1047240043B102F0D5F92060002010BD0448FCE735
:104734000448FAE70448F8E7FC2F00207C2E002008
:10474400028000F0018000F0078000F02DE9F843BA
:10475400174B1F6D5B6D1F4000D5FEE7012600253A
:10476400144CDFF85480DFF85490374217D0236894
:10477400C8F800609BB1A16862680131A160284655
:104784009847637B012B0AD148B909EB4513197B80
:104794001A7F60F3410160F3410219731A770135FE
:1047A400082D4FEA460604F11004DED1BDE8F88373
:1047B400000004407C2E002050200440FC2E0020E9
:1047C40070B504460125084E04B970BD94FAA4F0EE
:1047D400B0FA80F005FA00F324EA030456F8203016
:1047E400002BF1D09847EFE7003000204FF0007223
:1047F400044BC3F880211A604FF08062C3F8802113
:104804001A60704700E100E038B504460D4601F037
:1048140088FF034B43F82450BDE8384001F087BFBC
:1048240000300020084BD3F82404D3F8202410408F
:1048340042F2204220F42A5020F02A004004400C86
:104844009850FFF7BDBF00BF00C00340084BD3F82A
:104854002404D3F82024104042F2204220F4AA4039
:1048640020F055000004000C9850FFF7A9BF00BFCA
:1048740000C00340104A30B5136841611546ABB916
:104884001060836011E0091B9C6841611A467CB189
:1048940023465C698C42F6D9002CF4D052B1906066
:1048A400836013B15A69511A596130BD0022F0E78F
:1048B4002346F4E72860F3E75430002010B500F0F5
:1048C400AFFA094B094A196831B11368C41A4B6924
:1048D400A34203D31B1B4B61106003E0C01A0023E7
:1048E40010604B6110BD00BF5430002044300020E4
:1048F400074B10B51B6802205C69064B1B681C44FF
:1049040000F0C2FA2046BDE8104000F091BA00BFA2
:10491400543000204430002070B59DF814501646E1
:1049240005710025049A8560BDF818500446C580B9
:104934000260C0E903360D4629B961610BB1114625
:10494400984796B1354601F0ECFE0646FFF7B6FFF0
:1049540029462046FFF78EFF054B1B68A34201D171
:10496400FFF7C6FF304601F0E2FE002070BD00BF35
:104974005430002000210C4A13687BB183420AD1D1
:10498400836879B18B6083681BB15A6941690A44B1
:104994005A610020704719469B68EEE70028EFD063
:1049A400022070471360EEE75430002070B501F028
:1049B400B8FE114D06462C78CCB9104B1C60104B38
:1049C4001C60104B1C8000F0F1F9012000F05CFA2F
:1049D40000F0A8FA0C4B0246186040F2E731234677
:1049E4000A482AF043FD0A4B186001232B70304615
:1049F40001F09DFE002070BD4030002054300020A6
:104A0400443000204C3000205030002018FCFFFFC0
:104A1400483000202DE9F0410546F8B101F081FE4F
:104A24000F4F0646FFF74AFF2846D7F80080FFF7E6
:104A3400A1FF044628B1304601F079FE2046BDE8C6
:104A4400F081A8453B6803D123B1FFF751FFF2E79A
:104A5400002BF0D1022000F023FAECE72224EDE74A
:104A640054300020F0B50D4685B016461F46044666
:104A740080B1FFF7CFFFBDF82C30002202939DF8E0
:104A840028302946CDE9007320463346FFF744FF1A
:104A940005B0F0BD2220FBE738B50C46054698B1B9
:104AA40091B100230B7001F03CFE0121074B1B6800
:104AB4000BB122781AB101F03AFE002038BD9D42B4
:104AC4000CBF21709B68F3E72220F7E754300020E5
:104AD400F0B51F46002387B00D4616468DF81730F3
:104AE4000446A0B10DF11701FFF7D6FF9DF817207A
:104AF4007AB9BDF83430294602939DF83030204607
:104B0400CDE900733346FFF707FF07B0F0BD22205D
:104B1400FBE70320F9E70000F8B50C460646C8B1E8
:104B2400C1B101F0FEFD0546FFF7C8FE73692360BD
:104B3400134B1B68B3420FD023B9284601F0F7FD8D
:104B440003201CE0596922689B680A442260F1E74B
:104B540000230FE0222012E0276800F061F9094EDB
:104B64003368C01A8742F3D900F05AF93368C01A7F
:104B740023681B1A2846236001F0D9FD0020F8BDE4
:104B8400543000204430002070B501F0CAFD0646C0
:104B940000F046F9094B05461C880120A4B200F038
:104BA40097F918B100F03CF905460134304601F09C
:104BB400BEFD0022214642EA050070BD4C300020B3
:104BC4000A4B10B51B680C4683420CD3084B4FF4B8
:104BD4007A7219680023A0FB01012AF047FC013016
:104BE4002060002010BD2120FCE700BF48300020D9
:104BF40050300020104B10B51A684FF47A73A0FBA4
:104C04000301A2B1531E134211D1B2FA82F2C2F1CE
:104C14001F02C2F12004A2F1200301FA04F420FAD5
:104C240002F2224321FA03F342EA030010BD0023F7
:104C34002AF01CFCFAE700BF50300020F8B51646F5
:104C44001BA3D3E900238B4208BF82422AD3174B0C
:104C54001A684FF47A73A0FB034503FB0155C2B1F4
:104C6400531E13EA020014D1B2FA82F2C2F11F02F7
:104C7400C2F12007A2F1200124FA02F305FA07F792
:104C84003B4325FA01F10B4325FA02F2C6E900324F
:104C9400F8BD0023204629462AF0E8FBC6E90001B6
:104CA4000020F5E72120F3E7AFF300805030002027
:104CB400EFA7C64B37894100C2072DE9F84F0446D8
:104CC4000BD5374A138801339BB21380FFF7F6FDE7
:104CD400344B1B680BB1FFF70BFEA3075DD500F047
:104CE4009FF8314E074635684FF0000A451B01F026
:104CF40018FD8046DFF8AC90D9F80040002C48D06D
:104D04006369AB4209D95D1B65613760FFF7F0FD4C
:104D14004046BDE8F84F01F00ABD23462A463760F5
:104D24005969914209D8187994F804C0521A8445F3
:104D340088BF1C469B68002BF2D1404601F0F7FC6B
:104D4400D4F81480C4F814A001F0EBFC8346204688
:104D5400FFF710FE584601F0EAFC23694BB101F05D
:104D6400E0FC834621692046FFF784FD584601F0A4
:104D7400DEFCE36813B121682046984700F050F840
:104D84004744ED1B0446054401F0CBFC274680460E
:104D9400B2E7022000F084F8BAE7BDE8F88F00BF5C
:104DA4004C30002054300020443000201FB5002433
:104DB400184B18689A88029053F8060FADF80C2027
:104DC4001B79009002A88DF804308DF808408DF806
:104DD4000C4001F007FF694601208DF8004001F006
:104DE400C5FE4FF090431F219A6922F01F029A6179
:104DF400094A11609A6A12F00802FBD11A62012072
:104E040001F0CEFE4FF48062044BC3F880211A6097
:104E140004B010BDC42403001420004800E100E0E5
:104E24004FF090439A6A1207FCD4186A7047000046
:104E34004FF09042936A1907FCD4136A116C5269BB
:104E4400120704D4CA1A022A01D899420ED1C21AEE
:104E5400012A98BF981CB0F1FF3F28BF01304FF0E2
:104E6400904318649A6942F008029A61054A1378DB
:104E74003BB14FF09041CB6B43F00203CB63002373
:104E840013707047601E002082074FF0904200F0BC
:104E94000103916948BF43F008030B4393617047D2
:104EA400830700F001020AD50121084B42F00802F1
:104EB40019704FF09041CB6B23F00303CB634FF099
:104EC40090418B6923EA02038B617047601E0020C6
:104ED4004FF0904301285B6904D0022805D1C3F345
:104EE400C000704703F001007047002070470000C5
:104EF40010B501F016FC4FF0904304465B691A07A5
:104F0400074A03F0010003F00D0348BF40F002001C
:104F14001360FFF7D1FE2046BDE8104001F007BC46
:104F2400142000481B2001F00DB900000022114696
:104F34002D48F0B503682D4D54592CB11E68AC189A
:104F4400002E3DD1234601210832282AF4D101B193
:104F54000360002214462649264E0B6895592DB14C
:104F64001F68B518002F32D12B4601240832282A95
:104F7400F4D104B10B6000680368002B2FD04FF00C
:104F84004022936F007923F0FF7323F4803343EAC4
:104F940000439367184B4FF0004209681A600B688E
:104FA400FBB14FF04022936F097923F4FF7323F090
:104FB40001030B439367104B4FF080421A60F0BD1E
:104FC4001E792779B74284BF23460121BCE71F79A4
:104FD40095F804C0BC453CBF2B460124C6E7074BEB
:104FE400D9E7064BE8E700BF5C3000206C300020B6
:104FF4006030002094300020685000406860004019
:1050040010B5012228240F4B00211A700E482246A5
:105014002AF008FC224600210C482AF003FC0C4B21
:105024000C4A13600C4A13604FF040430B4A136060
:10503400536020220A4BC3F880211A60FFF776FFE1
:10504400002010BD583000206C3000209430002027
:10505400643000205C300020603000206460004038
:1050640000E100E04FF04022D2F88800D2F8883006
:10507400C0F38800C3F388039842F5D16FF48873B2
:10508400184440B2704700004FF04022936E526EB5
:1050940010B5134013F0804211D0114B1B681C68EB
:1050A4002CB1002119605960FFF7DCFFA0474FF0D5
:1050B40080420C4B1A60BDE81040FFF737BF002B4D
:1050C400F9DA094B1B681C682CB11A605A60FFF7A7
:1050D400C9FF0121A047034B4FF00042EAE700BF9C
:1050E40060300020646000405C300020FFF7CCBFDB
:1050F400012203685A619A69D207FCD541F2AC5285
:10510400042103795B0103F1804303F57033995063
:105114007047000038B141B1013AB2F5006F04485C
:1051240038BF00207047034870470148704700BFEC
:10513400037000F0027000F038B504460D4601F02B
:10514400F0FAA28892B222B92A6001F0F0FA064875
:1051540038BD1422638802FB034308332B6001F03B
:10516400E6FA0020F4E700BF0B7000F038B50446FF
:105174000D4601F0D6FAA3889BB223B92B6001F047
:10518400D6FA0C4838BD14226388E18802FB034335
:1051940008332B6063885A1C92FBF1F301FB132341
:1051A4009BB26380A388013B9BB2A38001F0BFFA4A
:1051B4000020E7E70B7000F090F83130022B0BD1A0
:1051C4003022437F90F821005A43044B9B5823FA22
:1051D40000F000F0010070470020704714C0034045
:1051E400002313B51C4A52F8234094F8211081423D
:1051F4000ED00133042BF6D102B010BD0028FBD130
:105204009DF80730002BF7D0A068FFF7F5F9F3E716
:1052140094F83130022BEFD12046FFF7CDFF637EA7
:105224002076022BE8D194F82E3003F0FF02002BF5
:10523400E2D102A901F8012DA068FFF73DFA237E0F
:105244001BB194F82F30002BD8D00023A06884F829
:105254002F30FFF7F1F9CFE7BC300020012230B541
:1052640090F8324087B080F82C207CB9094D03684F
:10527400CDE9024504904C682433CDE900240A6842
:105284004169C068FFF79EF907B030BD002380F87C
:105294002C30F9E74D5B0000012330B590F8324023
:1052A40087B080F82D307CB9094D0268CDE90245FC
:1052B40004904C683C32CDE900340B680169806885
:1052C400FFF766F907B030BD002380F82D30F9E709
:1052D400D9520000F7B5906A01A91446FFF72CFFD4
:1052E400144B984220D00025019B1D619D6001F064
:1052F40018FA019A0746D66826B1D2E9002329464E
:105304002046B04701A9A06AFFF730FFA06A83884E
:105314009BB263B101A9FFF70FFF01992046FFF784
:10532400BBFF384601F003FA012003B0F0BD84F856
:105334002D30F6E70B7000F0F8B5044617460D461D
:1053440001F0EFF9A388E28806469A4205D80023C3
:105354003B6001F0ECF91648F8BD1422238805F1EE
:10536400100C02FB034308332A4603CA6245186043
:105374005960154603F10803F6D110681422186029
:105384002388E18802FB034308333B6023883046CB
:105394005A1C92FBF1F301FB13239BB22380A388D5
:1053A40001339BB2A38001F0C2F90020D4E700BF0F
:1053B4000A7000F02DE9F3410D460446002800F080
:1053C400868001F0AEF9012D064637D1A36A9B8889
:1053D4009BB2002B39D0A068FFF74EF90023A06AD6
:1053E40084F82D3083889BB2002B34D122689369D2
:1053F4009B04FCD5023D012D1BD8E068FFF73CF966
:105404000023606A84F82C3083889BB2002B41D13E
:1054140094F83130032B0CD042F2AC52042123799E
:105424005B0103F1804303F5703399500222236832
:105434005A61304601F07BF9002009E0022D48D181
:10544400636A9B889BB2002BD4D101F070F9264883
:1054540002B0BDE8F08101A9FFF76EFE0199A068D2
:105464000831FFF751F9214F019B1F61A06A83881E
:105474009BB2002BBAD001A9FFF778FE019BD3F8A9
:105484000C80B8F1000FF1D09B6800223946204609
:10549400C047EBE76946FFF74FFE0099E068083123
:1054A400FFF732F9114F009B1F61606A83889BB23A
:1054B400002BADD06946FFF759FE009BDD68002D37
:1054C400F3D09B68002239462046A847EDE70848F8
:1054D400BEE7032D8ED1A36A9B889BB2002B7FF479
:1054E4007AAF636A73E700BF087000F0097000F0D8
:1054F400027000F0036898697047436A9888C0B2E4
:1055040070472DE9F341984600230546406A0E464C
:1055140084881746A4B2CDE900333CB16946FFF74D
:105524000BFE01A90446E868FFF7EEF8009969B19B
:1055340064B94868019BC01A3860C8F800300B6829
:1055440033602B68986902B0BDE8F0810021C8F887
:10555400001039603160F4E7836A9888C0B27047FC
:105564002DE9F341984600230546806A0E46848857
:105574001746A4B2CDE900333CB16946FFF7DCFD20
:1055840001A90446A868FFF7BFF8009969B164B996
:105594004868019BC01A3860C8F800300B68336053
:1055A4002B68986902B0BDE8F0810021C8F80010AA
:1055B40039603160F4E7007E70472DE9F04104461C
:1055C4000F469046FFF7A6FD0546002839D1152061
:1055D40001F0CCF80646A26A93889BB213B194F802
:1055E4002E308BB323689E6916F002060ED1042276
:1055F4005A619A699207FCD541F2AC521021237981
:105604005B0103F1804303F570339950012384F85F
:10561400303094F8323033B9B8444745206818D153
:1056240083699B06FCD566B942F2AC5210212379FA
:105634005B0103F1804303F570339950082223681A
:105644005A612846BDE8F081002EC5D0FFF77EF8E8
:10565400C1E717F8011B01F049FDDEE710B5044668
:1056640080B190F82E302BB9FFF7A6FD10B9A068D1
:10567400FEF7C2FF002094F82E300133DBB284F829
:105684002E3010BD0048FCE7027000F010B504464F
:10569400A0B190F82E309BB190F82E30012B05D19B
:1056A400FFF78AFD10B9A068FEF7C6FF002094F842
:1056B4002E30013BDBB284F82E3010BD0148FCE7EC
:1056C4000148FAE7027000F0057000F037B590F871
:1056D40031500446022D1ED1012190F82220457E2E
:1056E400837F01FA02F23020154925B900FB031328
:1056F40042F2100105E0012D07D100FB031341F232
:1057040010015A50002003B030BD247E00FB031367
:10571400002CF4D1ECE7012DF4D1037E73B91123ED
:105724008DF80730FFF79AFF2A460DF1070120464E
:10573400FFF743FF2046FFF7A9FFE3E71323EFE753
:1057440000C00340F0B504468BB09E4F03AE0D4637
:105754000FCF0FC697E8070086E807001CB99A4CDC
:1057640020460BB0F0BD0DB9984CF9E73822002162
:1057740020462AF057F89649964A0B78002B40F0B9
:10578400D3800120C2E90033C2E90233087042F831
:1057940023402B7D286884F831300023206084F86E
:1057A40032302B7B23718C4B984240F0CA802023EB
:1057B40084F82330894B23614FF4802300266361EE
:1057C400D5E90723626216805680968084F82C609F
:1057D400A3621E805E809E806B6803A90593EB899B
:1057E40084F82D60ADF81C302B8A84F82F60ADF856
:1057F4001A30AB7C8DF80C608DF81830EB7C8DF88A
:105804001E3005238DF8193001F0F2FB14212A7B98
:10581400734B287A03EB4217C7F8AC15A97A2E32DA
:1058240040EA014C03EB4213C3F804C06A7AEB7AF2
:1058340042EA034CC7F8BCC5E17784F820306B7D9D
:10584400E07622776377AB7D042284F82130EB7D08
:10585400A3772B7E84F82230012301F047F801233B
:10586400022294F82010207F01F040F894F831309F
:10587400022B7DD13346012294F82110607F01F080
:1058840035F83346042294F82210A07F01F02EF854
:10589400012394F82120607F1146CDE9003300F004
:1058A400DFFF00F03EFF2E7D0746032E71D141F24B
:1058B400AC5202212B7B04205B0103F1804303F5EE
:1058C4007033995041F25C0229688850297EEA7D40
:1058D40042EA014241F2B8515A50A97D6A7D42EA36
:1058E400014241F2B4515A504FF0FF3242F24803A0
:1058F4002868C2502B7D032B0CBF0521042101F025
:1059040031FB4FF440622B685A61FEF70BFE002115
:1059140004F10800FEF794FD014600284AD0314CFA
:10592400384600F004FF1BE7002352F82310002937
:105934003FF42DAF8C423FF42AAF0133042BF4D152
:105944000DE7294B984207D1212384F82330274BB4
:1059540023614FF4A02331E7254B98427FF404AF31
:10596400222384F82330234B23614FF4C02325E7FB
:10597400032B96D1334694F82110607F012200F066
:10598400B5FF3346042294F82210A07F00F0AEFF46
:1059940087E7022EA8D194F821001749FEF734FFB7
:1059A400FEF724FF00236676A37623762046FFF7CE
:1059B4008DFE99E704F10C00FEF742FD0446002831
:1059C400AED0ACE7D0240300027000F0037000F006
:1059D400CC300020BC3000200080054002000400D0
:1059E40000C003400E7000F000C005400200050036
:1059F4000000064002000600E551000090F8313036
:105A0400032B05D00229417618BF0176FFF75EBE4D
:105A140000487047057000F013B50446002862D0B2
:105A24000321FFF7C7FC00212046FFF7E7FF00230F
:105A3400E17F1A46E07E00F059FF002394F820101D
:105A44001A46207F00F052FF94F83130022B39D1EE
:105A5400002394F821101A46607F00F047FF0023CA
:105A640094F822101A46A07F00F040FF0021012381
:105A740094F82120607FCDE90031114600F0F0FE5A
:105A840094F8323013B90A2223685A6194F83130F9
:105A9400032B04D0002194F82100FEF7B5FEA06882
:105AA400FEF71AFDE068FEF717FDFEF7F5FC00208F
:105AB400636A188058809880A36A188058809880F8
:105AC40002B010BD032BDBD1002394F821101A4639
:105AD400607F00F00BFF002394F822101A46A07F89
:105AE40000F004FFCCE70148EAE700BF027000F0D1
:105AF400F0B587B004461646FFF70CFB0546E8B937
:105B04000493104BCDE901166A4601A9606A039615
:105B14000593FFF711FC054680B994F82C306BB956
:105B24002046FFF7E5FA0099FFF798FB94F8313027
:105B3400032B03D025762046FFF7C8FD284607B07F
:105B4400F0BD00BF017000F073B5506A01A914469E
:105B5400FFF7F2FA2F4B984230D094F83200019BB1
:105B6400002839D12268916C11F4007129D02A4996
:105B74009860196142F248034FF40071D15000F06B
:105B8400D0FD01990646CD6835B14A688B68204638
:105B9400D31A0A680969A84701A9606AFFF7E6FAF7
:105BA400606A8588ADB2DDB101A9FFF7C5FA019934
:105BB4002046FFF753FB304600F0B9FD012002B048
:105BC40070BD906CC00507D51448996018614FF4F6
